:020000042000DA
:1000000000980020A9040020B1040020C9040020A9
:1000100000000000000000000000000000000000E0
:10002000000000000000000000000000E1040020CB
:100030000000000000000000F9040020FB04002084
:100040007B1D0020053103000D310300011E00203F
:100050000D1E00208D3103005B1E00206D1E002050
:10006000FD040020FD040020AD1E0020AD31030082
:1000700057810200FD0400204B1B02004B1B0200B5
:100080004B1B0200FD0400204B1B02000512002048
:10009000091200200D12002011120020151200205C
:020000042000DA
:100160003200000085060020231000208B24002090
:10017000000000000000000063800200BD8002005B
:100180006F0E0020FB800200198102003581020001
:100190005D8102004D1D00206B0600203F0E0020F7
:1001A000570E002000000000000000003F0000008B
:1001B000F48B002000040000740B080048010000CC
:1001C0006807080000040000C80C080020050000B3
:1001D000000000002000000048000000580000005F
:1001E0006800000004010000160100002801000062
:1001F0002E010000202A00008E2E000001000000C9
:1002000088130000AD100020E9600200FD93020099
:10021000B312002019280300A57402000119002060
:1002200003000000D52002009324002004000000F9
:10023000D74902000F490200831D020063910200AA
:10024000B7910200BF910200078202007182020092
:10025000003E0020AD83020093840200418502002D
:1002600015860200378602005F860200758602004E
:10027000F9870200258902005D8A0200D38C020002
:10028000098D02000F900200438D0200278E0200AC
:10029000F98E0200478F0200B10D0020D58F0200B9
:1002A00049510200775102002F5202001000000055
:1002B00020030000803E000000000000000000005D
:020000042000DA
:1002C000504600030003983A6400F401B80B000C98
:1002D000B80B120030003000CD009A01120024004B
:1002E00030006400B0001800280012001200D0078F
:1002F0000000FFFF00000000000000000000000000
:100300001F000002444131343538302D30310000B7
:1003100000000000000000000000000000000000DD
:0403200000000000D9
:020000042000DA
:10034000FFFF010000C201000000000000000000EB
:100350000000F4010100011B0A071AFFD200021578
:10036000585CDE931B0142CC9A1325009BEDC65EC0
:1003700000000000C5000000000009FF00605257A7
:100380002D424C450000000000000000000000006D
:100390000000000000000000000044413134353806
:1003A00078000000000000000000000000000000D5
:1003B000000000000000000000000000000000003D
:1003C000000000000000000000000000000000002D
:1003D0000000000000000000010000CAEA80D00711
:0403E000064064323D
:020000042000DA
:100440000348854603F002F900480047C720020030
:100450000098002010B5114906200880FF2010499F
:10046000013008600F4988683E2290432E30886032
:100470000021052000070180028A0F231B021A4376
:1004800002820122D204032308461B038418216040
:10049000001D9842FADB62B610BD00000034005027
:1004A00080E100E0003300501548804715480047C0
:1004B00004207146084203D0EFF30980124908472F
:1004C000EFF308801049084704207146084203D022
:1004D000EFF309800D490847EFF308800B490847FF
:1004E00004207146084203D0EFF309800849084709
:1004F000EFF3088006490847FEE7FEE7FEE7000045
:1005000055040020410400207D0A0020150500202C
:10051000F305002005221207518A802319435182D6
:10052000114903680B6043684B6083688B60C36844
:10053000CB6003690B6143694B6183698B61C0695F
:10054000C8610A48836A0B62C36A4B62036B8B62A1
:10055000C36BCB62436B0B63806B4863908A8006EE
:1005600001D500BE7047FEE70018080000ED00E06E
:1005700070B505460C46103C3F2003F079F8002882
:100580000FD0D3488068322806D9D2498D4201D095
:100590003C2801D9002070BD2146CD4803F06EF8FB
:1005A00006E0204603F070F801213F2003F072F8C6
:1005B000012070BD10B5C8490B780A1D002005E068
:1005C000C400145D3F2C04D0401CC0B29842F7D345
:1005D00010BDC000C14A4018826010BD0289088960
:1005E000BF49101A80B2884201D90120704700200B
:1005F000704781692039897F082904D2B94A890066
:10060000515881617047FEE7B848B7490161B84960
:100610004161B8498161B849C161B8490162B849CD
:100620004162B8498162B849C162B8490163B849B9
:100630004163B8498163B849C163B649AB485C318D
:1006400040300160B5494160B5498160B549C1603C
:100650000120B549C0060860B449CA691202120AED
:10066000CA61B14980390860704710B5B0490020AF
:10067000086000F089FB01208007016B49004908F0
:10068000016310BD1CB5AB490120AB4E08700825B5
:10069000358003F005F803F033FB00F0A2FAA74819
:1006A00001780170A64801780170012002F0FEFF78
:1006B0006F010D203946800102F0FEFF01F034FA8F
:1006C00000F018FC00F0B0FA042000F0F9F8072060
:1006D00000F0F6F80A2000F0F3F8062000F0F0F839
:1006E0000B2000F0EDF8012000F0EAF8022000F005
:1006F000E7F8002000F0E4F89248006802F0E2FF1A
:10070000FFF758FFE80601683943016000F02EF951
:100710008D480068AA2805D1142000F0F3FA1420AF
:1007200000F0FEFA02F0A4F8FFF79FFFA2200524D4
:100730002407E08285484188E0229143A03141802E
:10074000012002F0C5FF02F0C9FF022803D002F029
:10075000C5FF012807D13580A08A8006FCD4618AB4
:1007600080208143618202F05AFD02262089000622
:1007700021D501208007006B00041CD402F0B4FFD7
:10078000C00718D1042002F0B5FF054602F0B8FFFB
:10079000002D10D0002001906B480068AA2802D1DB
:1007A000142000F0BDFA042101A802F0AFFF0028D8
:1007B00001D000F00BFB02F062FC654D287C0028A4
:1007C00003D002F03CFC0020287402F0FAFD00285F
:1007D000CCD172B601F0D0F969460870042806D071
:1007E00002280CD003280AD0012866D066E05948B8
:1007F0000078012802D00320087000E00E70208AE3
:100800000425284320825448C0690128087811D95A
:10081000032849D102F080FF002845D002F082FF72
:10082000002841D0032002F083FF00283CD04B4831
:10083000067008E0032837D102F07AFF002833D091
:100840004649012008703948016929430161618ADC
:10085000202291436182218A3143218269460978AD
:100860000229618A22D0294361827F222388920152
:1008700080210B43238000235B1CDBB20A2BFBD3BC
:10088000638A10210B436382354B521E5A612188C3
:100890008022914321802D494A88BA434A8030BF43
:1008A0000169A943016109E06846C1E72943618202
:1008B000618A102291436182EDE730BF62B655E74D
:1008C000C106C90E01208840264908607047000013
:1008D000800408001034000004060800C43F002013
:1008E00030750000E03D00209427030000840040A4
:1008F00062B600DF28A30200704701DF1CCA0200B5
:10090000F8BD02DF40CB0200F5E703DF84D402002C
:1009100004DF89B0BC330200F8BD05DFF8BD06DF97
:10092000EC0C030070BD07DF80E100E000ED00E0AB
:100930008C030800488300200033005000000800AA
:10094000202A08000490002054830020200000503A
:10095000D291002054020800E0010020C4060800E3
:100960000080004080E200E0704700003E480178CF
:10097000002902D08021417070473C490020087056
:100980003B49C870704738480178002902D081215E
:10099000417070473549012008703549C87070476B
:1009A00031480178002902D08221417070472F49D7
:1009B000022008702E490120C87070472A488178AB
:1009C000002904D0491E0906090E817017D142780A
:1009D0000021002A04D09207920F0270417004E0B7
:1009E0000278002A01D0521E02701206120E017007
:1009F00005D0012A02D0022A01D1D1E7C3E770470E
:100A000010B5194CA078401CA0702078002805D1A2
:100A100002F064FE421CFFF7A9FF227010BD1249CC
:100A20000120C870704710490020C87070470E48F8
:100A3000C07870470020EFF31081012282F3108804
:100A4000052212071289120605D40A4802890123D9
:100A50001A4302811846002900D0012181F3108831
:100A60007047054800787047498300205402080009
:100A7000C6060800003300506A83002005221207D2
:100A8000118A042319431182118A02231943118206
:100A90001189402319431181174B01211960174B0C
:100AA00008211980518A802319435182144903680F
:100AB0000B6143684B6183688B61C368CB610369D9
:100AC0000B6243694B6283698B62C069C8620D48DF
:100AD000836A0B63C36A4B63036B8B63C36BCB6328
:100AE000436B074940310B60806B4860908A8006F9
:100AF00001D500BE7047FEE780E200E00033005001
:100B00004018080000ED00E070B54348002201697C
:100B1000D243002901D0114600E00121CB170C0F70
:100B20001B0123430C0101613C490D684E682C43B5
:100B300033430C604B604369002B01D0144600E046
:100B40000124E317E50E5B012B4344610D6864014A
:100B50004E682C4333430C604B60C368002B01D0BC
:100B6000144600E00124E317650FDB002B43C4604B
:100B70000D68E4004E682C4333430C604B6083687F
:100B8000002B00D101228260D017930F8000184300
:100B90000C6892004B68224318430A60486070BD9D
:100BA00038B5002403252D0202232A4604212046BD
:100BB000009402F0C7FF0022012305211046009493
:100BC00002F0C0FF14232A4603210020009402F003
:100BD000B9FF0022132302211046009402F0B2FF55
:100BE00038BD10B505242407208A022188432082BD
:100BF000A08A0007FCD5A08880210843A08003219B
:100C0000092002F09BFDFFF7FFFCFFF7C9FF608A98
:100C100020210843608210BD088000200080002051
:100C2000A44900204860704770B50521090708896C
:100C30003022904308810889802210430881088966
:100C400080088000401C0881088908231843088117
:100C500099480488144304804C8A9C434C820D8933
:100C6000402425430D810D8A0426B5430D828D8ACB
:100C7000AD07FCD58F4E00257560058801263543EC
:100C800005804589AE058D4D068801D52E4300E0CF
:100C9000AE43068005887826B5432835058005884B
:100CA0000626354305804D8A1D434D8203889343B4
:100CB00003800A89A2430A814089800503D57E49C1
:100CC00005206031888001208007016882159143EA
:100CD00001607B4801683F22520291434214891807
:100CE0000160016802031143016070BD0321754872
:100CF00009028181082242800021491C9629FCD3E7
:100D00008280704770494880088803221043088019
:100D10000888042210430880664901200870704743
:100D20007CB5644C217800292DD067490A88520788
:100D3000FCD4CA880092898801911104019A89180B
:100D4000009162494843009902F0FEFC00900020A7
:100D500020700098A060009802F0EBFB0546294641
:100D60005B4802F09CFB0A2102F0D7FB02F0E8FB93
:100D7000E060284602F0F8FB564A574B02F0EAFCC6
:100D800002F006FC20617CBD10B54A484168AA29E2
:100D900005D07C205149081802F0E2FC10BDC06863
:100DA00019210903884200D900BEFF20EB30F1E78A
:100DB00070B5414C6088C006050F02F0D7FC618811
:100DC0001E2291436A001143618070BD10B54449F1
:100DD0000120C863C86B0028FCD101208007C169CD
:100DE00040480268914201D20022026019238A1A07
:100DF000DB019A4212D3016002F0BEFC3A4A11882C
:100E0000884201D9411A00E0091A89B2182905D38C
:100E10001080012002F0B6FC02F0BAFC10BD08B54B
:100E2000244989684843314902F08EFC009008BD8E
:100E300008B52049C9684843800A009008BD08B534
:100E40001C494968002903D0FFF7E9FF009008BD5D
:100E500002F0A4FCFAE708B516494968002903D056
:100E6000FFF7E6FF009008BD02F09EFCFAE708B528
:100E70001F4901204A695206D20F13D04A699206CF
:100E8000D20F0FD000220A610092FF225F32009B36
:100E90005B1C00939342FAD34969C907C90F02D07A
:100EA00002F088FC002008BD40183721C00009016D
:100EB00040187047508300202000005000100000B0
:100EC0000002004020300050001600500024F400C2
:100ED000002474497B14AE47E17A443F01120000BC
:100EE000C00000407C0408007804080040420F0065
:100EF0000010005030B58D4A8D49D00504888023FC
:100F00001C4304808B4C65892D0701D4521EFAD2F4
:100F1000894C01222260894C0A882280884A4988AB
:100F2000118001889943018030BD002070477047CF
:100F3000704770470020704701218907086B07221E
:100F4000104308637047704710B57F497D480860BB
:100F50007E494C2008807D4B7D4A203B1A827E4989
:100F60007C4848807E487D4901807C491931418018
:100F7000222141818121890001827A4941827A4975
:100F8000018378491131418375497848203188803F
:100F900041217748090181807649C180754C103420
:100FA000C48101824182891C8182611FC182FF212B
:100FB00046310183704941837049592008806F4848
:100FC0006F4C20300480432444806E4C4C82D521E9
:100FD0008180FF21D33101816B4941816B4981813E
:100FE0006C496B48088059486B4960384180C1881A
:100FF00010242143C18062490A390181534C674959
:10100000403C61805A82082141814D485B490088FB
:1010100040390882494862490088088010BD40086C
:10102000704700B58BB05F4A42625F4A82625F4A96
:1010300042615F4AC2625F4A02605F4A02625F4A7F
:1010400042605F4AC261404A3E48002110603E480B
:101050004038026B03129A430263426B1F231B0446
:101060009A4303231B04D218426356480268C312F2
:101070009A430260026803139A430260684641542F
:10108000491CC9B22829FAD3014628224E4802F049
:1010900097FBFFF759FF02F06FFB4C4908800020D7
:1010A00002F070FB02F074FB0BB000BD10B5264AD5
:1010B0000F2124480902106023484038426B1F2347
:1010C0001B049A4303231B04D218426300060268E0
:1010D000D208D2000260052000070289920892001F
:1010E000521C0281028908231A430281028A0A43A0
:1010F000028237480068002808D10E4841898905D6
:1011000004D501887822914308310180FFF71CFF44
:101110003048006F0078002804D02F4800880B4921
:101120006039C880012002F0D3FA10BDA08601000A
:10113000087F040020000050008000405602080094
:101140004A0308004C05540780000040602C005002
:101150007F7F0000AC290000002200500909000038
:10116000002400502204000030D00000EE110000E6
:10117000002500502E0200004420000040280050AE
:101180000D95000002420000E4DC00001092000017
:1011900053780000002A00508B1000009DD50000FD
:1011A000002600502B0F00202F0F0020350F0020AD
:1011B000390F0020310F0020470F0020330F00208F
:1011C0001F100020000200402000080078040800E2
:1011D00054830020E00100205204080010B50446AA
:1011E00002F0DAFC0C49A00040188038406B00285F
:1011F00001D0804710BDE106C90E01208840074993
:10120000086010BD1320E9E71420E7E71520E5E7A3
:101210001620E3E71720E1E7A880002080E200E045
:1012200070B5EFF31085012080F31088264802F096
:10123000CDFA0446002D1DD0012080F31088002C2B
:1012400023D020462038C08B204988421DD1618997
:10125000208902F0C1FA05000ED021461031A38981
:1012600062892089A847002806D001280DD00228CD
:101270000BD105E00020E0E7204602F0B3FA04E0DD
:10128000114821460C3002F0F9F9EFF310840120E7
:1012900080F310880C480068002802D1012002F079
:1012A000A7FA002C03D0012080F3108870BD002025
:1012B000FAE710B5BC21064802F0A0FA0549012062
:1012C00002F0A2FA10BD0000A80508003883000053
:1012D0000406080021120020F8B50D4606468100DC
:1012E0002B48EA884458521C20686B89018F294F8B
:1012F00051430091014640314A89C989511A8AB245
:10130000991A89B2B94214D29A4212D0294602F0EF
:1013100081FA2D892049009802F016FA2818801CBD
:101320004034E0823002401C80B2042102F0B2F965
:10133000F8BD2821304602F073FAF8BDF8B505462D
:10134000870013480C46C059C9880068114E0246F0
:1013500040325389D2899A1A92B28B1A9BB2B34205
:1013600011D20B4E8A420ED002F060FAF0590522DB
:101370005F30611C02F024FA2802401C80B2052173
:1013800002F088F9F8BD2821284602F049FAF8BD94
:101390004C030800FF7F00001027000070B51646C0
:1013A0000D46104602F064F9002869D0340A304630
:1013B00002F05EF9012812D0A87A1E2811D0294621
:1013C0000A310E2845D019DC801E030002F034FAE1
:1013D0000B255829582D58315839583D58000220AE
:1013E00070BD3146274802F02DFA0021204602F058
:1013F0002FFA0221304602F04DF941E018283CD086
:1014000006DC102819D012282BD0162838D130E04D
:10141000522822D0D22833D127E0204602F01EFAEB
:101420002EE0204602F020FA2AE0204602F022FABE
:1014300026E0204602F024FA22E0204602F026FAB6
:101440001EE0204602F028FA1AE0204602F02AFAAE
:1014500016E0204602F02CFA12E0204602F02EFAA6
:101460000EE0204602F030FA0AE0204602F032FA9E
:1014700006E0204602F034FA02E0204602F036FA96
:10148000002070BD01280000F3B581B001980C4622
:101490000102CA1D0E310223344802F02DFA0470F5
:1014A00001990546022732488E00002C06D0042CF4
:1014B00016D0062C10D0072C3FD108E08159052208
:1014C0004968897C114069708059C77335E00846C6
:1014D00002F018FA687030E080590F21C1732CE0D7
:1014E000044680594068417C012902D1007E0128D0
:1014F0000FD0019802F00CFA01210028A0590BD05E
:101500004268D07D00281CD001281AD004280DD0B4
:101510000FE0002068700DE04068C27D022A01D013
:10152000042A06D1007C02280BD102E0107C02289C
:1015300007D06F70A1590320C873284602F0EEF956
:10154000FEBD6970F6E701460A780120042A01D938
:10155000002070474A78002A01D0012AF8D10A7980
:10156000082AF5D849790829F2D87047021C0000EA
:1015700028050800FFB589B00D4600206946059092
:1015800008720B98000A009002F0C2F907460B9807
:1015900002F06EF800287DD00B982978000A8400AC
:1015A000764E01295ED0042904D0062943D00729AC
:1015B00063D120E0687800281BD0305910224068A1
:1015C000A91C02F0FDF8002F06D03159C87B032872
:1015D00007D0042808D050E03059C07B032803D03E
:1015E0004BE00B20C87348E00521009802F09CF9FD
:1015F00043E00120B6E03059C07B0E283DD1009871
:1016000002F080F9002103E02A18401C9170C0B25A
:101610001028F9D3688A69460883294606A8082253
:101620001431023002F0CCF806ABAA1C39460098FF
:1016300002F080F921E03059C07B0F281DD1AA1C8F
:101640000A21009802F07CF9002F04D03946009856
:1016500002F07CF911E000231A463946009802F0A6
:101660007BF90AE0012F08D10B9802F001F801285C
:101670001CD0002801D0022005906846007A00287E
:1016800011D002AA0521009802F05AF96846027AA0
:10169000602000E007E002436846027201233946F9
:1016A000009802F059F905980DB0F0BD3059C07B93
:1016B0000228E2D16878002851D002210B9801F06D
:1016C000E9FF305907224068A91C173002F078F86A
:1016D000E878002804D130594068407C01283AD08D
:1016E000009802F03FF9002837D0297A009802F0DC
:1016F0003FF9002833D0009802F040F9012100980A
:1017000002F042F900282CD030594068417E00296F
:101710002BD0042929D0C17E027D1140C1763059D9
:101720004068017F427D114001776846007A0028B9
:10173000A7D13059022142680098173202F000F90F
:10174000305941684031897B002913D00421009829
:10175000FFF79AFE91E7022004E0062002E008204D
:1017600000E00320694608728BE70021C1763059FA
:101770004068D9E70B21C1737FE700002805080006
:1017800070B50446007800250D2801D00A2200E03B
:1017900002225A494B7A002B06D00D2804D0637CD4
:1017A000032B01D0432551E0097A8A4339D10D2812
:1017B00009D00E2802D00F2803D134E0607C032822
:1017C00004D3402542E0607C0328FAD8A07C04289A
:1017D000F7D20A2908D0607C012822D0022820D024
:1017E0006078032809D811E002F0D4F8012806D166
:1017F0006078032803D0002801D0492526E002F0B4
:10180000C9F8002802D160780228F6D83020035D9C
:1018100022462046E17C3132143000F019F80546AA
:1018200014E0422512E002F0B5F8012807D16078F3
:10183000052804D1A01D02F0B3F80028DDD002F085
:10184000A9F8002802D160780228D6D8284670BDB1
:10185000FFB5002086B001216A461170044605914B
:101860000021002C06D0089D099A1F239A4234D9E2
:10187000402032E01C23069D079AF7E76B185E783C
:10188000330001F0D9FF1D26101010101010101099
:10189000102626262626262626262626262610102A
:1018A000101010102600059B03E06F46FF5CB74246
:1018B00004D05B1E5BB2002BF7DA03E0002B01DBE8
:1018C0004A2006E0059B6F46FE54059B5B1CDBB27D
:1018D00005936B5C491C5918C9B2914201D200288A
:1018E000CCD0914202D04A200AB0F0BD641CE4B2D0
:1018F000022CF9D20028B3D0F6E7000098050800C2
:10190000F8B50C46954916460968012500270222BC
:101910008B1C312873D012DC0C2874D008DC012811
:1019200021D0022840D007284FD00B2869D156E09B
:1019300010287FD0112876D01228F7D18EE001230D
:10194000412871D008DC32286FD035286ED0362877
:101950006DD04028EAD1B3E0422869D0432868D04E
:101960004428E3D1D1E006227D497E4802F01EF8EA
:10197000002808D006227B49304601F021FF0620CE
:1019800020700020F8BD754801680878C00738D07D
:101990002078062801D22770C4E00622304698310C
:1019A00001F00EFF06200EE00A786C48920728D559
:1019B00022783E2AEFD305464A7E30465A3101F05E
:1019C000FFFE2868407E2070A9E00878400718D5FF
:1019D00020780228DFD3887C3070587C7AE00A783F
:1019E0005E4812070DD52278202AD4D30546CA7D39
:1019F00030461A3101F0E4FE2868C07DE3E736E0A6
:101A000001E079E016E00A785448D20674D52278CD
:101A1000202AC0D305460A7E3046983101F0D0FE18
:101A20002868007ECFE70FE056E02AE036E03DE090
:101A30005AE062E00878800672D520780428AAD39C
:101A400004223046091D25E00878400668D5207834
:101A5000002867D0087D08E0227060E00878000662
:101A60005ED5207800285DD0487D3070F4E7088886
:101A7000C00555D5207804288DD3042230460C317A
:101A800008E0088880054BD52078042883D30422F9
:101A90003046083101F094FE042094E708884005A0
:101AA0003ED5207800283DD0887D36E008880005A6
:101AB00036D5207802288DD3087C3070487C09E028
:101AC0000888C0042CD5207802288ED38231087F64
:101AD0003070487F7070BFE70888800420D5207878
:101AE00000281FD0A03117E00888400418D52078BE
:101AF000002817D0A1310FE012E0088800040FD5AC
:101B0000207800280ED0A23106E00868C00307D56F
:101B10002078002806D0A331087830702370002583
:101B20002846F8BD0425FBE770B50F480F49C405EA
:101B3000228880252A4322800D4A53891B0701D41D
:101B4000401EFAD20B4A012010600622054801F01F
:101B500037FE2088A843208070BD0000C006080022
:101B6000383E030064830020A0860100D47F040077
:101B70002000005000800040F0B5524D85B0002696
:101B8000686D37460190FEF752FF00214E4C002849
:101B900002D12079022800D101914C4802684C48BA
:101BA000002A0FD10278002A0DD04A4B0122DA63B5
:101BB000DA6B002AFCD101229207D2691923DB01DA
:101BC0009A427BD3017001F0F7FE002876D0E078CE
:101BD0000126002872D005200007808AC00701D0A6
:101BE00004266BE001F080FD002867D120790028F1
:101BF00001D1286D0190A17801A801F0E3FE002831
:101C00005CD0A17801A801F081FD002856D001F038
:101C1000DFFE002852D02D480068AA281DD097204A
:101C200007210125AD07EA6B920A92027F1C3A4315
:101C3000EA63EA6B284B80021A400243EA63E86BCE
:101C4000C002C00A49050843E8632048042600682A
:101C5000002807D0AA280FD01DE02048FFF7EFF892
:101C60000321DEE701986421C00201F06DFD2179B6
:101C7000401E0CE001210CE0019801F05AFC1849CB
:101C8000096801F0CFFB01F05BFC0090217900298D
:101C9000F0D101F0A3FE1348C06A8047286B00040E
:101CA000C00FFBD010480168C905FCD501F09CFEAF
:101CB000052000070189802291430181304605B04B
:101CC000F0BD000060020020C6060800548300201A
:101CD00048830020C0000040FF03E0FF0112000025
:101CE000608300201C07080000020040F8B505468C
:101CF00084488649047B8448C9690068403000896B
:101D0000884201D1002002E00002401C80B27D4EDA
:101D1000000A603E870013E02E20B16E6043081871
:101D20008078C00609D001F065FE79496422C9595E
:101D30008A56904201DA01F037FA641C6407640F96
:101D400028466D1EEDB20028E6D1F8BD10B501247D
:101D5000A407A06BFFF77FF86E4901F0F5FC27227E
:101D60001201511A00D101216B4A50601160206BA1
:101D7000082188430843206310BD38B50020009037
:101D80006649082008800524240721883020014363
:101D90002180218803221143218002E000BF00BF7F
:101DA00000BFA18A0906F9D5618989088900618186
:101DB0005B494A88520852004A8021888143218029
:101DC0002088800880002080A08A400701D5FEF787
:101DD00008FF2089802108432081208A042188432C
:101DE0002082A08A8007FCD54E4841050268D202B5
:101DF00002D40A69520702D4009A002AF6D038BDEC
:101E000010B501F0FDFD01F001FE10BD10B501F0AF
:101E100003FE05200007418A8022914341823F480A
:101E2000018949084900018101F0FCFD012080077A
:101E3000816904221143816101F0FAFD01F0FEFD88
:101E400001F002FE38480068AA2802D11420FEF7EB
:101E500059FF36490020087010BD10B52B48C06CE2
:101E6000C0B2FFF743FF01F0F5FD10BD10B5012032
:101E70008007008A000718D52D49012008702248E4
:101E80004E230068214A4030018912685943294B8A
:101E9000C918515AC07C090A081AC0B2FFF726FFB8
:101EA00001F0DEFD21490320087010BDF8B522487D
:101EB000008887061B48BF0E44681448006F0078EE
:101EC000002802D1384601F0D1FD1C4800890125C7
:101ED000C005164E002807DA20060DD5E0070BD006
:101EE000384601F0C9FD03E0200605D5E00703D020
:101EF0000F48456002203070200402D5E00500D56F
:101F00003570F8BD380308006C030800E0010020BC
:101F10004C030800710200004000004000330050F4
:101F20002000005000020040548300206A830020FB
:101F3000209000204A00080000200050002C005093
:101F400010B5428800791C4601020823FE480C3176
:101F500001F0D2FC08210170012141700021818033
:101F6000C180448001F0DAFC10BD10B50C46098830
:101F7000002910D04288007906230102F2480C3172
:101F8000401D01F0B9FC1021017021884180618859
:101F9000818001F0C3FC10BD10B50C4609880029F2
:101FA00010D04288007906230102E7480C31401D19
:101FB00001F0A2FC1121017021884180618881809B
:101FC00001F0ACFC10BD10B5428800790C4601024E
:101FD000DD480823401F0C3101F08EFC024603202F
:101FE000107001205080801E9080022050709471EB
:101FF000210AD171104601F091FC10BD10B5428844
:1020000000790C460102D0480823401F0C3101F032
:1020100073FC042101702188418061888180022144
:10202000417000218171C17101F078FC10BD10B5C3
:10203000428800790C460102C3480823401F0C3136
:1020400001F05AFC0521017021884180618881805E
:102050000221417000218171C17101F05FFC10BD4E
:1020600070B50D4609886A796B888A180179002451
:10207000090240880C31521E5B1C9A4216DB024654
:10208000B1480823401F01F037FC014607200870C3
:102090006A88521C4A8028886A798218521E8A806F
:1020A000022048708C71CC71084607E00A46014650
:1020B00003200223000301F01FFC447001F02EFCFA
:1020C00070BDFFB50E46194642881D460A3100799B
:1020D0008BB201029C4881B0801C0C310A9F01F038
:1020E0000BFC002181800181077046800446C58079
:1020F0000120607020462A460A30039901F060FBF7
:10210000204601F00BFC05B0F0BD1CB56B461A7102
:10211000120A5A710C220092022301AAFFF7D1FF82
:102120001CBD70B50546002003460EE006245C4346
:102130000E5B002E0ED09E00B6186418F678247937
:10214000A64300D085205B1CDBB2AB4201D2002845
:10215000ECD070BD9C00A418A478FF2CF3D1832090
:10216000F1E7F0B505460020044611E066008E5BFD
:10217000002E0BD1A600B618B778FF2F06D1F6783F
:1021800006277E439E5B002E00D08320641CE4B2B1
:10219000AC4201D20028E9D0F0BDFFB581B01546B0
:1021A0000F4600240A9E26E00498A100425A717945
:1021B000B01D01F067FC00281BD0204606223188A4
:1021C00050432952728841194A8032790A712B5C36
:1021D000019AD21A521C4A710B990978A14206D071
:1021E00006225143285C6A5C801A491948710B9891
:1021F0000470641CE4B2BC42D6D384E7FFB581B05E
:102200001D4616460746002416E0A0008119CA782C
:102210000A998A420ED1325AA978E81C01F032FCA0
:10222000002807D002996000095A002902D10299BA
:102230002A880A52641CE4B2BC42E6D363E7F8B5CC
:1022400000240546002815D04048C069884211D9AD
:10225000286800280ED08F00C659002E0AD0002A08
:1022600001D030469047304601F012FC296800202A
:10227000C85100E081242046F8BD70B58124054690
:1022800000281DD0314EF069884219D928680028ED
:1022900016D02846FFF7D3FF040011D10146F2699A
:1022A00004E08B002868491CC058C9B28A4202D990
:1022B0000028F6D004E0002802D1284600F0FBF800
:1022C000204670BD02460020002A02D0080A800085
:1022D00010587047FFB581B007461E460D4603985B
:1022E00001F0C6F9B0421CD038680399FFF7EAFF45
:1022F000040016D0628821880423284601F0FCFAE5
:1023000005460A98288060880B9A010A3846FFF72C
:10231000B4FFA870284601F001FB3146039801F094
:10232000B9F9F0E6F8B50C7915460E460746FF2CCC
:1023300021D07088010AA1420ED02102C0B201430F
:102340003288284604E0000007300000E001002049
:1023500001F0A4FB8C250FE01A462146384600F018
:10236000B4F8050008D13868A1004058062231466B
:1023700001F026FA00E089252846F8BDFFB507469A
:102380000068684D81B00E4600280ED0002406E09B
:10239000214638460A9AFFF752FF641CE4B2E86906
:1023A000A042F5D8384600F086F8F0B2049901F062
:1023B0007BFB002406E020023043039901F06AF918
:1023C000641CE4B2E869A042F5D89CE6FFB581B090
:1023D0001F4615460C4608460A9E01F049F9A842D8
:1023E00008D13946204601F055F9210A32460198B4
:1023F000FFF743FF87E6FFB581B007460398002546
:102400001E460C46002800D1B5887A882846083038
:1024100083B23988204601F06FFA0446387901F01A
:1024200049FB20800398A07100206080A580002EC9
:1024300006D0308860802A46B11DE01D01F0C0F949
:10244000204601F06BFA5EE60A880270120A4270BA
:102450008A788270CA78C2700A7902714A794271A8
:1024600089798171072070474278037812021A43F4
:102470000A8082788A70C278CA7002790A714279B9
:102480004A71807988710720704710B500F04CF8C8
:1024900010BDF8B504020646363417460D462046F0
:1024A00001F0E6F8002805D0EAB223463946304666
:1024B00001F006FBF8BD10B504460068002803D003
:1024C00001F0E6FA0020206010BDF7B5054600686F
:1024D0000024144E0F4600280BD1F0690121800022
:1024E00001F0F4FA286000280BD0F169890001F0AE
:1024F00085F9F069B84212D92868BF00C059002890
:1025000001D089240CE00121029801F0DFFA0600D5
:10251000F7D0029901F0E0FA2868C65100E0812462
:102520002046FEBDE001002008B5002002460090D4
:10253000234B36212348FFF721FF08BDF8B5164687
:102540000C4607464A8809884A231F4801F0D4F9F7
:102550000546207901F0AEFA2880AE70002E0BD02F
:10256000002000900346618802221648FFF72EFFE4
:10257000284601F0D3F9F8BD3946123146220E46FD
:10258000281D01F01DF931463846FFF7EEFC608842
:10259000012101F07FF8EBE770B50E460446428852
:1025A000018809480423093001F0A6F9054620797D
:1025B00001F080FA2880AE70284601F0AFF970BDB6
:1025C000203E00206C83002001D800007CB51C4612
:1025D00016460D46088801F085FA014668460171E5
:1025E0004680048058232A4669469C48FFF79AFE95
:1025F00002468C2804D0002A04D06946002017E047
:1026000001207CBD954831460068FFF75BFE002144
:102610008181C18104460174A87800280BD020462E
:102620004622291D123001F0CBF8002269462046CF
:10263000FFF784FF09E08A49E18021812046FFF706
:10264000C2FC0221304601F025F800207CBD10B507
:1026500082480C4611460068FFF734FEC188804A64
:10266000914206D12188418261888182C17A491CC8
:10267000C172002010BD1CB578480C461146006898
:10268000FFF720FE0189764A91420BD101460A31BB
:1026900000940191848A0246724B16320B21204627
:1026A000FFF77BFD00201CBD70B514460D4610469B
:1026B00000F0DEFF0646694821460068FFF702FE8B
:1026C0000446022E02D0012E2ED03FE068780A2860
:1026D00001D000283AD121896148814236D1E18870
:1026E000614D814210D1608A002804D0E07A01282F
:1026F00003D9842213E0832211E0214612312046BF
:10270000FFF795FCE58021E0A9421FD12146554AFB
:1027100016310B20FFF705FD020000D1E0722146C3
:102720000846FFF70BFF11E02878082806D00C2890
:102730000CD169782046FFF72FFF07E06A78002A5E
:1027400004D0002349492046FFF755FE002070BD04
:102750001CB50888454900230090491E01933F4855
:10276000FFF7B8FD00201CBD10B53C4811460068BD
:10277000FFF7A8FD038B828A418AFFF7E1FB002067
:1027800010BD08B5354811460068FFF79BFD0121D3
:1027900081810C2100910246018B02230C32FFF74C
:1027A00090FC002008BD08B52C4811460068FFF7D2
:1027B00089FD00218181C18101740C2100910246B3
:1027C000018B02230C32FFF77CFC002008BDFFB513
:1027D000224881B00E461D4603990068FFF772FD3E
:1027E00004460079290A814235D10020074600902D
:1027F000E089062250430019B188C08B814219D16B
:1028000001200090194821881823801F039A01F0A5
:1028100073F80546207901F04DF92880207CA870D6
:10282000B078E8707288B11D281D00F0C9FF2846F5
:1028300001F074F8207C401C2074E089401C80B2B8
:10284000E0810A2801D30020E0817F1C0A2F02DAF0
:1028500000980028CCD0002005B0F0BD6C8300208B
:10286000A0FF0000303E00200328000009D800002F
:1028700038B50124684604700C21494801F02CF950
:10288000474D6946EC702A1D352001F031F90028CA
:1028900000D02C7100F016FA4249322001F004F900
:1028A0000021322000F0F6FE00F0B2F838BD10B57D
:1028B00000F0C5FA10BD10B53948022380783222E5
:1028C000010239480E3101F017F80121017013217E
:1028D000417001F023F810BD10B5044630482C2398
:1028E00080783222010230480E31801E01F004F857
:1028F00001462030047200224272084601F00EF8B0
:1029000010BD10B5502332220D21284800F0F4FFED
:10291000044600F00DFA204601F000F802213220B2
:1029200000F0B8FE10BD214810B5012332220D2160
:102930000B3800F0E1FF0221017000F0EFFF10BD45
:1029400010B500F088FA10BD194B10B59A4201D9A4
:102950001A4602E0002A00D1012201F0CFF810BD92
:10296000F8B50646114815460F46252332220D219B
:10297000C01C00F0C1FF044601202077204606223B
:1029800039461D3000F01CFF232006556582258244
:10299000204600F08EFA204600F0C0FFF8BD00008F
:1029A00076830020C43E0020043800000E3400006E
:1029B0003075000010B501F0A7F8254901F0AAF81C
:1029C0002448081810BDF8B5234D0646A876002403
:1029D00001F09AF82919641CE4B20874082CF7D3A2
:1029E00000241027381BB04201DD002007E001F071
:1029F0008BF8C117090E0918090A0902401A28554F
:102A0000641CE4B2102CEDD301F07EF82883F8BDED
:102A100010B52421104801F05FF800F054F910BD02
:102A200010B50E4802238078322201020C480E3184
:102A300000F062FF0D210170074920318978417053
:102A400000F06CFF0321322000F024FE10BD0000D6
:102A5000A0BB0D00A08601008283002076830020A9
:102A60001A38000010B5084609781C460B0000F023
:102A7000E3FE080520202008181B1E2000F05AFA4B
:102A800017E04178012904D0002902D0022903D09F
:102A90000FE000F050FA0CE01146204600F054FA26
:102AA00007E000F049FA04E000F047FA01E000F026
:102AB00045FA002010BD10B50878304C801E030088
:102AC00000F0BAFE020214188878A070C0070AD07D
:102AD0002B492A4A4879203AD07628480622001FF6
:102AE000891D00F06DFE00F02AFA03E0FFF7E3FE17
:102AF0000020A070002010BDF8B518460D46014614
:102B00001223204800F0F8FE0446284600F018FA88
:102B10000027002821D0194EB078C0071DD03046BC
:102B20000822A91C103800F041FF002815D13046BA
:102B30002038018B2A8891420FD101212170807E9B
:102B40006074314610222039601C00F039FEB078E4
:102B5000FFF7C2FE00F0F7F900E02770204600F012
:102B6000DDFE2078002801D1FFF7A5FE0020F8BD8A
:102B700010B500F0E7F9002010BD0000A28300208E
:102B8000768300201838000010B5104600F070FD64
:102B9000002809D1012332220D21484800F0ACFE63
:102BA0000121017000F0BAFE002010BD70B5087858
:102BB00015460F282DD008DC01280DD002282CD076
:102BC00003281CD00E2830D11FE0102825D0112852
:102BD00023D0122829D123E04878002825D137486E
:102BE000222332220D21801C00F086FE044601467D
:102BF000284600F031F9204600F090FE15E04878B4
:102C0000002812D100F033F90FE0487800F040F9C5
:102C10000BE0487800F03DF907E000F03FF904E0F0
:102C20004878442801D100F072F9002070BD70B5D9
:102C30001C4610460D4600F01BFD022805D1204918
:102C4000200A8870284600F03FF8002070BD70B55B
:102C5000087815460C460A2810D1104600F008FDE9
:102C600004280BD16078002802D000F00FF905E0AD
:102C70000521284600F00EFD00F009F9002070BD86
:102C800010B5104600F0BEF8002010BD10B510467B
:102C90000C4600F0EDFC012808D12078002805D171
:102CA000FFF705FE002801D000F0F4F8002010BD69
:102CB00010B5084600F016F9002010BD02340000DF
:102CC000768300207047704770B50446FE488078D0
:102CD000FF282AD03221FD4800F0B4FD0521322022
:102CE00000F0D8FCF948092332223F21401F00F0B0
:102CF00003FE0546012028702078A870607A68706D
:102D0000214606220A31E81C00F05AFD284600F050
:102D100005FE608800F02CFA00F03CFA00F0FEF9A5
:102D2000EB488078FFF7D8FD70BDFFF7EAFD70BD76
:102D3000F0B5044693B00E20207000256570E5487C
:102D4000A081E08107202074012060741C20E074C1
:102D5000274622461F202037143238741646511E4B
:102D60000B2000F0C5FE002805D02A46E574DAA144
:102D7000304600F025FD22463132511E0C201192C2
:102D800000F0B6FE002805D03D742A46D4A1119863
:102D900000F016FDE07C1A21081A45B2002D2FDD47
:102DA0003E206946087001AA022000F0A1FE00281A
:102DB00006D00D2268460270CAA101A800F0B0FE3C
:102DC0006846007800281BD0A84200D20546684615
:102DD0000570E07C6D1C8555E27C2046092115308C
:102DE0001154E17C401C0B186846027801A9184672
:102DF00000F0E6FC68460078E17C801C0818E0746E
:102E000013B0F0BD10B50C4600F032FC032803D01F
:102E1000052801D0042811D10221322000F03AFC0B
:102E2000B44900200870A948092332223F21C01E5E
:102E300000F062FD2178817000F070FD10BD00206F
:102E4000AD4A01211170A04AD378002B01D0012096
:102E50007047D17070477047032008700520487094
:102E600000204882087548751720C882704710B541
:102E70000221322000F00EFC9448042332223F212C
:102E80000A3800F039FD00F049FD10BD7047704769
:102E90007047704710B5FFF734FD10BD8B4810B573
:102EA000002332223F21C01F00F026FD00F036FD36
:102EB00010BD10B520210183418300218182417022
:102EC000FF21F531C182FF2181318181FF216131F3
:102ED000C18112210170AF22920032217B48FFF79D
:102EE00033FD10BD70B504467848072332223F21D8
:102EF000083800F001FD0546607828700622A11C04
:102F0000681C00F05DFC284600F008FD70BD6F48AD
:102F100010B5092332223F21401F00F0EDFC04468A
:102F2000002020700821601C00F0D6FD204600F033
:102F3000F5FC10BD70477047704770477047704789
:102F40000120704770477047704710B51423322234
:102F50000D216A4800F0D0FC00210174112202709A
:102F60004170012181740A2181810521C18100F014
:102F7000D5FC10BD614810B5012332220D210C385B
:102F800000F0BAFC0221017000F0C8FC002010BD66
:102F900010B518460C4601464C48012332220B3826
:102FA00000F0AAFC2178491C017000F0B7FC002059
:102FB00010BD10B5FFF7C9FF002010BD10B50A897C
:102FC0000878491CFFF7CCFC002010BD10B508782C
:102FD00000F088FD01020223322249480E3100F040
:102FE0008BFC012101701321417000F097FC00203F
:102FF00010BD70B50024404D26460C3514206043AA
:103000004019068022461221801C00F08FFD641CAE
:10301000202CF3DB3B4838490088886070BD10B530
:103020004878344C012801D0002005E020780128A0
:1030300001D0FFF7DEFF01202070002010BD10B589
:10304000322000F015FB052814D120480E2332222F
:103050003F21401E00F050FC0446002020701A481A
:103060000C22007860702849A01C00F0A9FB2046C3
:1030700000F054FC10BD0188491C01807047F8B570
:103080001C481D4C0078012846D1204F204D264673
:103090000C36009560681421484380195223A268B9
:1030A00000F0C9F8002837DB6068401C6060202809
:1030B00001DB00206060A068001DA06039888842A4
:1030C000E7DD1048008825E0768300200DC8000069
:1030D000A28300204C040000070103180000000038
:1030E00002FF0000444131343538302054454D5002
:1030F0004C000000A7830020BC8000200F3400009B
:103100000438000028900020D29100202A9000204E
:1031100077300020A060BCE7F8BD000010B5362174
:103120004A233222880200F0E7FB04490988018023
:103130000021817000F0F2FB10BD000076830020BA
:1031400010B588780C46002801D0FFF7B4FB218A1F
:10315000064840340180E1884180002010BD10B550
:10316000C87800F026F8002010BD0000289000204C
:103170001121821F0C2A05D2A24A41008A18403A26
:103180003421515EA04A508088B21080411C083A18
:103190001160704710B512219C4800F09DFC9C48BE
:1031A0009A498088888110BD98484189491C41818D
:1031B00070479649CA88521CCA800A89101808812B
:1031C000704770B5914CE089401CE081E0898E49E0
:1031D0004D88FF216843913188421FDB122221462E
:1031E000881800F0EDFA1221204600F075FC214607
:1031F00012318889A081A089C88912226843088079
:10320000A089101A4A88121A4A808B8814224243D5
:103210009B1A8B806080A2800120087470BD10B55D
:10322000FF2191317B4800F0E9FA7A480021001F24
:103230004170017010BDF0B5764D964602462D1FC7
:1032400068782E1D07018C46BC19E17B002902D04D
:103250000020C043F0BD0121E173F2516146A1732A
:1032600071466160A3810599A160411CC9B2697072
:103270001929EFD300216970F0BD192802D300206D
:10328000C0437047634900014018C07B704770B568
:10329000044661482C2380783222010205208002F6
:1032A000491D00F029FB050019D00420A880207BCF
:1032B000A871A0882881A27B6A8128460C302168E9
:1032C00000F07EFA284600F029FBA07B00F072FD9A
:1032D0000020E073A268002A01D003CC904770BDA3
:1032E000F8B54C4C0146241F2078251D00014019DB
:1032F000C07B002700281CD045488088012818DDA5
:10330000461A14E0207800014019FFF7C0FF20782A
:10331000761E401CC0B27F1C2070192801D30020EB
:1033200020700006000D4019C07B002801D0002E3F
:10333000E8DC3846F8BD70B5354933488C88122131
:103340000B1B3449304A091F08388D78083A406809
:103350001268002D01D0A01A401C012800DA0120BB
:10336000934201DD012200E000228A70C0B2FFF723
:10337000B7FF264A211A918170BD70B52449244AAD
:103380008C88214912260839096892880020331B4D
:103390001E4D92B28B4209DA112C04DA1D4B1B1F11
:1033A0009B78012B02D0701A02D004E0AA8170BD74
:1033B000122900D00120C0B2FFF792FF211AA98183
:1033C00070BDF8B5154C00272078154E3D460128F4
:1033D00003D03168012909D012E0FFF7CEFF07467C
:1033E000022035602070FFF7ECFE09E0022807D1CB
:1033F000FFF7A1FF074635602078022800D125702D
:103400003846F8BD743F0020DC3F0020C09100200A
:103410001E050800309000207683002020900020B8
:1034200024900020024670B54A40D30FDB074000CD
:103430002DD04A002AD0010E140E000212020919E2
:10344000400A520A8418E50104465443000A120A4D
:103450002E045043A4194219200CC543AA18120C7B
:103460000125AD03521C521912047F39240400D0E7
:10347000521C104301D44000491EC2B20C06C009C0
:103480002018401C4008802A02D003E0002070BDB4
:1034900040084000002900DA0020184370BD70B5D4
:1034A00002464A40D50F40004A00ED074008520846
:1034B000002814D0002A12D0C40DD30D41020120DF
:1034C000C0055202490A520AE41A091812187D343A
:1034D000914201D3641C00E04900002C01DA002075
:1034E00070BD0023914201D3891A0343400849006B
:1034F0000028F7D100290AD0914202D10121C90741
:1035000005E0914201D2012101E00121C943E0051A
:10351000C018401900F058F870BD420005D04200B4
:10352000120E52428A4201DB00207047C90508187A
:10353000704710B500229623114600F04DF810BDDB
:10354000410040020122400AD205090E80187F295D
:1035500001DA00207047962903DC9622511AC840F0
:103560007047963988407047C20FD2074000400824
:103570000BD0C10D0723DB01C91840020905400A21
:103580001143C208400711437047002001467047AD
:10359000CB0FDB07490010B5490802460A4307D0A4
:1035A0000A0D07240903E401090B121B002A01DCA0
:1035B000002010BDC900440F0C43C100E018D20523
:1035C000801800F001F810BD002904DA401C490001
:1035D00001D140084000704770B40024050C05D1AB
:1035E0001024000402D1002921D01124050E01D19C
:1035F00000020834050F01D10001241D850F01D1FF
:103600008000A41C002801DB4000641C002908D0B5
:1036100020252E1B0D46F540A14000D00121294355
:10362000084301061B1B000ADB1D02D5002070BCED
:103630007047DB05181880180029F8DA401C49008B
:10364000F5D170BC4008400070470000064C0125D1
:10365000064E05E0E36807CC2B430C3C984710343A
:10366000B442F7D3FCF7F0FE8C3F0020BC3F0020B3
:1036700003B40148019001BDB326030003B401481F
:10368000019001BD2F22020003B40148019001BD49
:103690000B91020003B40148019001BD31260300E3
:1036A00003B40148019001BD551B020003B4014859
:1036B000019001BD0F3B030003B40148019001BD1F
:1036C000CF2B030003B40148019001BDCB2C0300B4
:1036D00003B40148019001BD0990020003B4014800
:1036E000019001BD1F21020003B40148019001BDFA
:1036F000C12D030003B40148019001BD092103005D
:1037000003B40148019001BDC92D030003B4014871
:10371000019001BD2B69020003B40148019001BD75
:10372000EB31030003B40148019001BD3D320300B9
:1037300003B40148019001BDD721030003B401483F
:10374000019001BD5D80020003B40148019001BDFC
:10375000A73A030003B40148019001BD913B030067
:1037600003B40148019001BD2F2F030003B40148A9
:10377000019001BD998F020003B40148019001BD81
:10378000938F020003B40148019001BDCD8C02006B
:1037900003B40148019001BD418F020003B4014808
:1037A000019001BD2768020003B40148019001BDEA
:1037B0003968020003B40148019001BDB7800200DE
:1037C00003B40148019001BD213B030003B401484B
:1037D000019001BDBF22020003B40148019001BD68
:1037E000EB26030003B40148019001BD352403001A
:1037F00003B40148019001BDDD20030003B401487A
:10380000019001BD533B030003B40148019001BD89
:103810009D20030003B40148019001BD3350020014
:1038200003B40148019001BD5548020003B40148AA
:10383000019001BD1F50020003B40148019001BD79
:10384000FD3D030003B40148019001BDA52803001C
:1038500003B40148019001BDD5AF020003B4014893
:10386000019001BDA1A5020003B40148019001BD72
:10387000E3A5020003B40148019001BD87A802003E
:1038800003B40148019001BDA7A9020003B4014897
:10389000019001BD93AA020003B40148019001BD4B
:1038A00095AB020003B40148019001BDF9AB0200E1
:1038B00003B40148019001BD69AC020003B40148A2
:1038C000019001BD17AD020003B40148019001BD94
:1038D00077AD020003B40148019001BDF1AD0200D3
:1038E00003B40148019001BD85AE020003B4014854
:1038F000019001BD11AF020003B40148019001BD68
:10390000B123030003B40148019001BD49E5020061
:1039100003B40148019001BDF9E3020003B401487A
:10392000019001BDE123030003B40148019001BDF2
:103930004BCD020003B40148019001BD99D10200B2
:1039400003B40148019001BDABD0020003B40148AB
:10395000019001BD69D0020003B40148019001BD8E
:1039600077CF020003B40148019001BD01CC0200F1
:1039700003B40148019001BD29CC020003B4014801
:10398000019001BD15D2020003B40148019001BDB0
:103990008DD2020003B40148019001BD7F0C0300E9
:1039A00003B40148019001BDAB0C030003B401480E
:1039B000019001BD773B030003B40148019001BDB4
:1039C0007920030003B40148019001BD21290300BF
:1039D00003B40148019001BDD990020003B401482D
:1039E000019001BDC768020003B40148019001BD08
:1039F0000D2C030003B40148019001BD497502007C
:103A000003B40148019001BD1531030003B401481E
:103A1000019001BD1B66020003B40148019001BD85
:103A2000652C030003B40148019001BDF793020027
:103A300003B40148019001BDDB2E030003B401482B
:103A4000019001BD231D020003B40148019001BD96
:103A5000C32C030003B40148019001BD3B66020082
:103A600003B40148019001BD2B66020003B4014874
:103A7000019001BD038D020003B40148019001BD16
:103A8000CF8F020003B40148019001BD1D980200D0
:103A900003B40148019001BDD722030003B40148DB
:103AA000019001BD1B24030003B40148019001BD36
:103AB0008725030003B40148019001BDE3E3020040
:103AC00003B40148019001BD95E3020003B401482D
:103AD000019001BD1522030003B40148019001BD0E
:103AE000533B030003B40148019001BDB7E302005A
:103AF00003B40148019001BDD129030003B401487A
:103B0000019001BD2528030003B40148019001BDC7
:103B1000FD3A030003B40148019001BDD33A03000C
:103B200003B40148019001BD213B030003B40148E7
:103B3000019001BD453B030003B40148019001BD64
:103B40008D3D0300FFB581B00C4605460A461F4671
:103B5000012000210A9EFFF7EFFF2A01FFF7ECFF8B
:103B60000C4B1A685B6810401940084300D100BE36
:103B7000002E2146284602D000F05AF801E000F05D
:103B800079F83B4621462846039A00F095F805B09F
:103B9000F0BD00000080002010B5244CE389012214
:103BA0001146133881408B43C80701D0002038E00C
:103BB000880701D5012034E0480701D5022030E014
:103BC000080701D503202CE0C80601D5042028E011
:103BD000880601D5052024E0480601D5062020E00E
:103BE000080601D507201CE0C80501D5082018E00B
:103BF000880501D5092014E0480501D50A2010E008
:103C0000080501D50B200CE0C80401D50C2008E004
:103C1000880401D50D2004E0480401D50E2000E001
:103C20000F2082401343E38110BD000000140050B8
:103C300070B504460D460A4601200021FFF77CFFBF
:103C40002201FFF779FF094A1368526818401140B2
:103C5000084300D100BE032C00D1042404496001B4
:103C600040180121A940418070BD00000080002063
:103C70000030005070B504460D460A460120002170
:103C8000FFF75AFF2201FFF757FF094A13685268EE
:103C900018401140084300D100BE032C00D1042479
:103CA0000449600140180121A940818070BD0000D5
:103CB0000080002000300050F8B5164604460D463E
:103CC0000A461F4601200021FFF736FF2201FFF7B9
:103CD00033FF094B1A685B6810401940084300D154
:103CE00000BE032C00D1042404496001401869007F
:103CF00008183E43C680F8BD008000200030005008
:103D0000FEB50020214E034628220021424392198D
:103D10008C00491C13510A29FADB401C0428F3DBF0
:103D2000FCF7F2FE1948002208380260426015468E
:103D3000002417486900475A0120A04080B207427A
:103D40001CD0282068438019A1004058411C19D07C
:103D5000002810D0C1172246FFF7EEFE2A01FFF718
:103D6000EBFE0A4B083B1A685B681043074A19438D
:103D7000083A10605160641C0A2CDDDB6D1C042DB8
:103D8000D6DBFEBD0095019400BEE3E7088000206D
:103D9000163E002002E008C8121F08C1002AFAD10E
:103DA00070477047002001E001C1121F002AFBD1BB
:103DB0007047000003494A88521C4A808A881018BC
:103DC00088807047C0910020FFFF0000710500202F
:103DD00002FC00007D92020003FC000089920200B8
:103DE000DD0500209D1300208914002047150020C8
:103DF00075150020D91200203D13002081170020E6
:103E00000101000A04280A040203AA0055032A003B
:103E1000A001FFFF2C01FF003F00FF03FF01000096
:103E2000A43E0020BC3E002070830020030006005A
:103E3000A1FFFF06A2FFFF16A3FFFF16A4FFFF16B8
:103E4000A5FFFF16A6FFFF16A7FFFF16A8FFFF1688
:103E5000A9FFFF16AAFFFF16ABFFFF1602D800004E
:103E60006927002004D800008327002006D800001E
:103E7000A72700200B300000CF27002003300000D0
:103E80004F2600200530000077260020003000007B
:103E9000A926002000D80000CD250020033800000E
:103EA0005127002000000000000000005C3E0020C0
:103EB000040000007C3E002003000000943E00202F
:103EC00002000000000000006C3F0020A6830020DC
:103ED0000600010001340000892B0020003400009E
:103EE000AD2B0020003800004F2C002001380000CE
:103EF0002F2C002003380000812C002000C8000077
:103F00008D2C002010340000B12C0020133800004C
:103F1000652A002015380000B72A00201738000055
:103F2000F92A002019380000712B002001C8000078
:103F3000912F002004C80000B32F002007C8000004
:103F4000BD2F002009C80000CD2F00200BC80000A5
:103F50001F3000200DC80000752F002001D8000080
:103F60004131002003D800005F310020D43E002002
:103F7000130000000700080009000A000A000C00F6
:103F80000D000D000F000F0010001100E03F002099
:103F900000800020A8030000A43D0020E03F002096
:103FA00020900020C4010000A43D00206807080004
:103FB000202A0800E0050000A43D0020C83D0020A4
:103FC0000300000000000000BC3F0020A404080023
:103FD00002000100080000000100000007000600C8
:040000052000044192
:00000001FF
