:020000042000DA
:1000000000980020B9040020C1040020D904002079
:1000100000000000000000000000000000000000E0
:10002000000000000000000000000000F1040020BB
:100030000000000000000000090500200B05002062
:10004000D3250020053103000D310300B92600201F
:10005000C52600208D310300272700202F270020F0
:100060000D0500200D0500204B270020AD310300B9
:10007000578102004B1B02004B1B02004B1B02006E
:100080004B1B02004B1B02004B1B02009919002066
:10009000A3190020AD190020B7190020C1190020B4
:020000042000DA
:10016000320000002707002003170020B10B0020F9
:10017000000000000000000063800200BD8002005B
:1001800009150020FB800200198102003581020060
:100190005D8102007D25002001070020AF140020B2
:1001A000D114002000000000000000003F0000000B
:1001B000F48B002000040000740B080048010000CC
:1001C0006807080000040000C80C080020050000B3
:1001D000000000002000000048000000580000005F
:1001E0006800000004010000160100002801000062
:1001F0002E010000202A00008E2E000001000000C9
:1002000088130000E31700205B340020C53D002068
:10021000DB1A002019280300A57402002921002000
:1002200003000000D5200200B10B002001000000F7
:10023000D74902000F490200831D0200733E0020CF
:10024000CD3F0020D14000200782020071820200D1
:100250008C550020AD83020093840200418502008A
:1002600015860200378602005F860200758602004E
:10027000F9870200258902005D8A0200D38C020002
:10028000098D02000F900200438D0200278E0200AC
:10029000F98E0200478F020063130020D58F020001
:1002A000E3390020775102002F52020010000000B5
:1002B00020030000803E000000000000000000005D
:020000042000DA
:1002C000504600030003983A6400F401B80B000C98
:1002D000B80B120030003000CD009A01120024004B
:1002E00030006400B0001800280012001200D0078F
:1002F0000000FFFF00000000000000000000000000
:100300001F000002444131343538302D30310000B7
:1003100000000000000000000000000000000000DD
:0403200000000000D9
:020000042000DA
:10034000FFFF010000C201000000000000000000EB
:100350000000F4010100011B0A071AFFD200021578
:10036000585CDE931B0142CC9A1325009BEDC65EC0
:1003700000000000C5000000000009FF00605257A7
:100380002D424C450000000000000000000000006D
:100390000000000000000000000044413134353806
:1003A00078000000000000000000000000000000D5
:1003B000000000000000000000000000000000003D
:1003C000000000000000000000000000000000002D
:1003D0000000000000000000010000CAEA80D00711
:0403E000064064323D
:020000042000DA
:100440000348854604F010FC00480047C72002001E
:10045000009800200621154A1180082101228A40B7
:10046000134B1A6000BF134989683E2291432E3115
:10047000104A916000210522120711801146098A55
:100480000F221202914389180522120711820020BF
:1004900005E000210122D20482181160001D032111
:1004A00009038842F5DB62B6704700000034005053
:1004B00080E100E0003300501548804715480047B0
:1004C00004207146084203D0EFF30980124908471F
:1004D000EFF308801049084704207146084203D012
:1004E000EFF309800D490847EFF308800B490847EF
:1004F00004207146084203D0EFF3098008490847F9
:10050000EFF3088006490847FEE7FEE7FEE7000034
:100510005504002041040020B50B0020FD0D0020F3
:10052000710600207CB5002400BFFD48007801283A
:1005300007D1FC48406B002803D1F949087002F04C
:10054000ECFAF9480088F949098888421ADBF4482E
:100550000078012816D10020F3490880042168465C
:1005600001700E214170032181700121C170F04999
:1005700081806D4600220621284604F087FB02F0A8
:1005800013FC00BF04F088FBEA48008801280FD163
:1005900004F088FBE849088008460088E74908809D
:1005A000012004F085FB04F089FB0020E14908806C
:1005B00000BF04F089FB002804D101246420E04935
:1005C000086008E0DE4801680068401EDC4A1060F0
:1005D000002900DD012420467CBDF8B505460C4607
:1005E000174600BF2046103806463F2004F072FB35
:1005F000002811D0D3488068322808D9D2488542D3
:1006000003D0D04880683C2801D90020F8BD31468D
:10061000CC4804F065FB06E0304604F067FB01219E
:100620003F2004F069FB0120F0E730B5C7490B1FFC
:100630001A7800200BE0C300CB5C3F2B05D1C44CE3
:10064000C500C24BEB185C6030BD431CD8B2904271
:10065000F1DB00BFF8E730B5024693688C68181BE1
:1006600080B2BC4DA84201D9012030BD0020FCE77A
:100670008269203A917F082904D28A00B64B9A58A1
:10068000826101E000BFFEE7704710B5B348B4498E
:100690000861B4484861B4488861B448C861B44846
:1006A0000862B4484862B4488862B448C862B44832
:1006B0000863B4484863B4488863B448C863B24820
:1006C0005C30A74940310860B1484860B148886053
:1006D000B148C860C016C206D20E01219140AF4A8F
:1006E000116000BF002100F01EFA0420C043C206C2
:1006F000D20E01219140A94A803A116000BF10BD7D
:1007000010B5A7480021016000F00EFE0020012175
:100710008907096B49004908C20711430122920762
:10072000116300BF10BD1CB501209E490870082050
:100730009D49088004F0E6FA04F094FE00F0DEFB28
:100740009A48007899490870994800789849087043
:10075000012004F0DDFAFF2101310D20800104F0B9
:10076000DDFA01F0D7FE00F00FFF00F083FC04205B
:1007700000F0D2F9072000F0CFF90A2000F0CCF900
:10078000062000F0C9F90B2000F0C6F9012000F0A6
:10079000C3F9022000F0C0F9002000F0BDF985483F
:1007A000006804F0C1FAFFF740FF012080070068ED
:1007B000FF210131884340188905086000F077FA6D
:1007C0007D480068AA2805D1142000F04CFD1420B3
:1007D00000F05CFD02F036F9FFF792FFA220052140
:1007E0000907C88275484088E0218843A0307349D2
:1007F0004880012004F09EFA04F066FA022803D033
:1008000004F062FA012812D108206749088000BF6D
:1008100005200007808A202108402028F8D00520E4
:100820000007408A8021884305210907488272E138
:1008300005200007008980210840C01100282CD025
:10084000C805006B09020840C00B002825D104F040
:1008500077FAC007C00F00281FD1042004F076FAF1
:10086000044604F019FA002C11D0002000905248E0
:100870000068AA2802D1142000F008FD042168466F
:1008800004F06AFA002801D000F07EFD00BFFFF7F7
:1008900049FE002800D03EE100BF00BF002000BF9D
:1008A000002800D037E172B600BF00BF01F0C7FFDB
:1008B000019069460879042808D141480078012848
:1008C00002D10220019001E00320019068460079E6
:1008D000022803D068460079032877D10520000755
:1008E000008A04218843001D052109070882354834
:1008F000C069012870D968460079032869D104F0DD
:1009000031FA002865D004F033FA002861D00320C2
:1009100004F034FA00285CD002202B49087069E00A
:10092000F855002090030800FE550020FC550020DB
:10093000404000000C56002078040800D0550020EC
:10094000EC55002080040800103400000806080060
:10095000DC550020307500006C5500209427030002
:100960000084004062B600DF28A30200704701DF68
:100970001CCA0200F8BD02DF40CB0200F5E703DF2E
:1009800084D4020004DF89B0BC330200F8BD05DF67
:10099000F8BD06DFEC0C030070BD07DF80E100E06E
:1009A0008C030800F4110800003300500000080018
:1009B000202A080004900020FC11080020000050AC
:1009C00054020800E0010020C40608009CE003E097
:1009D000FFE7022001900DE068460079032807D167
:1009E00004F0CCF9002803D001206B49087001E025
:1009F0000220019000BF00BF68460079022803D0A2
:100A000068460079032856D16448006904210843E8
:100A10006249086105200007408A2021884305219A
:100A2000090748820846008A02218843801C052164
:100A3000090708826846007902280FD10846408AD3
:100A400004218843001D0521090748820846408A81
:100A5000102188430521090748822CE00520000762
:100A6000408A04218843001D0521090748827F2010
:100A7000800109888022914380310522120711806C
:100A8000002101E04A1CD1B20A29FBDB052109073C
:100A9000498A102291431031052212075182411ECA
:100AA0003F4A5161052109070988802291430522A7
:100AB0001207118000BF3B484088FF210131884365
:100AC0003849488000BF6846007903280ED10520C8
:100AD0000007408A8021884305210907488208468B
:100AE000408A0421884305210907488200BF30BF9E
:100AF0006846047900F0C0F800BF28480069042166
:100B000088432649086104E068460079012800D13D
:100B100030BF62B600BF8BE6C206D20E0121914003
:100B2000214A1160704710B500281BDA1B4A1C329D
:100B300003071B0F083B9B089B00D2588307DC0E62
:100B4000FF23A3409A438B071B0E8407E40EA340A8
:100B50001A43124B1C330407240F083CA408A400BA
:100B60001A5118E0114A03231B02D21883089B0074
:100B7000D2588307DC0EFF23A3409A438B071B0E3A
:100B80008407E40EA3401A43084B032424021B19D4
:100B90008408A4001A5110BDC406080000ED00E04E
:100BA000008000402000005080E200E000E100E012
:100BB0007047000005210907098A04229143091D95
:100BC0000522120711821146098A02229143891CCB
:100BD00005221207118211460989402291434031B2
:100BE000052212071181002101228A401E4B1A6042
:100BF00000BF08211D4A11805905498A802291436E
:100C000080315A0551821A4A016811614168516167
:100C100081689161C168D161016911624169516264
:100C200081699162C169D1621249896A116311496E
:100C3000C96A51630F49096B91630E49C96BD1634E
:100C40000C49496B0A4A403211600A49896B51606C
:100C50005905898A20221140202901D100BE01E0D6
:100C600000BFFEE77047000080E200E00033005064
:100C70004018080000ED00E058480078002804D132
:100C8000574908705749C87002E0802056490870DB
:100C9000704752480078002805D10120504908705B
:100CA0005049C87002E081204F49087070474B4896
:100CB0000078002806D102204949087001204949DE
:100CC000C87002E0822048490870704700B5474864
:100CD0000078002804DD45480078401E434908702C
:100CE00042480078002800DD00BD3F480078002819
:100CF00009D03D4800788007800F384908700020EF
:100D00003949087008E035480078002804D0334895
:100D10000078401E314908703048027800202F4981
:100D20000870002A04D0012A03D0022A07D103E068
:100D300006E0FFF7AEFF03E0FFF7B9FF00E000BFFA
:100D400000BF00BFD0E710B528480078401C2749F5
:100D5000087022480078002808D103F0B5FF044647
:100D6000601CC4B2FFF788FF1C48047010BD01204E
:100D70001F490870704700201D49087070471C48C3
:100D800000787047002100BF00BFEFF310800246DB
:100D9000012080F3108800BF052000070089802310
:100DA0001840C011002807D11248008940084000AF
:100DB000401C104B18810121002A04D1002080F32F
:100DC000108800BF04E0012080F3108800BF00BF3E
:100DD00000BF08467047084800787047F5110800C2
:100DE00054020800C6060800F6110800F7110800B2
:100DF000F8110800003300501612080005210907F9
:100E0000498A802291438031052212075182174A74
:100E1000016811604168516081689160C168D1606A
:100E2000016911614169516181699161C169D16152
:100E30000F49896A11620E49C96A51620C49096BEE
:100E400091620B49C96BD1620949496B1163084929
:100E5000896B516305210907898A202211402029C5
:100E600001D100BE01E000BFFEE770470018080096
:100E700000ED00E077480069002802D00020C04360
:100E800000E001207349086108460069C117020F9C
:100E9000090111430001704A136852681843114355
:100EA0006D4A106051606B484069002802D00020F4
:100EB000C04300E001206749486108464069C11706
:100EC000C20E490111434001634B1A685B6810432D
:100ED0001943614A10605160704708B50020022331
:100EE000032212020421009004F04CF90020012397
:100EF00002460521009004F045F908BD10B5052013
:100F00000007008A0221884305210907088200BFE3
:100F100005200007808A082108400028F8D0052015
:100F20000007808880218843803005210907888058
:100F30000321092003F028FFFFF7A7FBFFF7CDFFF0
:100F400005200007408A2021884320300521090719
:100F5000488210BD10B54148406806218843001DF5
:100F60003E4948600846406840084000401C4860D0
:100F70000846406838218843383038494860084678
:100F8000406840218843354948600846406803214D
:100F9000490288434018314948600846406889152D
:100FA000884340182D494860084640680721C90217
:100FB0008843401829494860084640680914884316
:100FC000264948600A2001218140254A116000BF5E
:100FD000042100F007F80A2001218140214A116014
:100FE00000BF10BD10B5002819DA1F4A03071B0FF8
:100FF000083B9B089B00D2588307DC0EFF23A340CD
:101000009A438B071B0E8407E40EA3401A43164B2A
:101010000407240F083CA408A4001A5118E0104A41
:1010200003231B02D21883089B00D2588307DC0ECF
:10103000FF23A3409A438B071B0E8407E40EA340B3
:101040001A43074B032424021B198408A4001A51D5
:1010500010BD000020900020F0550020000200404C
:1010600000E100E080E200E01CED00E0AA20F94988
:101070000860704700B505200007008930218843CB
:1010800005210907088108460089802188438030AE
:101090000521090708810846008980088000401C56
:1010A000088108460089082188430830052109077E
:1010B0000881E9480088802188438030E64908801B
:1010C00005200007408A0821884305210907488236
:1010D00008460089402188434030052109070881DE
:1010E0000846008A0421884305210907088200BFB9
:1010F00005200007808A022108400028F8D0FFF769
:10110000B5FFD4480068002834D1D348008840088F
:101110004000401CD0490880084640890901084029
:101120004012002807D0CC480088C90088434018E6
:10113000C949088006E0C84800880121090388439E
:10114000C5490880C4480088782188432830C249AE
:1011500008800846008806218843801DBE49088013
:1011600005200007408A0821884308300521090727
:10117000488235E0B7480068AA2831D1B64880884F
:10118000F0218843B030B449888008468088032124
:1011900009028843FF300130AF49888008468088C3
:1011A000000900018880084680884901884340186A
:1011B000A949888008468088890188434018A64943
:1011C000888008468088C90188434018A2498880E1
:1011D00005200007408A0821884305210907488225
:1011E0009D480088802188439B490880052000078E
:1011F00000894021884305210907088196484089D4
:101200000121490208404012002803D005209249DC
:1012100060318880012080070068FF210131884308
:10122000890508608D4800683F21490288430121F3
:101230004903401889490860084600680903884343
:1012400040188649086000BD03210902844A918143
:1012500008215180002000E0401C9628FCD3082182
:101260007F4A918070477F494880098889088900B2
:10127000C91C7C4A11801146098804229143091D2A
:10128000784A11800121784A11707047F0B587B013
:10129000044675480078002844D000BF7148008893
:1012A0000421084080100028F8D16E48C0880590BD
:1012B0006C488088049005980004049940180390B5
:1012C0006A4961430846039903F064FD02900020D7
:1012D00065490870664902980860029803F01EFC90
:1012E00007463946634803F063FB06468921C90572
:1012F00003F021FB054603F031FC5F4908605C48C0
:10130000006803F00BFC074603F03CFC5B4A5C4BB7
:101310000191009003F044FD054603F047FC594954
:10132000086000BF07B0F0BD70B5002449480068F0
:10133000AA280BD15048006819210903884202D914
:1013400000BF00BE00BFFF25EB3500E07C254E4806
:10135000201804B2601904B200BFA0B203F026FD49
:1013600070BD70B53C4840881E210840451003F010
:1013700023FD0446384840881E21884369000843FD
:1013800035494880204670BDF8B50020009000BF68
:1013900001203E49C86300BF00BF00BF00BF3B48FB
:1013A000C06B0028FAD100BF01208007C46900BFCC
:1013B00037480068844202D200203549086000980E
:1013C000002812D0002000903148046003F06AFC2D
:1013D00030490880012003F06BFC03F06FFC0646E7
:1013E000002E01D101200090F8BD29480068201A84
:1013F0001921C90188421FD32548046003F052FC1B
:101400000546244909888D4204DD22480088281AAF
:1014100087B203E01F480088401B87B2182F0BDB00
:101420001C480580012003F043FC03F047FC0646FE
:10143000002E01D10120009000BFD5E738B5044649
:101440000B49096861430846134903F0A3FC009067
:10145000009838BDFC110800200000500002004038
:101460002030005000160050041208000024F40040
:101470000012080000247449081208007B14AE47CB
:10148000E17A443F0C12080001120000C000004045
:101490007C0408007804080040420F0008B50146AB
:1014A000364800684843800A0090009808BD38B567
:1014B000044633480068002804D1204603F082FC2B
:1014C000009003E02046FFF7B9FF0090009838BD78
:1014D00038B504462A480068002804D1204603F0A5
:1014E00077FC009003E02046FFF7D8FF00900098BB
:1014F00038BD00BF23494869C107C90F002901D180
:10150000012070470020FCE738B5012400BF00BF70
:101510001C494869402101408909002907D000BFC2
:1015200018494869202101404909002901D10024B6
:1015300014E0002013490861009002E00098401C6C
:101540000090FF215F3100988842F7D3FFF7D1FF69
:10155000002802D103F042FC002400BF00BF204657
:1015600038BD10B50246D3009633CC0082341B1927
:1015700096331846FF30C33010BD00000812080033
:10158000FC11080000100050CC49CD48CA05128853
:1015900080239A438032CB051A8000BFC94A528902
:1015A00008231A40082A03D00A46491E002AF5D10A
:1015B0000122C54B1A600288C44B1A80801C028825
:1015C000C34B1A8005221207128880239A430523F1
:1015D0001B071A807047014600207047704770470C
:1015E000704702460020704700BF01218907096B40
:1015F000062211430122084610439107086300BFE9
:1016000070477047B348B44908604C20B34908801C
:10161000B348B24920390882B248B3494880B34838
:10162000B3490880B1481930488022204881812080
:1016300080000882AF484882AF480883AD48113027
:101640004883AE48AA492031888041200001AC4936
:101650008880AC48C880AB481030C881A94808824F
:101660004882801C8882A7480B30C882FF20463001
:101670000883A54848835920A4490880A448A34961
:101680002031088043204880A248A0494882D520C4
:101690009E4920318880FF20D33008819E484881B0
:1016A0009E4888819E489F4908809F488B496039A1
:1016B00048800846C0881021884310308749603927
:1016C000C88093480A38088198488449403948803E
:1016D00083488249203948820820804960394881FE
:1016E0007B480088894940390882784800889049B9
:1016F0000880704701460A46C80F8018C005000ED2
:101700007047F0B58DB00446002500268948606218
:101710008948A062894860618948E0628948206000
:1017200089482062894860608948E0617F21090614
:10173000284688430721090645180F210902284633
:101740008843052109024518FF21090428468843DA
:10175000152189044518280A000205464C355E48C3
:1017600005605D484038006B0121890588435A496E
:10177000403908630846406B1F2109048843032150
:101780000904401854494039486372480068C91236
:1017900088437049086008460068091388436D490A
:1017A000086003E003A88655701CC6B2282EF9DB3A
:1017B00003A82027019028200290B8033818029A25
:1017C000019903F011FB00BFFFF71CFF03F06AFA59
:1017D00061490880002003F06BFA03F06FFA0DB046
:1017E000F0BD70B500247F210906204688430721FB
:1017F000090644180F2109022046884305210902E1
:101800004418FF21090420468843152189044418FF
:10181000200A000204464C342F4804602E48403809
:10182000406B1F21090488430321090440182A49F9
:101830004039486308060068C008C000090608600F
:1018400005200007008980088000401C0521090749
:1018500008810846008908218843083005210907C6
:1018600008810846008A0F21090288434018052193
:10187000090708823948006800280ED111484089BC
:101880000121490208404012002806D00D48008876
:101890007821884308300B490880FFF7B3FE3048B1
:1018A000056F2878002804D02E4800880B4960393D
:1018B000C880012003F03EFA70BD0000A086010040
:1018C000087F0400200000500080004056020800FD
:1018D0004A0308004C05540780000040602C00506B
:1018E0007F7F0000AC2900000022005009090000A1
:1018F000002400502204000030D00000EE1100004F
:10190000002500502E020000442000004028005016
:101910000D95000002420000E4DC0000109200007F
:1019200053780000002A00508B1000009DD5000065
:1019300000260050D7150020DD150020E3150020FB
:10194000E9150020DF15002003160020E115002016
:10195000F51600200002004078040800FC11080081
:10196000E00100205204080070B50446204603F050
:101970003BFC2046133880002F490D58002D01D024
:10198000A84708E000BFE106C90E012088402B49A6
:10199000086000BF00BF70BD10B51320FFF7E4FF63
:1019A00010BD10B51420FFF7DFFF10BD10B51520D6
:1019B000FFF7DAFF10BD10B51620FFF7D5FF10BDF9
:1019C00010B51720FFF7D0FF10BD10B5002819DAA9
:1019D0001B4A03071B0F083B9B089B00D258830739
:1019E000DC0EFF23A3409A438B071B0E8407E40EF3
:1019F000A3401A43124B0407240F083CA408A40078
:101A00001A5118E00F4A03231B02D21883089B00C7
:101A1000D2588307DC0EFF23A3409A438B071B0E8B
:101A20008407E40EA3401A43064B032424021B1927
:101A30008408A4001A5110BDC090002080E200E08C
:101A40001CED00E000E100E070B5EFF3108501202F
:101A500080F31088264803F0CDF90446002D1DD0F0
:101A6000012080F31088002C23D020462038C08B22
:101A7000204988421DD16189208903F0C1F9050000
:101A80000ED021461031A38962892089A8470028F9
:101A900006D001280DD002280BD105E00020E0E798
:101AA000204603F0B3F904E0114821460C3003F05E
:101AB00017F9EFF31084012080F310880C480068B8
:101AC000002802D1012003F0A7F9002C03D0012047
:101AD00080F3108870BD0020FAE710B5BC210648DD
:101AE00003F0A0F90549012003F0A2F910BD0000A0
:101AF000A80508003883000004060800491A0020E1
:101B0000F8B50D46064681002B48EA884458521C19
:101B100020686B89018F294F514300910146403164
:101B20004A89C989511A8AB2991A89B2B94214D21A
:101B30009A4212D0294603F081F92D892049009854
:101B400003F028F92818801C4034E0823002401C41
:101B500080B2042103F0D0F8F8BD2821304603F00C
:101B600073F9F8BDF8B50546870013480C46C0590F
:101B7000C9880068114E024640325389D2899A1AA8
:101B800092B28B1A9BB2B34211D20B4E8A420ED044
:101B900003F060F9F05905225F30611C03F024F96D
:101BA0002802401C80B2052103F0A6F8F8BD2821C8
:101BB000284603F049F9F8BD4C030800FF7F0000F8
:101BC0001027000070B516460D46104603F082F847
:101BD000002869D0340A304603F07CF8012812D07E
:101BE000A87A1E2811D029460A310E2845D019DCC2
:101BF000801E030003F034F90B255829582D583165
:101C00005839583D5800022070BD3146274803F02E
:101C10002DF90021204603F02FF90221304603F070
:101C20006BF841E018283CD006DC102819D01228A7
:101C30002BD0162838D130E0522822D0D22833D1E8
:101C400027E0204603F01EF92EE0204603F020F99D
:101C50002AE0204603F022F926E0204603F024F98A
:101C600022E0204603F026F91EE0204603F028F982
:101C70001AE0204603F02AF916E0204603F02CF97A
:101C800012E0204603F02EF90EE0204603F030F972
:101C90000AE0204603F032F906E0204603F034F96A
:101CA00002E0204603F036F9002070BD0128000054
:101CB000F3B581B001980C460102CA1D0E31022312
:101CC000344803F02DF90470019905460227324883
:101CD0008E00002C06D0042C16D0062C10D0072C19
:101CE0003FD108E0815905224968897C114069701B
:101CF0008059C77335E0084603F018F9687030E082
:101D000080590F21C1732CE0044680594068417C02
:101D1000012902D1007E01280FD0019803F00CF9AF
:101D200001210028A0590BD04268D07D00281CD08A
:101D300001281AD004280DD00FE0002068700DE0B3
:101D40004068C27D022A01D0042A06D1007C022804
:101D50000BD102E0107C022807D06F70A15903203C
:101D6000C873284603F0EEF8FEBD6970F6E7014639
:101D70000A780120042A01D9002070474A78002AF5
:101D800001D0012AF8D10A79082AF5D84979082919
:101D9000F2D87047021C000028050800FFB589B082
:101DA0000D4600206946059008720B98000A0090C5
:101DB00003F0C2F807460B9802F08CFF00287DD094
:101DC0000B982978000A8400764E01295ED00429F8
:101DD00004D0062943D0072963D120E06878002881
:101DE0001BD0305910224068A91C02F0FDFF002FC3
:101DF00006D03159C87B032807D0042808D050E00A
:101E00003059C07B032803D04BE00B20C87348E057
:101E10000521009803F09CF843E00120B6E030591A
:101E2000C07B0E283DD1009803F080F8002103E02C
:101E30002A18401C9170C0B21028F9D3688A6946EC
:101E40000883294606A808221431023002F0CCFF8C
:101E500006ABAA1C3946009803F080F821E03059FF
:101E6000C07B0F281DD1AA1C0A21009803F07CF822
:101E7000002F04D03946009803F07CF811E00023CD
:101E80001A463946009803F07BF80AE0012F08D182
:101E90000B9802F01FFF01281CD0002801D002205F
:101EA00005906846007A002811D002AA0521009802
:101EB00003F05AF86846027A602000E007E0024327
:101EC0006846027201233946009803F059F80598D4
:101ED0000DB0F0BD3059C07B0228E2D168780028EF
:101EE00051D002210B9802F007FF305907224068B9
:101EF000A91C173002F078FFE878002804D1305987
:101F00004068407C01283AD0009803F03FF8002850
:101F100037D0297A009803F03FF8002833D0009892
:101F200003F040F80121009803F042F800282CD07B
:101F300030594068417E00292BD0042929D0C17E28
:101F4000027D1140C17630594068017F427D1140C9
:101F500001776846007A0028A7D1305902214268EB
:101F60000098173203F000F8305941684031897BFE
:101F7000002913D004210098FFF79AFE91E7022070
:101F800004E0062002E0082000E003206946087211
:101F90008BE70021C17630594068D9E70B21C17326
:101FA0007FE700002805080070B50446007800258A
:101FB0000D2801D00A2200E002225A494B7A002B58
:101FC00006D00D2804D0637C032B01D0432551E0BB
:101FD000097A8A4339D10D2809D00E2802D00F285A
:101FE00003D134E0607C032804D3402542E0607CC8
:101FF0000328FAD8A07C0428F7D20A2908D0607CEC
:10200000012822D0022820D06078032809D811E0C6
:1020100002F0D4FF012806D16078032803D00028FD
:1020200001D0492526E002F0C9FF002802D16078DE
:102030000228F6D83020035D22462046E17C31326A
:10204000143000F019F8054614E0422512E002F0C1
:10205000B5FF012807D16078052804D1A01D02F042
:10206000B3FF0028DDD002F0A9FF002802D160787C
:102070000228D6D8284670BDFFB5002086B00121C1
:102080006A461170044605910021002C06D0089D77
:10209000099A1F239A4234D9402032E01C23069D1E
:1020A000079AF7E76B185E78330002F0D9FE1D2619
:1020B0001010101010101010102626262626262686
:1020C0002626262626261010101010102600059B06
:1020D00003E06F46FF5CB74204D05B1E5BB2002B8F
:1020E000F7DA03E0002B01DB4A2006E0059B6F4690
:1020F000FE54059B5B1CDBB205936B5C491C5918B5
:10210000C9B2914201D20028CCD0914202D04A20DB
:102110000AB0F0BD641CE4B2022CF9D20028B3D09E
:10212000F6E7000098050800F8B506460C46154687
:102130000127312E7AD012DC0C2E78D008DC012E4B
:1021400020D0022E47D0072E62D00B2E42D181E044
:10215000102E6DD0112E6CD0122EF7D1E3E0412E4F
:1021600068D008DC322E70D0352E6FD0362E6ED06F
:10217000402EEBD151E1422E6AD0432E69D0442E3D
:10218000E4D1ACE10622F649F64802F023FF00282C
:1021900008D00622F349284602F026FE06202070C9
:1021A0000020F8BDF04800680078C007C00F002884
:1021B00010D02078062803DA00202070042709E0D8
:1021C0000622E94801689831284602F00DFE0620F3
:1021D000207000279BE1E448006800680221084065
:1021E000002814D020783E2803DA0020207004272D
:1021F0000DE0DD480068427EDB4801685A31284620
:1022000002F0F2FDD8480068407E207000277EE191
:10221000D5480068006804210840002814D02078C0
:10222000022808DA0020207004270DE091E02EE05B
:102230004AE062E00BE1CC480068817C2970C07CF8
:10224000687002202070002761E19CE0B5E0CBE0DF
:1022500015E12CE1C4480068006808210840002806
:1022600014D02078202803DA0020207004270DE005
:10227000BD480068C27DBC4801681A31284602F09A
:10228000B3FDB9480068C07D207000273FE1B64823
:102290000068006810210840002814D02078202809
:1022A00003DA0020207004270DE0AF480068027EAA
:1022B000AD4801689831284602F096FDAA480068AA
:1022C000007E2070002722E1A748006800682021D6
:1022D0000840002810D02078042803DA002020705D
:1022E000042709E00422A0480168091D284602F0DD
:1022F0007BFD04202070002709E19B4800680068EE
:102300004021084000280DD02078012803DA002061
:102310002070042706E094480068007D28700220A1
:1023200020700027F3E09048006800688021084092
:1023300000280DD02078012803DA0020207004271F
:1023400006E089480068407D287002202070002740
:10235000DDE0854800680068FF2101310840002861
:1023600010D02078042803DA00202070042709E028
:1023700004227D4801680C31284602F035FD042016
:1023800020700027C3E078480068006801214902F6
:102390000840002810D02078042803DA002020709C
:1023A000042709E00422704801680831284602F039
:1023B0001BFD042020700027A9E06B48006800681E
:1023C00001218902084000280DD02078012803DA75
:1023D00000202070042706E063480068807D287094
:1023E00001202070002792E05F480068006801210A
:1023F000C902084000280FD02078022803DA002004
:102400002070042708E058480068017C2970407C4F
:10241000687002202070002779E053480068006847
:10242000012109030840002810D02078022803DA8F
:1024300000202070042709E04B4800688230017FAB
:102440002970407F68700220207000275FE04648B6
:102450000068006801214903084000280ED0207858
:10246000012803DA00202070042707E03E480068B6
:10247000A0300078287001202070002747E03A48FB
:102480000068006801218903084000280ED02078E8
:10249000012803DA00202070042707E03248006892
:1024A000A130007828700120207000272FE02E48EE
:1024B000006800680121C903084000280ED0207878
:1024C000012803DA00202070042707E0264800686E
:1024D000A2300078287001202070002717E02248E1
:1024E0000068006801210904084000280ED0207807
:1024F000012803DA00202070042707E01A4800684A
:10250000A3300078287001202070002700BF00BF92
:10251000384646E670B5154D154CA006008880215A
:1025200088438030A106088000BF124840890821F6
:102530000840082803D028466D1E0028F5D1012048
:102540000D49086006222146064802F04DFC052090
:10255000000700888021884305210907088070BD95
:10256000383E030010120800C0060800A0860100D3
:10257000D47F04002000005000800040F8B500BF68
:1025800001208007806B06463046FEF7A1FF074614
:102590009149384602F0FEFB05468F49384602F065
:1025A000F9FB27200001441A002C00D1012400BFB0
:1025B0008A48456000BF00BF046000BF012081075A
:1025C000096B08229143C20011438207116300BFC7
:1025D000F8BD08B50020009008208149088005203A
:1025E0000007008830218843303005210907088022
:1025F0000846008880088000C01C088002E000BFF8
:1026000000BF00BF05200007808A80210840C0115C
:102610000028F4D0052000074089800880000521AB
:10262000090748816F484088400840006D4948804C
:10263000052000070088302188430521090708800C
:10264000084600888008800008800846808A0421A7
:1026500008408010002801D0FEF750FC052000073C
:1026600000898021884380300521090708810846B8
:10267000008A0421884305210907088200BF05203C
:102680000007808A022108400028F8D003E0009863
:10269000002800D00EE054480068012109050840D8
:1026A000000D0028F3D18802006904210840800849
:1026B0000028ECD000BF08BD10B502F091FC02F07C
:1026C00095FC10BD10B502F097FC05200007408A6C
:1026D0008021884305210907488241480089400834
:1026E00040003F490881414800683F2800D000BFB2
:1026F00001F063FB01208007806904218843001DED
:102700000907886102F07EFC02F082FC02F086FC80
:1027100037480068AA2802D11420FEF7A4FD002043
:102720003449087010BD10B502F07EFC10BD10B524
:1027300001208007048A08202040002804D002F0ED
:1027400079FC03202B49087010BD70B52A48008819
:102750008506AD0E2448446824488030066F3078E2
:10276000002802D1284602F06BFC24480089FF2192
:1027700001310840001200280AD0802020400028A3
:1027800006D0E007C00F002802D0284602F05EFC09
:102790008020204000280BD0E007C00F002807D081
:1027A00002201449087016480088401C144908800B
:1027B0000120C003204000280CD0FF200130204021
:1027C000002807D001200B4908700E480088401CE3
:1027D0000C49088070BD00007102000040000040FC
:1027E0000033005020000050000200406001002033
:1027F000FC1108001612080000200050002C0050A8
:10280000FE5500200A56002070B50446E0026421FF
:1028100002F0C0FA05466D1E284670BDF8B50446A4
:10282000204602F07BF906467B480168304602F0FC
:1028300082F8054602F092F900900098F8BDFEB5C6
:102840000020019000267548406D0090FEF797FA31
:10285000002803D172480079022801D1002000909D
:1028600000BF7048006800281DD16F48007800281C
:102870001CD000BF01216D4AD16300BF00BF00BF63
:1028800000BF6A49C96B0029FAD100BF012189073D
:10289000C86900BF1921C901884200D2B8E00021EF
:1028A000614A117002E000205F49087002F0D4FB19
:1028B000002800D1ACE0012001905948C0780028E0
:1028C00000D1A5E005200007808AC007C00F0028BE
:1028D00002D0042001909BE002F032FA002800D0E0
:1028E00096E0534800683F2800D000BF4C4800796C
:1028F000002802D14948006D009049488178684617
:1029000002F0B0FB002800D182E04548817868469B
:1029100002F022FA002800D17AE0454800683F28FA
:1029200000D000BF02F0A4FB002800D170E03D48B9
:102930000068AA2805D13F48FEF7B9FD04460325E3
:1029400001E09724072501208007C06B800A8002E0
:10295000711C084301218907C8630846C06B3649CA
:102960000840A102084301218907C8630846C06BDB
:10297000C002C00A6905084301218907C863042011
:1029800001902848006800280FD10098FFF73CFF0D
:10299000074623480079002801D0012000E00020EC
:1029A0000146384602F06AFB12E01E480068AA2879
:1029B0000ED10098FFF732FF07461948007900282A
:1029C00001D0012000E000200146384602F056FB0D
:1029D0001A49C86A804700BF00BF01218907086BF8
:1029E000C9130140C90B0029F6D000BF1448006884
:1029F000FF21013108400028F8D002F045FB0520F6
:102A0000000700898021884305210907088100BF4C
:102A100000BF0198FEBD00000C12080060020020FB
:102A2000C6060800FC110800F4110800C0000040B0
:102A30006001002001120000FF03E0FF1C070800F6
:102A40000002004010B5FEF717F90020FE4908709B
:102A50000220FE4908700020FD4908702520FD492C
:102A600008703220FC4908800020FC490880FC499D
:102A70000880FC490880FC490880FC490880FC4922
:102A80000880FC490880FC4800680121490588430A
:102A90004018F94908600020F8490880FEF75AFA02
:102AA00010BD08B5E8480078002811D1EC4908802D
:102AB000EC490880EC490880EC490880E44800783B
:102AC0000090684602F0E6FA0220DF49087000BF75
:102AD00008BD7CB504460020E1490880E149088032
:102AE000E1490880E1490880E24908802078D84916
:102AF0000870FFF7D6FF0421684601700E2141706F
:102B0000032181700121C170DD4981806D46002261
:102B10000621284602F0BAF87CBD08B5CA480078FC
:102B200000281FD1CD490880C94801786846017046
:102B3000C848017868464170C44801786846817089
:102B400002F0AEFA06E0684602F0AAFA002801D0C8
:102B500000BFFEE7CB48406B0028F4D00120BA4903
:102B6000087000BF08BD7CB50446042168460170AA
:102B70000F214170032181700121C170C249818000
:102B80006D4600220621284602F080F82078B049E0
:102B900008706078AF490870A078AC490870207957
:102BA0000002E1780843AC490880FFF7B6FF7CBD1E
:102BB00008B5A5480078002828D1A54801786846BE
:102BC000017025214170A14801786846817002F0AA
:102BD00067FAAE48006A0121C90388434018AB492F
:102BE00008620846006A09148843A8490862084632
:102BF000006A89148843A54908620846006A400AA9
:102C00004002086205209049087000BF08BD7CB5ED
:102C100004460421684601700E2141700321817031
:102C20000121C1709649303181806D460022062114
:102C3000284602F02BF8207885490870607883498F
:102C40000870FFF7B5FF7CBDFEB50446002620786E
:102C50004F2819D100208E4908808D4920310880E5
:102C600003208C4988800A20012181408A4A116012
:102C700000BF00BF01218140884A116000BF0126CA
:102C800000207149087079E02078542839D10A2051
:102C900000F0BBFB6578824F3878002811D12846B8
:102CA00002F0CEF97A480088FF21013188434018AC
:102CB0007749088008460088000A000228430880F7
:102CC00010E0784872490988C21291438918704A05
:102CD000118011460988090A0902425D11436C4AB4
:102CE000118000BF012080036A4988800420684960
:102CF00020310880022008800126062052490870F1
:102D00003CE02078522839D10A2000F07EFB65781B
:102D1000634F3878002811D1284602F091F95C48B9
:102D20000088FF210131884340185949088008462E
:102D30000088000A00022843088010E059485449DE
:102D40000988C21291438918514A11801146098895
:102D5000090A0902425D11434D4A118000BF01205A
:102D600080034C498880012049492031088008208F
:102D70000880012606203449087000BF002E12D0BA
:102D80000421684601700E214170032181700121E8
:102D9000C1703B49103981806D46002206212846CA
:102DA00001F074FF00BFFEBD10B527480078012870
:102DB00007D025480078022803D02348007805284A
:102DC00007D13049486B00F005FE2E48343002F040
:102DD0006DF900201C49087010BD1CB5042168461F
:102DE00001700E214170032181700121C1702449BD
:102DF000403181806C4600220621204601F046FFCA
:102E0000FFF7D2FF0020214908621CBD1FB5042135
:102E1000684601700E2141700B2181700121C17043
:102E20001749103181800E4801886846C1800D48DD
:102E30000188684601810C480188684641810D4837
:102E40000188684681812FE0F8550020F95500205F
:102E5000FA550020FB550020FC550020FE550020AF
:102E60000056002002560020045600200A5600207A
:102E70000656002008560020000200400C56002094
:102E800020400000900308001E200000C000004009
:102E900000200050002C005000E100E080E200E043
:102EA0008C550020200008006C4600220E21204690
:102EB00001F0ECFEFFF778FF1FBD7CB5044604214E
:102EC000684601700F214170032181700121C1709A
:102ED000FE4981806D4600220621284601F0D6FE7B
:102EE000207801281CD16078002806D1A07800281D
:102EF00003D10220F64908710FE00120F44908715E
:102F000060781921890148433C214843A17819225E
:102F1000920151434118EF484165FDF7BAFE09E0BF
:102F20002078022804D1EA490871FDF7C0FE01E0CB
:102F3000FDF7A2FE7CBD0521090748807047F8B562
:102F40000346E54DE80500888026B0438030EE0555
:102F5000308000BFE148408908263040082803D06F
:102F600028466D1E0028F5D1DC48C08B0226B043F0
:102F7000801CDA4EF083002035E00026D84F3E60FA
:102F80008600F6183604B60C3E6100267E610426E3
:102F90003E608600F61C8E5D36068700BF1CCF5D46
:102FA0003F043E4387007F1CCF5D3F023E438700C6
:102FB000CF5D34463C4300BFC94EB6680F273F0281
:102FC00000963E400127FF02BE42F5D0C44EB461D8
:102FD00000BFC34EB66800961027009E3E40102EDC
:102FE000F7D1461CB0B29042C7DB0520000700882D
:102FF0008026B043052636073080F8BDF0B585B091
:103000000446A0780002617808430546002001903C
:103010002078012803D12846FFF78DFF5FE0207854
:10302000022808D10120AF49086303200002AD49FE
:10303000C039086153E0207803280BD10520000730
:103040004288A948401B904203DB511988B2FFF720
:1030500072FF44E02078042809D105200007428847
:10306000AA4203DB511B88B2FFF765FF37E02078E7
:10307000052808D100209B49086301204002994996
:10308000C03908612BE02078062802D02078072874
:1030900025D1607801F0AFF90646701C002802D1F6
:1030A000012001901AE0B01C002802D102200190FA
:1030B00014E02078072811D100200090B0B20090D1
:1030C000012269468948FFF73AFF1020009001224B
:1030D000694686481438FFF732FF00BF00BF04215D
:1030E000684601720E214172052181720121C1726F
:1030F0002078002805D10520000740886946C8814E
:103100000CE02078062802D02078072803D16946F1
:103110000198C88102E000206946C8818120C00171
:103120006946888102AF00220821384601F0AEFDD1
:1031300005B0F0BDF8B504460D461646664F0120B1
:10314000800420180090F805008880218843803092
:10315000F905088000BF6148408908210840082817
:1031600003D038467F1E0028F5D101205C49086055
:1031700032462846009901F037FE052000070088F6
:1031800080218843052109070880F8BD30B587B044
:1031900004460421684601730E2141730A2181739C
:1031A0000121C173494920310182217881740021B4
:1031B000C17403A8017241728172C17201732078D7
:1031C000002806D1022204A903314848FFF7B2FFC4
:1031D00041E02078022807D1062204A903314348A0
:1031E0004830FFF7A7FF36E02078042807D10422F3
:1031F00004A903313D481438FFF79CFF2BE02078E9
:1032000001280AD16078A1780902084302900122BE
:1032100002A93648FFF793FE1DE0207803280ED15F
:103220000020019002900622611C01A801F0DCFD43
:10323000022201A92D484830FFF781FE0BE02078DB
:10324000052808D110200290012202A9274814382D
:10325000FFF775FE00BF03AD00220D21284601F0E7
:1032600015FD07B030BD10B504462148006801F0D7
:1032700023FF00201E49086010BDF8B506463078CF
:103280007178090208430746B578A9000846083056
:10329000032101F017FF0446042020700E20607007
:1032A000A800401DA0700120E07008483030A080C8
:1032B0000020A071E571A806020E214608313846AB
:1032C000FFF738FF0A480460A80013E070400000D0
:1032D000C606080060020020A08601002000005001
:1032E00000800040C0300050FFFF00008C7F0000D5
:1032F0001056002001460831474A4848006801F04E
:10330000C5FCF8BD7CB5044600252078617809022B
:1033100008430646A5782A46E11C3046FFF70FFE13
:103320000421684601700E21417005218170012140
:10333000C1703B49818000218171C5710022082143
:1033400001F0A4FC7CBDF0B585B004462078039064
:103350000026002500270421684601700E214170D7
:10336000092181700121C1702D491031818003999B
:1033700081710021C171017241728172C1726078E4
:10338000A17809020843E178090408432179090674
:10339000084306460398002806D0012813D00228C7
:1033A0001ED0032829D121E0356869460D72280412
:1033B000010E684641722802010E68468172280E8D
:1033C0006946C87219E06079A17909020843E17978
:1033D00009040843217A09060843054635600CE0D4
:1033E000378869460F723812487206E06079A17911
:1033F000090208430746378000BF00BF00220C21A6
:10340000684601F043FC05B0F0BDC206D20E0121B2
:103410009140044A11607047673200201056002026
:10342000B040000080E100E070B504461948856AAC
:103430002046A84770BD10B5052001F0EDFC00BF87
:10344000154800680446002C06D01248C06CC1B272
:103450000122204600F0AFF810BD10B5044620212F
:103460000D4801F0DFFC0C4801F032FE0A480C3038
:1034700001F02EFE01F032FE0849062001F0D8FCD2
:103480000749052001F0D4FC0649042001F0D0FCD6
:1034900010BD0000E00100206C0308004160020044
:1034A00037340020815F0200F7B505460E46FE481E
:1034B000047B5320415D02980818C1B25320415546
:1034C0000298707034704A20405BB08051E000BFB9
:1034D000F5486038816E2E20604308180746F3488F
:1034E0000078022803D0F1480078042828D1F04859
:1034F0000088401CEE490880B878C007C00F00283B
:1035000004D0EC480088401CEA49088078880821EB
:103510000840082804D1E8480088401CE649088093
:10352000B879E649098840184008E4490880E44829
:1035300040880012E349098840184008E1490880A2
:103540005720405DC007C00F002807D07888402171
:103550000840002802D1284601F0C6FD2146481C3B
:10356000C217520F1218D210D200821AD2B21446C9
:1035700000BF0298411EC9B202910028A7D100BF26
:10358000C948047300BF5820405D002812D0532062
:10359000405D00280ED03078C34960398A6E2E21F4
:1035A000414351188878C007C00F002802D100217C
:1035B00058204155FEBDF8B505460E461746482031
:1035C000415BC148C069814201D1002004E048202C
:1035D000405D0002401C80B200900623022290024F
:1035E000009901F09DFC0446324621462846FFF72B
:1035F0005BFF002F02D00020A07003E02146284688
:1036000001F078FD204601F09DFCF8BD30B5024682
:103610000C46AE4B1B88FF258135AB438033AB4D49
:103620002B802B461B885B085B005B1C2B802B468A
:103630001B881825AB431033A44D2B8010460388FC
:103640006B8000BF00BF00BFA04B1B8801256D032E
:103650002B405B13002BF7D001239C4DEB8000BF68
:1036600043886B8000BF00BF00BF984B1B880125BB
:103670006D032B405B13002BF7D00123934DEB80A0
:1036800000BF83886B8000BF00BF00BF8F4B1B88CB
:1036900001256D032B405B13002BF7D001238B4DCD
:1036A000EB8000BFC3886B8000BF00BF00BF874BAB
:1036B0001B8801256D032B405B13002BF7D00123E2
:1036C000824DEB8000BF03896B8000BF00BF00BF4D
:1036D0007E4B1B8801256D032B405B13002BF7D01D
:1036E00001237A4DEB8000BF43896B8000BF00BF90
:1036F00000BF764B1B8801256D032B405B13002B0D
:10370000F7D00123714DEB8000BF83896B8000BF30
:1037100000BF00BF6D4B1B8801256D032B405B1361
:10372000002BF7D00123694DEB8000BFC3896B806C
:1037300000BF00BF00BF654B1B8801256D032B40F8
:103740005B13002BF7D00123604DEB8000BF038A91
:103750006B8000BF00BF00BF5C4B1B8801256D0361
:103760002B405B13002BF7D00123584DEB8000BF9B
:10377000438A6B8000BF00BF00BF544B1B880125EC
:103780006D032B405B13002BF7D001234F4DEB80D3
:1037900000BF838A6B8000BF00BF00BF4B4B1B88FC
:1037A00001256D032B405B13002BF7D00123474D00
:1037B000EB8000BFC38A6B8000BF00BF00BF434BDC
:1037C0001B8801256D032B405B13002BF7D00123D1
:1037D0003E4DEB8000BF038B6B8000BF00BF00BF7E
:1037E0003A4B1B8801256D032B405B13002BF7D050
:1037F0000123364DEB8000BF438B6B8000BF00BFC1
:1038000000BF324B1B8801256D032B405B13002B3F
:10381000F7D001232D4DEB8000BF838B6B8000BF61
:1038200000BF00BF294B1B8801256D032B405B1394
:10383000002BF7D00123254DEB8000BFC38B6B809D
:1038400000BF00BF00BF214B1B8801256D032B402B
:103850005B13002BF7D001231C4DEB8000BF038CC2
:103860006B8000BF00BF00BF184B1B8801256D0394
:103870002B405B13002BF7D00123144DEB8000BFCE
:10388000438C6B8000BF00BF00BF104B1B8801251D
:103890006D032B405B13002BF7D001230B4DEB8006
:1038A00000BF2B461B8813E038030800F8550020A2
:1038B0000056002002560020045600200656002024
:1038C0000029005008560020E0010020001200509E
:1038D000FF258135AB433C4D2B80838CDBB26B8065
:1038E00000BF00BF00BF384B1B8801256D032B4074
:1038F0005B13002BF7D00123334DEB8000BF2B4629
:103900001B88FF258135AB4380332F4D2B802F4BF8
:103910005B886B8000BF00BF00BF2B4B1B8801255D
:103920006D032B405B13002BF7D00123264DEB805A
:1039300000BF911E2B461B88FF258135AB43224DCE
:103940002B800B786B8000BF00BF00BF1E4B1B8815
:1039500001256D032B405B13002BF7D001231A4D7B
:10396000EB8000BF2B461B88FF258135AB4380339E
:10397000154D2B80154B1B886B8000BF00BF00BF0F
:10398000114B1B8801256D032B405B13002BF7D0D7
:1039900001230D4DEB8000BF0D4B9B8A6B8000BF58
:1039A00000BF00BF084B1B8801256D032B405B1334
:1039B000002BF7D00123044DEB8000BF2B461B8862
:1039C0005B085B002B8030BD0012005000290050C6
:1039D0000023005070B504460948056C2046A847EE
:1039E00070BD10B50446002C04D001218906204684
:1039F00001F086FB034841680120884710BD0000A4
:103A0000600200201C07080010B50321FD488170EA
:103A10002038C068FC4A01210368FA4808389847F2
:103A200010BD0020F74920390A7E497EF74B595CCA
:103A30008A4208D1F3492039497E491CCAB2F1496A
:103A400020394A7603E00022EE4920394A76ED49D2
:103A50002039497E032904DB01200022E94920396D
:103A60004A76704770B504460D460221E5488170DC
:103A70002038C068E44A214603682846984770BD4C
:103A800010B504460021DF48203841760476FFF760
:103A9000C8FFFFF7B9FF042001F038FB10BD10B5D7
:103AA00004460121D74881702038C068D64A214693
:103AB0000368D448801F9847042001F02DFB10BDF7
:103AC000F8B50546002D26D0CE488078022818D1BA
:103AD000CC48C078012802D0052810D100E000BFF2
:103AE000C84820380069002808D0C649203908692C
:103AF00001F08CF90020C3492039086100E000BFC3
:103B000000BF012D03D10020FFF7BAFF02E000F053
:103B100007F9F8BD00BFBB488078002806D001280F
:103B20001AD002287ED0032815D1ECE0B548C07821
:103B3000012802D0052808D103E00320FFF7AFFFDA
:103B400008E00820FFF7ABFF04E0AE49C878FFF7B4
:103B500097FF00BF00BFE0E0AA48C078012802D06C
:103B6000052873D146E000F07FF9A64820380069A7
:103B7000C089002832D1A348203800690089A449AF
:103B8000884211D09F48203800690089A04930310F
:103B9000884209D09B4920390869014610310C46FA
:103BA000204601F0CFF916E0002096492039096936
:103BB0000881944920390969C881924820380069F0
:103BC000002808D08F492039086901F01FF900202A
:103BD0008C492039086100F0A3F80AE0894A203AAC
:103BE000126911461031874A203A1269D089FFF7CD
:103BF00039FF2CE0834CA41FE388A28861882088C9
:103C000001F08EF906463046103821461A3908610F
:103C100008460069C08900280BD1086901461031A7
:103C20000E4600E015E0304601F08CF900F078F81F
:103C30000AE0744A203A126911461031714A203A5A
:103C40001269D089FFF70EFF01E0FFE700BF00BF58
:103C500063E06C48C078012802D0052850D143E0C9
:103C600000F0AFF96748203800690089012817D0B3
:103C700064482038006900891F2811D06148203825
:103C80000069008921280BD05E482038006900892E
:103C900020280FD15B4820380069C089032809D14A
:103CA000584920390869014610310C46204601F078
:103CB00049F916E000205349203909690881514922
:103CC00020390969C8814F4820380069002808D088
:103CD0004C492039086901F099F8002049492039F8
:103CE000086100F01DF80CE04649203908690146DA
:103CF00010310C46204601F025F900F011F800E0E3
:103D000000BF00BF09E0FFF78CFE002802D000F0E2
:103D100007F801E0FFF778FE00BF00BF00BFF8E63C
:103D200010B50021374881702038C068364A01211B
:103D300003683448C01C9847042001F0E7F910BD1F
:103D400010B50446032001F0EDF9022001F0DEF980
:103D500010BD10B5032001F05FF82A4920394869E9
:103D600001F054F800BF274920390968002901D122
:103D7000012100E00021084600BF002808D12148A9
:103D8000203801F037F80446204600F0AFFF13E07A
:103D900000213F2000F0B0FF01F0CAF900280BD04D
:103DA00001F0CCF9002807D1082001F0B5F9042270
:103DB0003F21184801F0C8F910BD10B51648C46A73
:103DC000A04710BD10B51549032001F031F80D4989
:103DD0002039C96888688047FFF7A2FF10BD70B519
:103DE00005460C461646022001F096F9641E257021
:103DF00004482038C0680A4A711C43682046984726
:103E000070BD0000A0040800C13A0020AA5500209F
:103E10003040000002FC0000E0010020533D002083
:103E2000413D002010B50E49C9688868804710BD23
:103E300010B500240A49C968C86880470446002CA8
:103E400008D101F07BF9002804D002223F21054867
:103E500001F07AF9002C01D0012010BD0020FCE710
:103E60008004080003FC000010B5D348C46DA047CF
:103E700010BDFEB5002600200190D04A107857787A
:103E80003F0238430146084600BF00BF00BF00BFE5
:103E9000044610461A38057F007F0090C849601A12
:103EA0008C4230D00CDCC7482018002811D0C649FD
:103EB000401800280FD001280FD0022824D10EE08E
:103EC000102810D0202817D040280DD050281BD102
:103ED0000BE001261FE01F261DE020261BE0212607
:103EE000FEF762FF17E016E015E0B84800780528F5
:103EF00001D1FEF772FF0EE0B4480078022801D12C
:103F0000FEF784FF07E006E0B14E3F200190681CF9
:103F1000C0B2009000BF00BFA94884423ED0A8486C
:103F2000203084423AD0A6481030844236D0A4488B
:103F30004030844232D0A248503084422ED0A5482E
:103F4000844201D1052D29D09D486030844201D1A1
:103F5000032D23D08120C00184421FD09848803097
:103F600084421BD096489030844217D09448A030A9
:103F7000844213D09248B03084420FD03F22304662
:103F8000009B019900F0CCFF0746384610388B495A
:103F90001A39086108460069C58111E03F223046A0
:103FA000009B019900F0BCFF074638461038834952
:103FB0001A39086108460069048108460069C5810C
:103FC000FEBD10B57C48046EA04710BD10B57B48FF
:103FD0001A3800690446103478481A380069008994
:103FE000774A4032811A904242D015DC212827D0EE
:103FF00006DC012823D01F2824D020285ED129E008
:10400000744949424018002828D0734940180028B4
:1040100032D0102852D119E0502943D006DC202993
:104020002ED0302936D0402948D137E060293DD004
:1040300070293FD06948081800283FD101E03EE0D0
:104040003DE03CE004206149087038E02046FEF77E
:1040500040FD34E003205D49087030E057481A38CD
:104060000069C089052802D12046FEF77CFD26E0C4
:104070002046FEF7CCFD22E02046FEF7E5FD1EE0DF
:104080004E481A380069C089032802D12046FEF73D
:1040900014FF14E02046FEF7B1FF10E02046FFF7C2
:1040A00075F80CE02046FFF7E8F808E02046FFF737
:1040B00029F904E02046FFF746F900E000BF00BF01
:1040C00010BD70B504463C48456E2046A84770BDFB
:1040D000F1B5002339481A38406901460B310322F3
:1040E00036481A3840690089432817D004DC242850
:1040F0000AD042283FD10CE0442813D0344C64420B
:104100000019002837D125E02E4B5B42501CC2B26B
:1041100032E0304B5B1E501CC2B22DE02D4B501CC8
:10412000C2B229E025481A38406906461036294BA4
:104130005B1CD01CC2B28C1D708800BF00BF25461E
:1041400028702C466D1CFF273F0207403F122F703E
:1041500000BF11E0194D28786F783F0238430446BC
:10416000204600BF00BF00BF00BF0346501CC2B2C4
:104170000120487100E000BF00BF0E200870491CFC
:104180000A70491C01200870491C0846491C00BFE0
:1041900000BF044623702046641CFF252D021D40ED
:1041A0002D12257000BF901CC4B200980470034803
:1041B0001A3840690B30F8BDE00100209A0408006D
:1041C00010400000FDF3FFFFE6EBFFFFF855002075
:1041D00001FC00001E2000000EE0FFFF4F44FFFF27
:1041E000012002E000BF00BF401CFB498842F9DD0E
:1041F000704700B50246FF2A01DCFF220132F74872
:10420000824200DD0246052109074A80FFF7E8FFE8
:1042100000BDF0B585B005460026002001900A21BA
:10422000284600F097FFC0B203900A21284600F00C
:1042300091FFCFB20120B840C0B20290039800288D
:1042400004D0012804D0022808D104E0E44C05E0A1
:10425000E34C203402E0E24C403400BF00BFE148B0
:10426000E1494861002088610846006904218843CB
:10427000001DDD49086100BF00BFEFF31080009012
:10428000012080F3108800BF00262046029900F02C
:10429000E3FA0190D448006940084000D24908611F
:1042A000D04901980E1A0098002804D100BF80F36D
:1042B000108800BF04E0012080F3108800BF00BF19
:1042C00000BF304605B0F0BDF1B58CB00C9800F0E1
:1042D00047FF039102900C994943084600F040FFC4
:1042E0000646C24AC24B00F05BFD04460022C14BA9
:1042F00000F09CFB01910090039B029A00F050FD9E
:104300000022BD4B0591049000F090FB07910690B0
:1043100000F04CFC0A900C994943084600F020FF3D
:10432000B64AB74B0791069000F03AFD04460022CA
:10433000B44B00F07BFB064600F038FC09900C986B
:1043400000F00EFF0646B04AB04B00F029FD0022F7
:10435000AF4B0791069000F069FB044600F026FC85
:10436000089009990A9800F0DEFA0546089900F0CD
:1043700089FA0446A74900F085FA0B900B9800F0E3
:10438000D4FB0DB0F0BDFEB504460D4600200190F3
:104390000090A1480460A1480460A14805609E48BF
:1043A0000068FFF791FF06469D480068371A9D4850
:1043B0003818029000BF0298864207DB96480068D2
:1043C000401E954908600120019006E0924800686F
:1043D000401C91490860012000908F480068FFF759
:1043E00073FF064601980128E5D100980128E2D123
:1043F00089480068FEBD10B588B004467A21039153
:104400000021029100200521090708800820864923
:104410000880FFF7E5FE230000F022FD1E101A249D
:104420002E38424C561919606C7884909C191919D1
:1044300019A8B4C0CCDDDCDBDAD9D8196848C0884B
:10444000032109028843FF3001306549C88029E112
:1044500063480089032109028843FF300130604925
:1044600008811FE15E484089032109028843FF302B
:1044700001305B49488115E15948808903210902CF
:104480008843FF300130564988810BE15448C08988
:10449000032109028843FF3001305149C88101E1FD
:1044A0004F48008A032109028843FF3001304C49FC
:1044B0000882F7E04A48408A032109028843FF3016
:1044C000013047494882EDE04548808A03210902CE
:1044D0008843FF30013042498882E3E04048203081
:1044E000C088032109028843FF3001303C49203154
:1044F000C880D7E03A482030008903210902884368
:10450000FF300130364920310881CBE0344820307B
:104510004089032109028843FF30013030492031AE
:104520004881BFE02E48203080890321090288435A
:10453000FF3001302A4920318881B3E028482030FB
:10454000C089032109028843FF300130244920310A
:10455000C881A7E022482030008A0321090288434D
:10456000FF3001301E49203108829BE01C4840305A
:10457000C088032109028843FF30013018494031C7
:10458000C8808FE016484030008903210902884323
:10459000FF30013012494031088183E0104840303B
:1045A0004089032109028843FF3001300C49403122
:1045B000488177E00A484030808903210902884316
:1045C000FF3001300649403188816BE060E055E002
:1045D0004AE03FE034E029E0A0860100FF07000048
:1045E00000300050FFFFFF0000E000E0D7D0178C44
:1045F0005B76FB3F0088C34000408F401B2C4B5D27
:10460000FA570740006AF8401B6560911D830E4011
:1046100000002440FA1EF44A1456002018560020C8
:104620001C56002037127A00003300507F48C089A2
:10463000032109028843FF3001307C49C88131E001
:104640007A48008A032109028843FF300130774904
:10465000088227E07548408A032109028843FF3019
:104660000130724948821DE07048808A03210902A6
:104670008843FF3001306D49888213E06B48C08A5F
:10468000032109028843FF3001306849C88209E0EC
:104690006648008B032109028843FF3001306349DB
:1046A000088300BF00BFFF200130FFF7A2FD2046B6
:1046B000FFF7AFFD07905E48FFF79BFD2046FFF731
:1046C000A8FD05905B48FFF794FD2046FFF7A1FD8C
:1046D000069007990598401A574908605749069867
:1046E00008600798642805DB0698642802DB0598B3
:1046F000642803DA0120C04308B010BD5049079870
:104700000968884204DC4E4905980968884202DA43
:104710000020C043F0E74748FFF76BFDFFF760FD5F
:104720002046FFF776FD4549086000BF0020454957
:104730000870019000BF68460079401CC1B2019129
:1047400068460079012829D13A48FFF752FD052033
:10475000000740883C490860384801683A480068CA
:10476000FFF711FE394908600846006836490968B4
:10477000401A3749086035480068FFF73AFD00BF26
:1047800000BF0520000740882F4908602046FFF73A
:1047900040FD2A4908608020049000BF68460079E7
:1047A000022829DB0498C10F09184910049105203B
:1047B000000740882449086020480068254988424D
:1047C00005DA21480068049940181F4908601B4811
:1047D00000682049884205DD1B4800680499401A9A
:1047E0001949086018480068FFF703FD2046FFF7E5
:1047F00010FD1249086000BF00BF0498022804DAC7
:104800000121C9430498884208DC684600790A28D7
:1048100004DC0A4800680F4988428CD10520000753
:104820004088094908600846006865E74030005044
:10483000FF070000A304000038560020285600207F
:10484000305600205256002040560020445600208A
:104850002456002037127A003EB502880A42FCD165
:1048600002880A42FCD0054A1368012423431360DE
:1048700002880A42FCD1024A10683EBD10E000E006
:1048800018E000E0F8B502464A40D40F42004B0061
:1048900052085B089A4202D20246084611464A0074
:1048A00023D0C30D4A00DDB2120EAD1A202D35DA29
:1048B00049020126490AF6058A19002C00D0524205
:1048C00020214F1B1146B9402A411018C20D9A42AF
:1048D00021D0002C17D0012D08DCDA05801AD20F68
:1048E0008019D207DBB200F085F9F8BDDA05801A2D
:1048F000012340001B06C01880185A428018CA0FB6
:104900001043490007E04908C2071143DA05801A3D
:1049100080194008801800F065F9F8BD6100012297
:10492000511A001BF7E70122D2075140AAE70122E2
:10493000D2075040A6E7024670B54A40D30FDB07C6
:1049400040002DD04A002AD0010E140E000212029F
:104950000919400A520A8418E50104465443000A22
:10496000120A2E045043A4194219200CC543AA1858
:10497000120C0125AD03521C521912047F39240474
:1049800000D0521C104301D44000491EC2B20C0694
:10499000C0092018401C4008802A02D003E00020F3
:1049A00070BD40084000002900DA0020184370BDA7
:1049B00070B502464A40D50F40004A00ED07400856
:1049C0005208002814D0002A12D0C40DD30D410281
:1049D0000120C0055202490A520AE41A09181218A5
:1049E0007D34914201D3641C00E04900002C01DABF
:1049F000002070BD0023914201D3891A034340086F
:104A000049000028F7D100290AD0914202D10121A2
:104A1000C90705E0914201D2012101E00121C9430A
:104A2000E005C018401900F0DDF870BDF0B50C4687
:104A30005C4085B0E40FE40703944C000026640852
:104A400059009446490802460296224321D0624604
:104A50000A431ED06200570D4A000E032303550D72
:104A6000012402462C492405781B1B0B360B4018E9
:104A700023432643614600901C46501AB44103D399
:104A80000098401C009002E0921800985B410028BA
:104A900003DA0020014605B0F0BD00200121090520
:104AA0000746864611E064461D46141BB54106D3F1
:104AB0006546521BB341744607430C43A646CD07D7
:104AC00040084908284392185B4105460D43EAD146
:104AD0001046184313D060461946504071400843B1
:104AE00006D06046101AB34106D20122002306E028
:104AF00000220123DB0702E00122D2435310009879
:104B000074460105381C6141029C039D00196941EE
:104B100000F02CFBBFE70000FD03000010B50022F1
:104B20009623114600F066F810BDC20F4100400206
:104B30000123400ADB05D207090EC0187F2901DADC
:104B400000207047962903DC9623591AC84001E0DB
:104B500096398840002AF4D0404270474100400214
:104B60000122400AD205090E80187F2901DA0020AF
:104B70007047962903DC9622511AC840704796392F
:104B800088407047C20FD207400040080BD0C10DCB
:104B90000723DB01C91840020905400A1143C20876
:104BA000400711437047002001467047CB0FDB07D9
:104BB000490010B5490802460A4307D00A0D0724E8
:104BC0000903E401090B121B002A01DC002010BDBF
:104BD000C900440F0C43C100E018D205801800F052
:104BE00001F810BD002904DA401C490001D1400839
:104BF0004000704770B40024050C05D11024000457
:104C000002D1002921D01124050E01D1000208345F
:104C1000050F01D10001241D850F01D18000A41CC6
:104C2000002801DB4000641C002908D020252E1B31
:104C30000D46F540A14000D001212943084301065B
:104C40001B1B000ADB1D02D5002070BC7047DB0572
:104C5000181880180029F8DA401C4900F5D170BCFA
:104C60004008400070470000064C0125064E05E054
:104C7000E36807CC2B430C3C98471034B442F7D37D
:104C8000FBF7E2FBB0550020D055002003B40148EB
:104C9000019001BD2F81020003B40148019001BDC4
:104CA000C92D030003B40148019001BD938F020098
:104CB00003B40148019001BDCD8C020003B401484A
:104CC000019001BD418F020003B40148019001BD74
:104CD0001F21020003B40148019001BDB326030067
:104CE00003B40148019001BD2F22020003B4014822
:104CF000019001BD0B91020003B40148019001BD78
:104D00003126030003B40148019001BD551B020088
:104D100003B40148019001BD0F3B030003B40148F7
:104D2000019001BDCF2B030003B40148019001BDE8
:104D3000CB2C030003B40148019001BD099002008F
:104D400003B40148019001BDC12D030003B4014823
:104D5000019001BD0921030003B40148019001BD88
:104D60002B69020003B40148019001BDEB3103003F
:104D700003B40148019001BD3D32030003B4014872
:104D8000019001BDD721030003B40148019001BD8A
:104D90005D80020003B40148019001BDA73A030001
:104DA00003B40148019001BD913B030003B40148E5
:104DB000019001BD2F2F030003B40148019001BDF4
:104DC000998F020003B40148019001BD27680200D9
:104DD00003B40148019001BD3968020003B40148E1
:104DE000019001BDB780020003B40148019001BDEC
:104DF000213B030003B40148019001BDBF22020022
:104E000003B40148019001BDEB26030003B401483F
:104E1000019001BD3524030003B40148019001BD98
:104E2000DD20030003B40148019001BD533B0300A2
:104E300003B40148019001BD9D20030003B4014863
:104E4000019001BD3350020003B40148019001BD3F
:104E50005548020003B40148019001BD1F500200F3
:104E600003B40148019001BDFD3D030003B40148B6
:104E7000019001BDA528030003B40148019001BDC4
:104E8000D5AF020003B40148019001BDA1A5020005
:104E900003B40148019001BDE3A5020003B4014839
:104EA000019001BD87A8020003B40148019001BD33
:104EB000A7A9020003B40148019001BD93AA020012
:104EC00003B40148019001BD95AB020003B4014851
:104ED000019001BDF9AB020003B40148019001BD8E
:104EE00069AC020003B40148019001BD17AD020096
:104EF00003B40148019001BD77AD020003B401483D
:104F0000019001BDF1AD020003B40148019001BD63
:104F100085AE020003B40148019001BD11AF02004B
:104F200003B40148019001BDB123030003B401485B
:104F3000019001BD49E5020003B40148019001BDA3
:104F4000F9E3020003B40148019001BDE12303002D
:104F500003B40148019001BD4BCD020003B40148E8
:104F6000019001BD99D1020003B40148019001BD37
:104F7000ABD0020003B40148019001BD69D002002A
:104F800003B40148019001BD77CF020003B401488A
:104F9000019001BD01CC020003B40148019001BDA4
:104FA00029CC020003B40148019001BD15D20200D2
:104FB00003B40148019001BD8DD2020003B4014841
:104FC000019001BD7F0C030003B40148019001BDB5
:104FD000AB0C030003B40148019001BD773B030013
:104FE00003B40148019001BD1531030003B4014829
:104FF000019001BD1B66020003B40148019001BD90
:10500000652C030003B40148019001BDDB2E0300B1
:1050100003B40148019001BD231D020003B40148FF
:10502000019001BDC32C030003B40148019001BDF0
:105030003B66020003B40148019001BD2B660200EB
:1050400003B40148019001BD038D020003B401487F
:10505000019001BDCF8F020003B40148019001BD52
:105060007920030003B40148019001BD2129030008
:1050700003B40148019001BDD990020003B4014876
:10508000019001BDC768020003B40148019001BD51
:105090000D2C030003B40148019001BD7B6F020099
:1050A00003B40148019001BDAF6E020003B4014892
:1050B000019001BD655F020003B40148019001BD8C
:1050C000D722030003B40148019001BD152203005B
:1050D00003B40148019001BD2522020003B4014838
:1050E000019001BD5B66020003B40148019001BD5F
:1050F0005D61020003B40148019001BD0D5302003F
:1051000003B40148019001BD7762020003B4014875
:10511000019001BDED2E030003B40148019001BDD3
:10512000B72E030003B40148019001BDB120030074
:1051300003B40148019001BD3F2F030003B40148AF
:10514000019001BD472F030003B40148019001BD48
:105150002528030003B40148019001BDD33A0300A0
:1051600003B40148019001BD613C030003B4014850
:10517000019001BDCD3C030003B40148019001BD85
:105180008D3D0300FFB583B006460F463A46012425
:10519000002520462946FFF7EFFF320101910290DA
:1051A000FFF7EAFF0F4B1A685B68104019400023B5
:1051B00058405940084300D100BE0C98002804D044
:1051C0003946304600F0BCF803E03946304600F07E
:1051D000E7F839463046069B059A00F011F907B00A
:1051E000F0BD0000F05500205449C9890346133B27
:1051F00001229A4091431A4601239340DA07D20FC5
:10520000002A01D0002393E00346133B01229A4079
:1052100002231A40002A01D0012389E00346133BF0
:1052200001229A4004231A40002A01D002237FE081
:105230000346133B01229A4008231A40002A01D05A
:10524000032375E00346133B01229A4010231A40C2
:10525000002A01D004236BE00346133B01229A404D
:1052600020231A40002A01D0052361E00346133BA6
:1052700001229A4040231A40002A01D0062357E019
:105280000346133B01229A4080231A40002A01D092
:1052900007234DE00346133B01229A40FF230133CD
:1052A0001A40002A01D0082342E00346133B0122A2
:1052B0009A4001235B021A40002A01D0092337E0FB
:1052C0000346133B01229A4001239B021A40002A05
:1052D00001D00A232CE00346133B01229A4001230C
:1052E000DB021A40002A01D00B2321E00346133BC6
:1052F00001229A4001231B031A40002A01D00C23EB
:1053000016E00346133B01229A4001235B031A4037
:10531000002A01D00D230BE00346133B01229A40E3
:1053200001239B031A40002A01D00E2300E00F2323
:1053300001229A401143014AD18170470014005064
:10534000F0B585B004460D462A46012600273046B2
:105350003946FFF711FF220102910390FFF70CFF7E
:105360000D4B1A685B6810401940002358405940A3
:10537000084300D100BE032C00D10424600107497A
:10538000401801900198801C00900120A84081B233
:105390000098018005B0F0BDF055002000300050AD
:1053A000F0B585B004460D462A4601260027304652
:1053B0003946FFF7E1FE220102910390FFF7DCFE80
:1053C0000D4B1A685B681040194000235840594043
:1053D000084300D100BE032C00D10424600107491A
:1053E000401801900198001D00900120A84081B252
:1053F0000098018005B0F0BDF0550020003000504D
:10540000FFB585B004460D462A46012600273046E2
:105410003946FFF7B1FE220103910490FFF7ACFE7D
:105420000E4B1A685B6810401940002358405940E1
:10543000084300D100BE032C00D1042460010849B8
:105440004018029069000298801D08180190089980
:10545000079801430198018009B0F0BDF055002084
:1054600000300050F0B585B000240CE0002507E0C6
:105470000021282060432C4A8018AA0081506D1C0E
:105480000A2DF5DB641C042CF0DBFBF7F3FC002198
:10549000264A11605160002442E000253CE00120D2
:1054A000A84080B2029060002149085A0299084041
:1054B000002800D132E0282060431B494018A90091
:1054C0004058401C002803D10194009500BE00BF45
:1054D0002820604314494018A9004058002800D1F2
:1054E00019E02820604310494018A9004658F717D2
:1054F0002A4630463946FFF73FFE220103910490C9
:10550000FFF73AFE094B1A685B6810431943074AD4
:105510001060516000BF6D1C0A2DC0DB00BF641C11
:10552000042CBADB05B0F0BD20900020F05500201F
:10553000A255002002E008C8121F08C1002AFAD1B3
:1055400070477047002001E001C1121F002AFBD103
:1055500070470000FFFF0000DB05002002FC000098
:105560007D92020003FC0000899202005706002091
:10557000C51B0020B11C00206F1D00209D1D0020B8
:10558000011B0020651B0020A91F00200101000A4B
:1055900004280A040203AA0055032A00A001FFFF01
:1055A0002C01FF003F00FF03FF01525721000000C4
:1055B0005456002020900020B400000044550020E4
:1055C00068070800202A0800E00500004455002074
:1055D00000000000545500200300000000000000FF
:1055E000D4550020A404080002000100640000005B
:1055F00000000000000000000000000000000000AB
:10560000000000000000000000000000000000009A
:10561000000000000000000000000000000000008A
:1056200000000000000000000000000006FFFFFF77
:1056300037127A00020000000000000000000000A5
:10564000000000000000000000000000000000005A
:045650000000000056
:040000052000044192
:00000001FF
