:020000042000DA
:1000000000980020A9040020B1040020C9040020A9
:1000100000000000000000000000000000000000E0
:10002000000000000000000000000000E1040020CB
:100030000000000000000000F9040020FB04002084
:100040002F1F0020053103000D310300B51F0020D4
:10005000C11F00208D310300172000201F20002029
:10006000FD040020FD04002037200020AD310300F6
:1000700057810200DF1300204B1B02004B1B0200C4
:100080004B1B0200FD0400204B1B020091110020BD
:1000900095110020991100209D110020A111002030
:020000042000DA
:100160003200000019060020AF0F0020ED22002011
:10017000000000000000000063800200BD8002005B
:10018000FB0D0020FB800200198102003581020076
:100190005D810200011F0020FF050020CB0D002023
:1001A000E30D002000000000000000003F00000000
:1001B000F48B002000040000740B080048010000CC
:1001C0006807080000040000C80C080020050000B3
:1001D000000000002000000048000000580000005F
:1001E0006800000004010000160100002801000062
:1001F0002E010000202A00008E2E000001000000C9
:100200008813000039100020E9600200FD9302000D
:10021000B314002019280300A5740200011B00205C
:1002200003000000D5200200F92200200400000095
:10023000D74902000F490200831D020063910200AA
:10024000B7910200BF910200078202007182020092
:1002500024400020AD830200938402004185020007
:1002600015860200378602005F860200758602004E
:10027000F9870200258902005D8A0200D38C020002
:10028000098D02000F900200438D0200278E0200AC
:10029000F98E0200478F02003D0D0020D58F02002D
:1002A00049510200775102002F5202001000000055
:1002B00020030000803E000000000000000000005D
:020000042000DA
:1002C000504600030003983A6400F401B80B000C98
:1002D000B80B120030003000CD009A01120024004B
:1002E00030006400B0001800280012001200D0078F
:1002F0000000FFFF00000000000000000000000000
:100300001F000002444131343538302D30310000B7
:1003100000000000000000000000000000000000DD
:0403200000000000D9
:020000042000DA
:10034000FFFF010000C201000000000000000000EB
:100350000000F4010100011B0A071AFFD200021578
:10036000585CDE931B0142CC9A1325009BEDC65EC0
:1003700000000000C5000000000009FF00605257A7
:100380002D424C450000000000000000000000006D
:100390000000000000000000000044413134353806
:1003A00078000000000000000000000000000000D5
:1003B000000000000000000000000000000000003D
:1003C000000000000000000000000000000000002D
:1003D0000000000000000000010000CAEA80D00711
:0403E000064064323D
:020000042000DA
:100440000348854603F0F0F800480047C720020043
:100450000098002010B5114906200880FF2010499F
:10046000013008600F4988683E2290432E30886032
:100470000021052000070180028A0F231B021A4376
:1004800002820122D204032308461B038418216040
:10049000001D9842FADB62B610BD00000034005027
:1004A00080E100E0003300501548804715480047C0
:1004B00004207146084203D0EFF30980124908472F
:1004C000EFF308801049084704207146084203D022
:1004D000EFF309800D490847EFF308800B490847FF
:1004E00004207146084203D0EFF309800849084709
:1004F000EFF3088006490847FEE7FEE7FEE7000045
:100500005504002041040020DD09002015050020CD
:100510008705002005221207518A80231943518242
:10052000114903680B6043684B6083688B60C36844
:10053000CB6003690B6143694B6183698B61C0695F
:10054000C8610A48836A0B62C36A4B62036B8B62A1
:10055000C36BCB62436B0B63806B4863908A8006EE
:1005600001D500BE7047FEE70018080000ED00E06E
:1005700002890889B349101A80B2884201D9012042
:1005800070470020704781692039897F082904D28B
:10059000AD4A8900515881617047FEE7AC48AB49CC
:1005A0000161AC494161AC498161AC49C161AC496F
:1005B0000162AC494162AC498162AC49C162AC495B
:1005C0000163AC494163AC498163AC49C163AA4949
:1005D0009F485C3140300160A9494160A949816070
:1005E000A949C1600120A949C0060860A849CA6993
:1005F0001202120ACA61A54980390860704710B515
:10060000A4490020086000F085FB01208007016BF1
:1006100049004908016310BD1CB59F4901209F4E48
:1006200008700825358003F011F803F091FC00F004
:1006300086FA9B48017801709A4801780170012080
:1006400003F00AF86F010D203946800103F00AF823
:1006500001F06AFB00F014FC00F0ACFA042000F09A
:10066000EAF8072000F0E7F80A2000F0E4F8062096
:1006700000F0E1F80B2000F0DEF8012000F0DBF8DC
:10068000022000F0D8F8002000F0D5F88648006875
:1006900002F0EEFFE80601683943016000F016F948
:1006A00082480068AA2805D1142000F0F1FA14202D
:1006B00000F0FCFA01F0F2FFFFF7A1FFA2200524F1
:1006C0002407E0827A484188E0229143A0314180AA
:1006D000012002F0D3FF02F0D7FF022803D002F07E
:1006E000D3FF012807D13580A08A8006FCD4618A17
:1006F000802081436182022604252089000624D5BA
:1007000001208007006B00041FD402F0C3FFC00764
:100710001BD1042002F0C4FF019002F0C7FF019832
:10072000002810D00020019060480068AA2802D15B
:10073000142000F0BBFA042101A802F0BDFF00283C
:1007400001D000F009FB02F020FD72B601F014FBAD
:1007500069460870042806D002280CD003280AD065
:10076000012865D065E053480078012802D00320B5
:10077000087000E00E70208A284320824E48C0692D
:100780000128087811D9032849D102F09BFF0028DD
:1007900045D002F09DFF002841D0032002F09EFFCB
:1007A00000283CD04548067008E0032837D102F005
:1007B00095FF002833D04149012008703448016971
:1007C00029430161618A202291436182218A314358
:1007D0002182694609780229618A22D029436182EF
:1007E0007F212288890180231A4322800022521C03
:1007F000D2B20A2AFBD3628A10231A436282304A99
:10080000491E5161218880229143218028494A88CC
:10081000BA434A8030BF0169A943016109E06846D3
:10082000C1E729436182618A102291436182EDE729
:1008300030BF62B661E7C106C90E01208840214978
:1008400008607047307500000440002094270300C2
:100850000084004062B600DF28A30200704701DF79
:100860001CCA0200F8BD02DF40CB0200F5E703DF3F
:1008700084D4020004DF89B0BC330200F8BD05DF78
:10088000F8BD06DFEC0C030070BD07DF80E100E07F
:1008900000ED00E08C0308000080002000330050D1
:1008A00000000800202A0800049000200C8000208E
:1008B0002000005054020800E0010020C406080097
:1008C0000080004080E200E0704700003E48017870
:1008D000002902D08021417070473C4900200870F7
:1008E0003B49C870704738480178002902D08121FF
:1008F000417070473549012008703549C87070470C
:1009000031480178002902D08221417070472F4977
:10091000022008702E490120C87070472A4881784B
:10092000002904D0491E0906090E817017D14278AA
:100930000021002A04D09207920F0270417004E057
:100940000278002A01D0521E02701206120E0170A7
:1009500005D0012A02D0022A01D1D1E7C3E77047AE
:1009600010B5194CA078401CA0702078002805D143
:1009700002F08AFE421CFFF7A9FF227010BD124947
:100980000120C870704710490020C87070470E4899
:10099000C07870470020EFF31081012282F31088A5
:1009A000052212071289120605D40A48028901237A
:1009B0001A4302811846002900D0012181F31088D2
:1009C00070470548007870470180002054020800F5
:1009D000C6060800003300503E80002005221207A2
:1009E000118A042319431182118A022319431182A7
:1009F0001189402319431181174B01211960174BAD
:100A000008211980518A80231943518214490368AF
:100A10000B6143684B6183688B61C368CB61036979
:100A20000B6243694B6283698B62C069C8620D487F
:100A3000836A0B63C36A4B63036B8B63C36BCB63C8
:100A4000436B074940310B60806B4860908A800699
:100A500001D500BE7047FEE780E200E000330050A1
:100A60004018080000ED00E070B54C4800224168D5
:100A7000D243002901D0114600E00121CB1741608B
:100A80004C1847495B410D684E682C4333430C605A
:100A90004B608368002B01D0144600E00124E3176B
:100AA000A50F9B002B4384600D68A4004E682C4367
:100AB00033430C604B60836A002B01D0144600E086
:100AC0000124E317250C1B042B4384620D682404C6
:100AD0004E682C4333430C604B60036B002B00D1FA
:100AE00001220263D017930B800418430C68920410
:100AF0004B68224318430A60486070BD38B5002433
:100B000003252D0204232A4601212046009403F0E8
:100B100007F80022032302211046009403F000F896
:100B200000232A4619460120009402F0F9FF002311
:100B30001A4602210120009402F0F2FF38BD1CB5D4
:100B400005242407208A022188432082A08A0007E6
:100B5000FCD5FFF723FDFFF7D1FFA0884021084314
:100B6000A0800321092000F0E2FB0E480121426829
:100B70008A430A4342600C49142003F02DF91421E2
:100B8000002003460A46019100900221012002F054
:100B9000F1FF608A2021084360821CBD289000205C
:100BA0002090002000110050FB2D0020A4490020BF
:100BB0004860704770B505210907088930229043C5
:100BC00008810889802210430881088980088000F4
:100BD000401C088108890823184308819948048823
:100BE000144304804C8A9C434C820D894024254345
:100BF0000D810D8A0426B5430D828D8AAD07FCD583
:100C00008F4E00257560058801263543058045898E
:100C1000AE058D4D068801D52E4300E0AE4306801B
:100C200005887826B543283505800588062635438E
:100C300005804D8A1D434D820388934303800A89B2
:100C4000A2430A814089800503D57E490520603191
:100C500088800120800701688215914301607B48EC
:100C600001683F22520291434214891801600168D1
:100C700002031143016070BD03217548090281819F
:100C8000082242800021491C9629FCD382807047AB
:100C9000704948800888032210430880088804228D
:100CA0001043088066490120087070477CB5644C89
:100CB000217800292DD067490A885207FCD4CA88B8
:100CC0000092898801911104019A89180091624962
:100CD0004843009902F008FD009000202070009821
:100CE000A060009802F014FC054629465B4802F01B
:100CF000C5FB0A2102F000FC02F011FCE06028466E
:100D000002F021FC564A574B02F0F4FC02F02FFC93
:100D100020617CBD10B54A484168AA2905D07C20D5
:100D20005149081802F0ECFC10BDC06819210903F4
:100D3000884200D900BEFF20EB30F1E770B5414C8E
:100D40006088C006050F02F0E1FC61881E22914315
:100D50006A001143618070BD10B544490120C86329
:100D6000C86B0028FCD101208007C1694048026897
:100D7000914201D20022026019238A1ADB019A42B1
:100D800012D3016002F0C8FC3A4A1188884201D9A6
:100D9000411A00E0091A89B2182905D310800120F0
:100DA00002F0C0FC02F0C4FC10BD08B524498968FB
:100DB0004843314902F098FC009008BD08B520492D
:100DC000C9684843800A009008BD08B51C494968B5
:100DD000002903D0FFF7E9FF009008BD02F0AEFC48
:100DE000FAE708B516494968002903D0FFF7E6FF7E
:100DF000009008BD02F0A8FCFAE708B51F490120E1
:100E00004A695206D20F13D04A699206D20F0FD008
:100E100000220A610092FF225F32009B5B1C00935C
:100E20009342FAD34969C907C90F02D002F092FC74
:100E3000002008BD40183721C00009014018704744
:100E40000880002020000050001000000002004038
:100E500020300050001600500024F4000024744993
:100E60007B14AE47E17A443F01120000C00000400D
:100E70007C0408007804080040420F000010005075
:100E800030B58D4A8D49D005048880231C430480E9
:100E90008B4C65892D0701D4521EFAD2894C012250
:100EA0002260894C0A882280884A498811800188FA
:100EB0009943018030BD00207047704770477047EC
:100EC0000020704701218907086B0722104308633F
:100ED0007047704710B57F497D4808607E494C20B7
:100EE00008807D4B7D4A203B1A827E497C484880A1
:100EF0007E487D4901807C49193141802221418110
:100F00008121890001827A4941827A4901837849A5
:100F100011314183754978482031888041217748D3
:100F2000090181807649C180754C1034C4810182E9
:100F30004182891C8182611FC182FF214631018368
:100F4000704941837049592008806F486F4C2030A8
:100F50000480432444806E4C4C82D5218180FF2143
:100F6000D33101816B4941816B4981816C496B4867
:100F7000088059486B4960384180C188102421435A
:100F8000C18062490A390181534C6749403C618004
:100F90005A82082141814D485B49008840390882C6
:100FA000494862490088088010BD4008704700B574
:100FB0008BB05F4A42625F4A82625F4A42615F4A27
:100FC000C2625F4A02605F4A02625F4A42605F4AF1
:100FD000C261404A3E48002110603E484038026BE2
:100FE00003129A430263426B1F231B049A43032399
:100FF0001B04D218426356480268C3129A43026027
:10100000026803139A43026068464154491CC9B2FE
:101010002829FAD3014628224E4802F0A1FBFFF707
:1010200059FF02F079FB4C490880002002F07AFB5E
:1010300002F07EFB0BB000BD10B5264A0F212448FC
:101040000902106023484038426B1F231B049A4357
:1010500003231B04D218426300060268D208D200A0
:10106000026005200007028992089200521C02814A
:10107000028908231A430281028A0A4302823748FE
:101080000068002808D10E484189890504D50188E7
:101090007822914308310180FFF71CFF3048006F30
:1010A0000078002804D02F4800880B496039C88098
:1010B000012002F0E3FA10BDA0860100087F0400C1
:1010C0002000005000800040560208004A0308003B
:1010D0004C05540780000040602C00507F7F0000CA
:1010E000AC29000000220050090900000024005033
:1010F0002204000030D00000EE1100000025005056
:101100002E02000044200000402800500D950000F1
:1011100002420000E4DC000010920000537800005E
:10112000002A00508B1000009DD5000000260050C2
:10113000B70E0020BB0E0020C10E0020C50E0020FF
:10114000BD0E0020D30E0020BF0E0020AB0F0020EC
:101150000002004020000800780408000C800020F5
:10116000E00100205204080010B5044602F03CFEE5
:101170000C49A00040188038406B002801D08047FF
:1011800010BDE106C90E012088400749086010BD66
:101190001320E9E71420E7E71520E5E71620E3E749
:1011A0001720E1E7C890002080E200E030B48C4CCA
:1011B0008B498C48603409E043681A780A600268F9
:1011C0005B1C521E43600260002A05D0A28B92076E
:1011D000D20FF1D130BC7047002242604B6802242C
:1011E000A3434B6081680029F4D0826030BC0020AA
:1011F000084710B57B4CA26021606060FFF7D6FF06
:101200006068002805D07649486802229043104360
:10121000486010BDEDE770B57148026873497248C7
:101220000B78C25404780022552C02D00A70027048
:1012300070BD5B1CDBB20B70052BF9D10A70017914
:10124000AA29F5D14178012928D002292CD00429D6
:10125000EED18178C07809020818654C80B22080F0
:10126000642102F041FAC0B201F0DCFD614D64215D
:10127000A871208802F038FA08460A2102F034FAF0
:1012800001F0D0FDE8710A21208802F02DFA08460D
:1012900001F0C8FD287201F09BFD70BD01F03EFA1F
:1012A0000022092154A004E001F04AFA002208219A
:1012B00054A0FFF7AFFF70BD4A4B5A61D960186167
:1012C0004748012142688A430A4342607047F3E776
:1012D00030B4434A93898024A34393810723138125
:1012E0000023938095892543958193809380108076
:1012F00091819089A04390814549A0010860454AA9
:101300001168FF242402A143440021431160404995
:101310008039086040490860324800220376036142
:10132000C3604360036030BC01213C48CFE7CFE796
:101330002B49222008617047294922200861704703
:1013400008B5274901204A695206D20F13D04A69CD
:101350009206D20F0FD000220A610092FF225F3264
:10136000009B5B1C00939342FAD34A69D207D20FC9
:1013700002D022200861002008BDE1E71848A02122
:10138000016141698906C90FFBD041694906C90F4E
:10139000F7D07047F2E7124881680907090F012961
:1013A0001CD0022919D0042916D00C2916D10D4AB7
:1013B000117E012912D141690906C90F0ED0002101
:1013C000D160116183885B085B0083805369002BC7
:1013D00004D00120516118471DE7E7E67047DAE7BE
:1013E000001100501C800020ED900020F2900020A1
:1013F000F49000203F4300206164765F5374617273
:10140000740000006164765F53746F700000000028
:1014100080E100E00CE400E080E200E03E430020D8
:1014200070B5EFF31085012080F31088264802F094
:101430009DF90446002D1DD0012080F31088002C5A
:1014400023D020462038C08B204988421DD1618995
:10145000208902F091F905000ED021461031A389B0
:1014600062892089A847002806D001280DD00228CB
:101470000BD105E00020E0E7204602F083F904E00C
:10148000114821460C3002F083F9EFF3108401205B
:1014900080F310880C480068002802D1012002F077
:1014A0007DF9002C03D0012080F3108870BD00204E
:1014B000FAE710B5BC21064802F076F9054901208B
:1014C00002F078F910BD0000A8050800388300007C
:1014D0000406080021140020F8B50D4606468100D8
:1014E0002B48EA884458521C20686B89018F294F89
:1014F00051430091014640314A89C989511A8AB243
:10150000991A89B2B94214D29A4212D0294602F0ED
:1015100057F92D892049009802F0E6F82818801C18
:101520004034E0823002401C80B2042102F04EF9C7
:10153000F8BD2821304602F04FF9F8BDF8B5054650
:10154000870013480C46C059C9880068114E0246EE
:1015500040325389D2899A1A92B28B1A9BB2B34203
:1015600011D20B4E8A420ED002F03CF9F0590522FE
:101570005F30611C02F0F4F82802401C80B20521A3
:1015800002F024F9F8BD2821284602F025F9F8BD1B
:101590004C030800FF7F00001027000070B51646BE
:1015A0000D46104602F024F9002869D0340A30466E
:1015B00002F01EF9012812D0A87A1E2811D029465F
:1015C0000A310E2845D019DC801E030002F016F9FE
:1015D0000B255829582D58315839583D58000220AC
:1015E00070BD3146274802F00FF90021204602F075
:1015F00011F90221304602F0E9F841E018283CD008
:1016000006DC102819D012282BD0162838D130E04B
:10161000522822D0D22833D127E0204602F000F908
:101620002EE0204602F002F92AE0204602F004F9FA
:1016300026E0204602F006F922E0204602F008F9F2
:101640001EE0204602F00AF91AE0204602F00CF9EA
:1016500016E0204602F00EF912E0204602F010F9E2
:101660000EE0204602F012F90AE0204602F014F9DA
:1016700006E0204602F016F902E0204602F018F9D2
:10168000002070BD01280000F3B581B001980C4620
:101690000102CA1D0E310223344802F00FF9047012
:1016A00001990546022732488E00002C06D0042CF2
:1016B00016D0062C10D0072C3FD108E08159052206
:1016C0004968897C114069708059C77335E00846C4
:1016D00002F0FAF8687030E080590F21C1732CE0F5
:1016E000044680594068417C012902D1007E0128CE
:1016F0000FD0019802F0EEF801210028A0590BD07C
:101700004268D07D00281CD001281AD004280DD0B2
:101710000FE0002068700DE04068C27D022A01D011
:10172000042A06D1007C02280BD102E0107C02289A
:1017300007D06F70A1590320C873284602F0D0F873
:10174000FEBD6970F6E701460A780120042A01D936
:10175000002070474A78002A01D0012AF8D10A797E
:10176000082AF5D849790829F2D87047021C0000E8
:1017700028050800FFB589B00D4600206946059090
:1017800008720B98000A009002F0A4F807460B9824
:1017900002F02EF800287DD00B982978000A8400EA
:1017A000764E01295ED0042904D0062943D00729AA
:1017B00063D120E0687800281BD03059102240689F
:1017C000A91C01F0CDFF002F06D03159C87B03289A
:1017D00007D0042808D050E03059C07B032803D03C
:1017E0004BE00B20C87348E00521009802F07EF81A
:1017F00043E00120B6E03059C07B0E283DD100986F
:1018000002F062F8002103E02A18401C9170C0B277
:101810001028F9D3688A69460883294606A8082251
:101820001431023001F09CFF06ABAA1C3946009827
:1018300002F062F821E03059C07B0F281DD1AA1CAC
:101840000A21009802F05EF8002F04D03946009873
:1018500002F05EF811E000231A463946009802F0C3
:101860005DF80AE0012F08D10B9801F0C1FF0128B3
:101870001CD0002801D0022005906846007A00287C
:1018800011D002AA0521009802F03CF86846027ABD
:10189000602000E007E002436846027201233946F7
:1018A000009802F03BF805980DB0F0BD3059C07BB0
:1018B0000228E2D16878002851D002210B9801F06B
:1018C00085FF305907224068A91C173001F048FFF6
:1018D000E878002804D130594068407C01283AD08B
:1018E000009802F021F8002837D0297A009802F0F9
:1018F00021F8002833D0009802F022F80121009846
:1019000002F024F800282CD030594068417E00298C
:101910002BD0042929D0C17E027D1140C1763059D7
:101920004068017F427D114001776846007A0028B7
:10193000A7D13059022142680098173201F0E2FF26
:10194000305941684031897B002913D00421009827
:10195000FFF79AFE91E7022004E0062002E008204B
:1019600000E00320694608728BE70021C1763059F8
:101970004068D9E70B21C1737FE700002805080004
:1019800070B50446007800250D2801D00A2200E039
:1019900002225A494B7A002B06D00D2804D0637CD2
:1019A000032B01D0432551E0097A8A4339D10D2810
:1019B00009D00E2802D00F2803D134E0607C032820
:1019C00004D3402542E0607C0328FAD8A07C042898
:1019D000F7D20A2908D0607C012822D0022820D022
:1019E0006078032809D811E001F0B6FF012806D17C
:1019F0006078032803D0002801D0492526E001F0B3
:101A0000ABFF002802D160780228F6D83020035DB1
:101A100022462046E17C3132143000F019F80546A8
:101A200014E0422512E001F097FF012807D1607809
:101A3000052804D1A01D01F095FF0028DDD001F09C
:101A40008BFF002802D160780228D6D8284670BDC6
:101A5000FFB5002086B001216A4611700446059149
:101A60000021002C06D0089D099A1F239A4234D9E0
:101A7000402032E01C23069D079AF7E76B185E783A
:101A8000330001F0BBFE1D261010101010101010B6
:101A90001026262626262626262626262626101028
:101AA000101010102600059B03E06F46FF5CB74244
:101AB00004D05B1E5BB2002BF7DA03E0002B01DBE6
:101AC0004A2006E0059B6F46FE54059B5B1CDBB27B
:101AD00005936B5C491C5918C9B2914201D2002888
:101AE000CCD0914202D04A200AB0F0BD641CE4B2CE
:101AF000022CF9D20028B3D0F6E7000098050800C0
:101B0000F8B50C46954916460968012500270222BA
:101B10008B1C312873D012DC0C2874D008DC01280F
:101B200021D0022840D007284FD00B2869D156E099
:101B300010287FD0112876D01228F7D18EE001230B
:101B4000412871D008DC32286FD035286ED0362875
:101B50006DD04028EAD1B3E0422869D0432868D04C
:101B60004428E3D1D1E006227D497E4801F000FF00
:101B7000002808D006227B49304601F0F1FD0620FE
:101B800020700020F8BD754801680878C00738D07B
:101B90002078062801D22770C4E00622304698310A
:101BA00001F0DEFD06200EE00A786C48920728D589
:101BB00022783E2AEFD305464A7E30465A3101F05C
:101BC000CFFD2868407E2070A9E00878400718D52E
:101BD00020780228DFD3887C3070587C7AE00A783D
:101BE0005E4812070DD52278202AD4D30546CA7D37
:101BF00030461A3101F0B4FD2868C07DE3E736E0D5
:101C000001E079E016E00A785448D20674D52278CB
:101C1000202AC0D305460A7E3046983101F0A0FD47
:101C20002868007ECFE70FE056E02AE036E03DE08E
:101C30005AE062E00878800672D520780428AAD39A
:101C400004223046091D25E00878400668D5207832
:101C5000002867D0087D08E0227060E00878000660
:101C60005ED5207800285DD0487D3070F4E7088884
:101C7000C00555D5207804288DD3042230460C3178
:101C800008E0088880054BD52078042883D30422F7
:101C90003046083101F064FD042094E708884005CF
:101CA0003ED5207800283DD0887D36E008880005A4
:101CB00036D5207802288DD3087C3070487C09E026
:101CC0000888C0042CD5207802288ED38231087F62
:101CD0003070487F7070BFE70888800420D5207876
:101CE00000281FD0A03117E00888400418D52078BC
:101CF000002817D0A1310FE012E0088800040FD5AA
:101D0000207800280ED0A23106E00868C00307D56D
:101D10002078002806D0A331087830702370002581
:101D20002846F8BD0425FBE770B50F480F49C405E8
:101D3000228880252A4322800D4A53891B0701D41B
:101D4000401EFAD20B4A012010600622054801F01D
:101D500007FD2088A843208070BD0000C006080051
:101D6000383E030038800020A0860100D47F0400A4
:101D70002000005000800040F0B5564D85B0002690
:101D8000686D37460190FEF702FE0021524C002894
:101D900002D12079022800D10191504802685048B0
:101DA000002A0FD10278002A0DD04E4B0122DA63AF
:101DB000DA6B002AFCD101229207D2691923DB01D8
:101DC0009A420ED3017001F0D9FD00287ED0E07850
:101DD000012600287AD005200007808AC00701D09C
:101DE000042673E001F056FC00286FD13E480068DD
:101DF0003F2804D12079002801D1286D0190A178D5
:101E000001A801F0C1FD002860D0A17801A801F06F
:101E100053FC00285AD0344800683F2803D101F011
:101E2000B9FD002852D02D480068AA281DD097205F
:101E300007210125AD07EA6B920A92027F1C3A4303
:101E4000EA63EA6B294B80021A400243EA63E86BBB
:101E5000C002C00A49050843E86320480426006818
:101E6000002807D0AA280FD01DE02148FEF7ADFFBB
:101E70000321DEE701986421C00201F035FC2179DD
:101E8000401E0CE001210CE0019801F041FB1949D2
:101E9000096801F0B6FA01F042FB009021790029AF
:101EA000F0D101F07DFD1448C06A8047286B000422
:101EB000C00FFBD011480168C905FCD501F076FDC3
:101EC000052000070189802291430181304605B039
:101ED000F0BD000060020020C60608000C80002053
:101EE00000800020C000004060010020FF03E0FFF0
:101EF00001120000188000201C07080000020040AA
:101F000010B50124A407A06BFEF76BFF5F4901F039
:101F1000EBFB27221201511A00D101215C4A5060CB
:101F20001160206B082188430843206310BD38B539
:101F300000200090574908200880052424072188A4
:101F4000302001432180218803221143218002E0B7
:101F500000BF00BF00BFA18A0906F9D561898908C1
:101F6000890061814C494A88520852004A80218880
:101F7000814321802088800880002080A08A40073B
:101F800001D5FEF7DCFD2089802108432081208ACD
:101F9000042188432082A08A8007FCD53F48410560
:101FA0000268D20202D40A69520702D4009A002AB7
:101FB000F6D038BD10B501F0FFFC01F003FD10BDF7
:101FC00010B501F005FD05200007418A80229143EC
:101FD0004182304801894908490001813048006840
:101FE0003F2801D101F0FAFC012080078169042219
:101FF0001143816101F0F8FC01F0FCFC01F000FDEF
:1020000028480068AA2802D11420FEF741FE26497C
:102010000020087010BD10B501F0F8FC10BD10B51F
:1020200001208007008A000704D501F0F5FC1E4955
:102030000320087010BD70B51C480088850617483D
:10204000AD0E446816488030006F0078002802D139
:10205000284601F0E7FC16480089134EC00507D555
:1020600020060BD5E00709D0284601F0E1FC03E08B
:10207000200603D5E00701D002203070200403D5EC
:10208000E00501D50120307070BD00007102000034
:10209000400000400033005020000050000200408B
:1020A000600100200C8000203E80002000200050B5
:1020B000002C005010B51221244801F0BFFC244927
:1020C0001C2001F0C1FC00211C2001F07FFB10BD91
:1020D00030B503460120002103241A46CA40D20726
:1020E00004D04D0022466D1CAA401043491CC9B2C1
:1020F0000929F2D330BD02460020122901D98D20D2
:102100007047062A06D0072A07D0082AF8D10729DF
:10211000F5D170470829F2D170470629EFD37047EF
:1021200070B50A4C0546218802231C22094801F09B
:10213000C5FB058001F0D4FBE088002101F08AFC9A
:1021400001211C2001F042FB70BD000040800020F6
:102150005841002004700000FEB53B4E1C207080EA
:102160001D46174634460888FFF7B2FF02903748ED
:10217000334601900833132202A90097A01D01F0F5
:102180006FFC040008D1F088002101F063FC0446D4
:1021900001211C2001F01AFB01231C2229462C4896
:1021A00001F08CFB047001F09BFB0020FEBD70B5BC
:1021B0000C4625490B802078082814D8CA88083195
:1021C000415C51188DB2822D0BD06178FFF793FFDF
:1021D000010009D16D1C6178A8B2A21C01F046FC77
:1021E00008E0822100E08121194B17485B1CDA1CB2
:1021F00000F030F8002070BD70B51D460C46088810
:1022000001F03AFC104AFF281071158009D0A1781E
:10221000D08801F01FFC02211C2001F0D7FA002019
:1022200070BD0B4B89219B1C9A1C074800F012F8CB
:10223000F5E710B5044A180A1279904202D10888CD
:10224000FFF76EFF002010BD4080002044400020BA
:1022500001700000F8B514460F461E460546428838
:1022600001880623204601F029FB0446287901F065
:1022700009FC208027716680204601F031FBF8BD03
:1022800070B51446428800790D460102042328489F
:102290000C3101F013FB002D01D0132100E01221BD
:1022A0000170448001F01CFB70BD0A880270120AA4
:1022B00042708A788270CA78C2700A7902714A794B
:1022C0004271897981710720704742780378120240
:1022D0001A430A8082788A70C278CA7002790A71B9
:1022E00042794A71807988710720704710B5FFF7ED
:1022F000E1FE00F01FF810BD70B5064615460C460D
:102300001C2001F075FA022805D1E2B21C232946EF
:10231000304601F0BDFB402001F06AFA022805D1E9
:10232000E2B240232946304601F0B2FB70BD000006
:102330000D30000010B50A21314801F07FFB314912
:10234000402001F081FB0021402001F03FFA10BD48
:1023500070B52B4D0646298804234022022001F047
:10236000ADFA0446287901F08DFB20803078A0700A
:10237000204601F0B5FA70BD70B5214D064629889A
:1023800004234022032001F099FA0446287901F041
:1023900079FB208009223146A01C01F0E1F920469A
:1023A00001F09EFA70BD7CB5154C0021E08801F06B
:1023B00051FB218802234022012001F07FFA0546CB
:1023C000E08801AA801C80B2694601F067FB207991
:1023D00001F058FB2880284601F082FA01214020B4
:1023E00001F0F4F97CBD10B50446054801230188CD
:1023F0004022072001F062FA047001F071FA10BD6A
:1024000054800020D8410020FFB589B00521C902C1
:1024100068468182C91C018298490183984C4021F9
:102420006180022142250091042200230195402170
:10243000A01D01F039FB05005ED1A01D012500950E
:102440000190E08805AB0222102101F033FBE08807
:102450008C4A102101F00AFB03AF01970095E08838
:1024600004AB0222132101F025FB02AE09200196E4
:102470000090E088844B1022012101F01BFB83496E
:102480006846007A48706846407A88700A4668460E
:102490001321808901F0EAFA01970095E08804ABE6
:1024A0000222132101F006FB794801960090E08892
:1024B000784B1022092101F0FDFA77496846007A2D
:1024C00048706846407A88700A46684613218089B9
:1024D00001F0CCFA0920019600900222E08806ABB8
:1024E000114601F0E7FA0546E088002101F0B2FA52
:1024F0000121402001F06AF90123402205200C99B6
:1025000001F0DCF9057001F0EBF900200DB0F0BD31
:1025100038B50D4601206946594C0880238028882B
:1025200001F0AAFA2071FF2816D0A978E08801F0FE
:1025300091FAE088EA1C801C80B2012101F096FA31
:10254000E0882A1D001D80B2092101F08FFA687B06
:102550002072002807D009E000230822892148487A
:10256000FFF778FE0DE0002069460880E0886A46A3
:10257000401D80B2022101F079FA0221402001F0D1
:1025800025F9002038BD70B53D4D0C46287901F085
:1025900079FA2188884211D1E888A21C001D80B2F6
:1025A000092101F063FA287AC0070AD0E8880021DF
:1025B000001D82B22846FFF763FE02E08120FFF78C
:1025C00012FF002070BDF8B52D4C180A0D46237976
:1025D0000021802298423DD1E38828889E1CB04289
:1025E00000D101215E1DB04200D102212F460837E3
:1025F0001B1D984211D0012904D003290DD00229B6
:1026000016D027E03A46012101F030FAE879002897
:102610001FD03846FFF7B0FE1BE03A46012101F01B
:1026200025FAE879002814D03846FFF791FE10E02B
:102630006B7A297A1E020E4301D0012E0AD13A4646
:10264000022101F013FA207A012E09D0400840003F
:10265000207200222988207901F032FA0020F8BD8A
:1026600001210843F4E710B50549180A09798842A1
:1026700001D1FFF798FE002010BD000002290000E4
:1026800054800020A8410020B841002018430020B9
:1026900009020000C84100202B43002010B50C2186
:1026A000454801F0CBF944480121C170017100F0A7
:1026B00015FA4249322001F0C7F90021322001F019
:1026C00085F800F0B1F810BD10B500F09AFA10BD11
:1026D00010B53948022380783222010238480E3181
:1026E00001F0ECF8012101701321417001F0F8F8BC
:1026F00010BD10B5044630482C23807832220102E8
:102700002F480E31801E01F0D9F8014620300472A6
:1027100000224272084601F0E3F810BD10B55023C4
:1027200032220D21274801F0C9F8044600F015FABD
:10273000204601F0D5F80221322001F047F810BD03
:10274000204810B5012332220D210B3801F0B6F8D4
:102750000221017001F0C4F810BD10B500F06BFA51
:1027600010BD194B10B59A4201D91A4602E0002A51
:1027700000D1012201F0AAF910BDF8B506461148B2
:1027800015460F46252332220D21C01C01F096F874
:102790000446012020772046062239461D3000F0ED
:1027A000DFFF2320065565822582204600F066FA69
:1027B000204601F095F8F8BD6080002030420020EE
:1027C000043800000E3400003075000010B501F030
:1027D00083F9254901F086F92448081810BDF8B599
:1027E000234D0646A876002401F076F92919641CC9
:1027F000E4B20874082CF7D300241027381BB04229
:1028000001DD002007E001F067F9C117090E091882
:10281000090A0902401A2855641CE4B2102CEDD3B1
:1028200001F05AF92883F8BD10B52421104801F0B1
:1028300005F900F054F910BD10B50E480223807858
:10284000322201020C480E3101F038F80D210170DE
:10285000074920318978417001F042F80321322084
:1028600000F0B4FF10BD0000A0BB0D00A086010069
:102870006C800020608000201A38000010B50846E7
:1028800009781C460B0000F0B9FF0805202020083D
:10289000181B1E2000F0F5F917E04178012904D03B
:1028A000002902D0022903D00FE000F003FA0CE067
:1028B0001146204600F049FA07E000F019FA04E05A
:1028C00000F017FA01E000F015FA002010BD10B575
:1028D0000878304C801E030000F090FF02021418AC
:1028E0008878A070C0070AD02B492A4A4879203A34
:1028F000D07628480622001F891D00F031FF00F025
:102900001FFA03E0FFF7E4FE0020A070002010BDD6
:10291000F8B518460D4601461223204800F0CEFFB8
:102920000446284600F00DFA0027002821D0194E51
:10293000B078C0071DD030460822A91C103801F01D
:1029400017F8002815D130462038018B2A8891428B
:102950000FD101212170807E607431461022203910
:10296000601C00F0FDFEB078FFF7C3FE00F0ECF94C
:1029700000E02770204600F0B3FF2078002801D146
:10298000FFF7A6FE0020F8BD10B500F0DCF900202E
:1029900010BD00008C8000206080002018380000EE
:1029A00010B5104600F024FF002809D1012332227F
:1029B0000D21484800F082FF0121017000F090FFD6
:1029C000002010BD70B5087815460F282DD008DC02
:1029D00001280DD002282CD003281CD00E2830D17D
:1029E0001FE0102825D0112823D0122829D123E058
:1029F0004878002825D13748222332220D21801C17
:102A000000F05CFF04460146284600F015F9204618
:102A100000F066FF15E04878002812D100F020F998
:102A20000FE0487800F026F90BE0487800F023F931
:102A300007E000F022F904E04878442801D100F0D2
:102A40001FF9002070BD70B51C4610460D4600F001
:102A5000CFFE022805D12049200A8870284600F0C0
:102A60005EF8002070BD70B5087815460C460A283F
:102A700010D1104600F0BCFE04280BD1607800286D
:102A800002D000F0F5F805E00521284600F09EFE92
:102A900000F0EFF8002070BD10B5104600F0A3F86C
:102AA000002010BD10B510460C4600F0A1FE012814
:102AB00008D12078002805D1FFF706FE002801D0B4
:102AC00000F0DAF8002010BD10B5084600F0D7F885
:102AD000002010BD02340000608000207047E248F2
:102AE00000218170704710B50E2332224021002052
:102AF00000F0E4FE0446DD48DD4900882080012026
:102B0000A070DB4809224078E0700831E01C00F03A
:102B100027FE00206073204600F0E2FE10BD70B575
:102B2000D24C0546A078FF2816D0208800F086FBFE
:102B3000FFF7D9FF0521322000F048FE28882080C9
:102B4000687A6071294606220A31A01D00F008FE4D
:102B5000C5488078FFF7CDFD70BDF0B5044695B04F
:102B60000E20207000256570C248A081E0810720FA
:102B700020740120607426461F21203631742046BF
:102B8000E57414302A46BCA1029000F0E9FD20460D
:102B900035742A46BAA1313000F0E2FDE67C1A20F5
:102BA000801B45B2002D1CDD0D273A46B5A103A8B8
:102BB00000F09EFF0D2D00D93D46EDB20299681C34
:102BC0007054E27C2046092115301154E17C401CF0
:102BD00008182A4603A900F0C3FDE07CAD1C40198B
:102BE000E07415B0F0BD10B500F002FE10BD10B5D8
:102BF000012332224021042000F060FE00F070FE2C
:102C000010BD70B500249A4903208870974DE8786C
:102C100003280DD2012802D0022805D102E000F0DD
:102C200000FB01E0FFF7E3FFE878401CE87000E0FC
:102C30000124204670BD7047032008700A204870A8
:102C400000204882087548751722CA8208220A8324
:102C500010224A8388836422CA8320310870704717
:102C600010B50121322000F0B1FDFFF72DFD10BDA0
:102C7000704770477047704770477047704770479C
:102C8000704710B579481E238078322201028148AE
:102C90000E3100F013FE012101704170C17010224D
:102CA000427103228270017100220272C17100F030
:102CB00017FE10BD1FB578A30FCB6C460FC46B4831
:102CC0001E2380783222010272480E3100F0F6FD98
:102CD00004466748102244606946A01C00F040FD8D
:102CE0000420207001206070204600F0F9FD1FBD17
:102CF0007047704770B505461E2332220E21654885
:102D000000F0DCFD04466878FFF769FD07202070BD
:102D10005549012060702039887E2077088B6082B9
:102D2000204608221031143000F01AFD4E491022BE
:102D30002039A01C00F014FD204600F0D1FD70BD2C
:102D4000704701207047704770477047704710B553
:102D500010460C4600F04CFD012809D13222012317
:102D60001146900200F0AAFD2178017000F0B8FD34
:102D7000002010BD002070473D4A88784A495070B5
:102D80000870002070473A4810B509220830891CA5
:102D900000F0E6FC3648444908300078087000200E
:102DA00010BD10B532490878401C0870C0070AD021
:102DB0000021012001F086F8002205213BA0FEF74A
:102DC00029FA002010BD0021012001F059F8F3E795
:102DD00010B50C2332224021062000F06FFD32494D
:102DE00004460922491C801C00F0BAFC1F480088D8
:102DF0002080204600F074FD10BD10B501242D4840
:102E000024050460002206212BA0FEF703FA00220D
:102E100001212548FEF75BFA2948046025488038DF
:102E2000046010BD092801D8303004E001460A3999
:102E3000052902D83730C0B27047FF2070470146DD
:102E40003039092901D8C8B27047014641390529EE
:102E500001D8373804E001466139052902D85738CE
:102E6000C0B27047FF2070478C8000206080002037
:102E7000DC9000204C040000070103180000000053
:102E800002FF0000444131343538302054454D5064
:102E90004C0000001438000000010203040506077E
:102EA00008090A0B0C0D0E0F3E43002048656C6CA0
:102EB0006F00000080E100E077616B6575700000D5
:102EC00080E200E010B5040003D02068002802D0A2
:102ED00002E0002010BD00BE00F010FE204600F011
:102EE0000DFE012010BDFFB581B0029900260A9F9A
:102EF0001D461C46102902D9002005B0F0BD00284F
:102F000001DA01264042029900F0EEFB0A2901DABB
:102F1000303107E0039A002A01D0412200E061220B
:102F200051180A392170641C0028ECDC601B302128
:102F300002E02170401C641CB842FAD3002E02D07B
:102F40002D202070641C00202070601B002144088C
:102F500007E0421A5219203A6B5CD67F6E54D37741
:102F6000491C8C42F5D8C8E770B50446256804981A
:102F7000691A511A4D1E854200D22846002106E0EA
:102F800026685D5C357025686D1C491C2560814292
:102F9000F6D3216800200870104670BDFFB589B0D7
:102FA000064607900020089013780F46541C079897
:102FB000801B401CB84261D2252B05D03A463146D1
:102FC00007A800F0FFF855E025780021641C302D9B
:102FD00009D12078641C002850D03038092800D846
:102FE000C1B22578641C6C2D01D0682D02D10895E2
:102FF0002578641C692D21D008DC002D3ED0582D89
:1030000024D0632D40D0642D06D117E0732D40D01D
:10301000752D1BD0782D19D02520009071A33A462C
:10302000314607A8FFF7A0FF2B463A46314607A8CE
:1030300000F0C8F8022075A3009016E00C9A01CAAF
:103040000C920022009101AB0A210AE00C9A752D26
:1030500001CA0C92F5D00091582D13D0002201AB7B
:103060001021FFF740FF01AB00903A46314607A818
:10307000FFF77AFF2378641C002B98D107980DB0D6
:10308000801BF0BD0122EAE70C980378001D0C902C
:1030900094E70C9820C80C90284600F08BF82B463B
:1030A0000090E2E710B55A4A00201168002904D0C8
:1030B00008464968116000214160FFF703FFFEF7F1
:1030C00069F95348001F4068002809D00468204669
:1030D00000F070F801464F4A2046FEF79BF810BDFD
:1030E000FDF71CFC10BD0FB470B54B48C0B00078A4
:1030F000002805D0002040B070BC08BC04B01847C0
:10310000FF2145AB68460131449AFFF747FF002590
:10311000684600F04FF8461C0321082000F0F4FC3C
:1031200004002BD00321304600F0EEFC2060002884
:103130000FD06946656000F05BF9EFF31081012064
:1031400080F31088324A0123121F5068002804D0EF
:1031500004E0204600F0D2FC10E013702C4A002856
:1031600002D1146005E010464268002AFBD1446099
:103170006560002904D0012080F310880120BAE79F
:103180000020F9E7014625A0ADE710B5204C241F2B
:10319000207800280DD0FDF7E3FB6068006800F0A0
:1031A00009F8014660681B4A0068FEF733F8002002
:1031B000207010BD0146002000E0401C0A5C002A7F
:1031C000FBD1704710B50468611A491C914201D3C4
:1031D000002010BD23700168491C016000200870A8
:1031E000012010BD464154414C3A20756E737570F4
:1031F000706F72746564207072696E7466206368A3
:10320000617261637465723A200000002E0A00004A
:1032100098800020A5300020C40608002573000017
:10322000704710B51C2102233222880200F046FBB1
:10323000FF217C31018000F053FB10BD10B5044626
:10324000042332221C21054800F038FB04800121B0
:1032500081700021C17000F043FB10BD03700000BD
:10326000FEB510460D4600F0C3FA01287ED128783D
:1032700000287CD10626092332221C214D4800F06B
:103280001DFB044600202070667032464AA1A01C37
:1032900000F066FA204600F023FB0B270E233222B3
:1032A0001C21444800F00AFB0126067004464770C2
:1032B0003A4643A1801C00F053FA204600F010FB70
:1032C00008270B2332221C213A4800F0F7FA044663
:1032D0000620207067703A463CA1A01C00F040FA1E
:1032E000204600F0FDFA09270C2332221C21314828
:1032F00000F0E4FA04460320207067703A4636A1D5
:10330000A01C00F02DFA204600F0EAFA0B270E234D
:1033100032221C21274800F0D1FA044605202070F3
:1033200067703A462FA1A01C00F01AFA204600F060
:10333000D7FA09270C2332221C211E4800F0BEFABE
:1033400004460420207067703A4623A1A01C00F0B8
:1033500007FA204600F0C4FA0A2332221C2115483D
:1033600000F0ACFA04460820207001E01DE012E0F5
:1033700007206070A670D221684601800B21C90128
:1033800041803102818006226946E01C00F0E8F9A4
:10339000204600F0A5FA322201231146900200F0E7
:1033A0008DFA2978017000F09BFA0020FEBD002004
:1033B00070470000027000005072616E757300006B
:1033C00048656C6C6F20576F726C6400123456FF46
:1033D000FE9ABCDE00000000765F332E302E362EC3
:1033E00030000000765F332E35302E312E3534001C
:1033F00003460A780270401C491C002AF9D118467D
:103400007047024670B54A40D30FDB0740002DD00D
:103410004A002AD0010E140E000212020919400AB5
:10342000520A8418E50104465443000A120A2E0485
:103430005043A4194219200CC543AA18120C0125A7
:10344000AD03521C521912047F39240400D0521CBF
:10345000104301D44000491EC2B20C06C009201816
:10346000401C4008802A02D003E0002070BD4008C4
:103470004000002900DA0020184370BD70B50246F4
:103480004A40D50F40004A00ED0740085208002886
:1034900014D0002A12D0C40DD30D41020120C00562
:1034A0005202490A520AE41A091812187D3491424C
:1034B00001D3641C00E04900002C01DA002070BD3B
:1034C0000023914201D3891A034340084900002890
:1034D000F7D100290AD0914202D10121C90705E0A4
:1034E000914201D2012101E00121C943E005C01848
:1034F000401900F058F870BD420005D04200120E8D
:1035000052428A4201DB00207047C9050818704703
:1035100010B500229623114600F04DF810BD410071
:1035200040020122400AD205090E80187F2901DAE3
:1035300000207047962903DC9622511AC840704734
:10354000963988407047C20FD207400040080BD020
:10355000C10D0723DB01C91840020905400A1143C8
:10356000C208400711437047002001467047CB0F47
:10357000DB07490010B5490802460A4307D00A0D87
:1035800007240903E401090B121B002A01DC0020B7
:1035900010BDC900440F0C43C100E018D2058018CB
:1035A00000F001F810BD002904DA401C490001D1E7
:1035B00040084000704770B40024050C05D1102469
:1035C000000402D1002921D01124050E01D10002EE
:1035D0000834050F01D10001241D850F01D18000A1
:1035E000A41C002801DB4000641C002908D0202511
:1035F0002E1B0D46F540A14000D001212943084370
:1036000001061B1B000ADB1D02D5002070BC7047A1
:10361000DB05181880180029F8DA401C4900F5D19C
:1036200070BC400840007047064C0125064E05E07E
:10363000E36807CC2B430C3C98471034B442F7D3D3
:10364000FCF702FFE84200201843002003B40148C1
:10365000019001BD551B020003B40148019001BD5A
:103660000F3B030003B40148019001BDCF2B0300C1
:1036700003B40148019001BDCB2C030003B4014801
:10368000019001BD0990020003B40148019001BD01
:103690001F21020003B40148019001BDC12D0300A8
:1036A00003B40148019001BD0921030003B401489E
:1036B000019001BDC92D030003B40148019001BD73
:1036C0002B69020003B40148019001BDEB310300F6
:1036D00003B40148019001BD3D32030003B4014829
:1036E000019001BDD721030003B40148019001BD41
:1036F000A73A030003B40148019001BD913B0300C8
:1037000003B40148019001BD2F2F030003B4014809
:10371000019001BD998F020003B40148019001BDE1
:10372000938F020003B40148019001BDCD8C0200CB
:1037300003B40148019001BD418F020003B4014868
:10374000019001BD2768020003B40148019001BD4A
:103750003968020003B40148019001BDB78002003E
:1037600003B40148019001BD213B030003B40148AB
:10377000019001BDBF22020003B40148019001BDC8
:10378000EB26030003B40148019001BD352403007A
:1037900003B40148019001BD2F22020003B4014887
:1037A000019001BDDD20030003B40148019001BD7B
:1037B000533B030003B40148019001BD9D20030069
:1037C00003B40148019001BD3350020003B4014825
:1037D000019001BD3126030003B40148019001BDF1
:1037E0005548020003B40148019001BD1F5002007A
:1037F00003B40148019001BDB326030003B401489E
:10380000019001BDFD3D030003B40148019001BDDD
:10381000A528030003B40148019001BDD5AF020003
:1038200003B40148019001BDA1A5020003B4014801
:10383000019001BDE3A5020003B40148019001BD60
:1038400087A8020003B40148019001BDA7A90200A6
:1038500003B40148019001BD93AA020003B40148DA
:10386000019001BD95AB020003B40148019001BD78
:10387000F9AB020003B40148019001BD69AC02003C
:1038800003B40148019001BD17AD020003B4014823
:10389000019001BD77AD020003B40148019001BD64
:1038A000F1AD020003B40148019001BD85AE0200F4
:1038B00003B40148019001BD11AF020003B40148F7
:1038C000019001BDB123030003B40148019001BD83
:1038D00049E5020003B40148019001BDF9E302008B
:1038E00003B40148019001BDE123030003B4014882
:1038F000019001BD4BCD020003B40148019001BD10
:1039000099D1020003B40148019001BDABD002007F
:1039100003B40148019001BD69D0020003B401481D
:10392000019001BD77CF020003B40148019001BDB1
:1039300001CC020003B40148019001BD29CC020072
:1039400003B40148019001BD15D2020003B401483F
:10395000019001BD8DD2020003B40148019001BD68
:103960007F0C030003B40148019001BDAB0C0300C0
:1039700003B40148019001BD773B030003B4014843
:10398000019001BD7920030003B40148019001BDFD
:103990002129030003B40148019001BDD990020020
:1039A00003B40148019001BDC768020003B4014897
:1039B000019001BD0D2C030003B40148019001BD2D
:1039C0001531030003B40148019001BD1B660200DC
:1039D00003B40148019001BD652C030003B4014804
:1039E000019001BDF793020003B40148019001BDAD
:1039F000DB2E030003B40148019001BD231D02002A
:103A000003B40148019001BDC32C030003B4014875
:103A1000019001BD3B66020003B40148019001BD65
:103A20002B66020003B40148019001BD038D020022
:103A300003B40148019001BDCF8F020003B40148D7
:103A4000019001BD533B030003B40148019001BD47
:103A50008725030003B40148019001BD7B9C02004F
:103A600003B40148019001BD459F020003B4014821
:103A7000019001BD6D9B020003B40148019001BD9E
:103A8000B7E3020003B40148019001BDE3E3020083
:103A900003B40148019001BD95E3020003B401485D
:103AA000019001BDA59B020003B40148019001BD36
:103AB0009598020003B40148019001BD9599020058
:103AC00003B40148019001BDF3AF020003B4014803
:103AD000019001BD2528030003B40148019001BDF8
:103AE000FD3A030003B40148019001BDD33A03003D
:103AF00003B40148019001BD213B030003B4014818
:103B0000019001BDD722030003B40148019001BD1B
:103B10001522030003B40148019001BD8D3D03004F
:103B2000FFB581B00C4605460A461F46012000211C
:103B30000A9EFFF7EFFF2A01FFF7ECFF0C4B1A6814
:103B40005B6810401940084300D100BE002E21469A
:103B5000284602D000F094F901E000F0B3F93B46AA
:103B600021462846039A00F0CFF905B0F0BD0000C9
:103B700020900020FFB514460D4606460A4681B047
:103B800001200021FFF7C6FF3201FFF7C3FF8C4B76
:103B90001A685B6810401940084300D100BE89488C
:103BA00000680090884880892346133BFF22013239
:103BB0009A400B999043002901D0012700E000278B
:103BC000D10701D0002138E0910701D5012134E06F
:103BD000510701D5022130E0110701D503212CE066
:103BE000D10601D5042128E0910601D5052124E064
:103BF000510601D5062120E0110601D507211CE060
:103C0000D10501D5082118E0910501D5092114E05D
:103C1000510501D50A2110E0110501D50B210CE059
:103C2000D10401D50C2108E0910401D50D2104E057
:103C3000510401D50E2100E00F218F406249384325
:103C4000888188890B9F80098001384388810F8A89
:103C50009743D00701D0002038E0900701D501201C
:103C600034E0500701D5022030E0100701D50320D1
:103C70002CE0D00601D5042028E0900601D50520CF
:103C800024E0500601D5062020E0100601D50720CB
:103C90001CE0D00501D5082018E0900501D50920C9
:103CA00014E0500501D50A2010E0100501D50B20C5
:103CB0000CE0D00401D50C2008E0900401D50D20C3
:103CC00004E0500401D50E2000E00F200A9A824043
:103CD00017430F820F8A0122104698408743C3077B
:103CE00001D0002038E0830701D5012034E04307EC
:103CF00001D5022030E0030701D503202CE0C306E4
:103D000001D5042028E0830601D5052024E04306E0
:103D100001D5062020E0030601D507201CE0C305DD
:103D200001D5082018E0830501D5092014E04305DA
:103D300001D50A2010E0030501D50B200CE0C304D7
:103D400001D50C2008E0830401D50D2004E04004D7
:103D500001D50E2000E00F20049B83401F430F82FB
:103D60001948610040380818418B6B4689099B5DF2
:103D700089015B1919434183A007C30EFF219940B4
:103D800080209840002C0BDA23071B0F083B9D086E
:103D90000E4BAD00ED18EB698B430343EB6107E07D
:103DA000A5080B4BAD00ED182B688B4303432B602C
:103DB000E006C00E82400748026005B0F0BD00007A
:103DC00020900020D84200200014005000ED00E0B8
:103DD00000E400E000E100E0024A80008018803842
:103DE00041637047C890002010B5244CE38901223C
:103DF0001146133881408B43C80701D0002038E0BA
:103E0000880701D5012034E0480701D5022030E0C1
:103E1000080701D503202CE0C80601D5042028E0BE
:103E2000880601D5052024E0480601D5062020E0BB
:103E3000080601D507201CE0C80501D5082018E0B8
:103E4000880501D5092014E0480501D50A2010E0B5
:103E5000080501D50B200CE0C80401D50C2008E0B2
:103E6000880401D50D2004E0480401D50E2000E0AF
:103E70000F2082401343E38110BD00000014005066
:103E800070B504460D460A4601200021FFF742FEA8
:103E90002201FFF73FFE094A13685268184011409B
:103EA000084300D100BE032C00D104240449600162
:103EB00040180121A940418070BD000020900020E1
:103EC0000030005070B504460D460A46012000211E
:103ED000FFF720FE2201FFF71DFE094A1368526812
:103EE00018401140084300D100BE032C00D1042427
:103EF0000449600140180121A940818070BD000083
:103F00002090002000300050F8B5164604460D46BB
:103F10000A461F4601200021FFF7FCFD2201FFF7A2
:103F2000F9FD094B1A685B6810401940084300D13D
:103F300000BE032C00D1042404496001401869002C
:103F400008183E43C680F8BD209000200030005085
:103F5000FEB50020214E034628220021424392193B
:103F60008C00491C13510A29FADB401C0428F3DB9E
:103F7000FCF77AFD194800220838026042601546B5
:103F8000002417486900475A0120A04080B2074228
:103F90001CD0282068438019A1004058411C19D02A
:103FA000002810D0C1172246FFF7B4FD2A01FFF701
:103FB000B1FD0A4B083B1A685B681043074A194376
:103FC000083A10605160641C0A2CDDDB6D1C042D66
:103FD000D6DBFEBD0095019400BEE3E728900020EB
:103FE0003A40002002E008C8121F08C1002AFAD196
:103FF00070477047002001E001C1121F002AFBD169
:1040000070470000710500209D15002089160020D2
:104010004717002075170020D91400203D150020F7
:10402000811900200101000A04280A040203AA00E1
:1040300055032A00A001FFFF2C01FF003F00FF03F2
:10404000FF010000002801000200020028410020BA
:1040500003280100050005002A410020292A01004B
:104060001200000000000000032801000500050008
:104070002F410020242A010012000000000000004F
:10408000032801000500050034410020252A010015
:1040900012000000000000000328010005000500D8
:1040A00039410020272A0100120000000000000012
:1040B00003280100050005003E410020262A0100DA
:1040C00012000000000000000328010005000500A8
:1040D00043410020282A01001200000000000000D7
:1040E000032801000500050048410020232A0100A3
:1040F0000800000000000000032801000500050082
:104100004D4100202A2A010012000000000000009A
:10411000032801000500050052410020502A01003B
:1041200007000000000000000A18020000292A020F
:104130000100242A020200252A020300272A020481
:1041400000262A020500282A020600232A02070068
:104150002A2A020800502A0088410020A04100209D
:10416000528000200300010000700000592100204F
:1041700002700000AF21002003700000F921002030
:1041800003380000332200206841002001000000B5
:10419000704100200200000000000000000000004C
:1041A0008041002001000000000102030405060711
:1041B00008090A0B0C0D0E0F101112131415161707
:1041C00018191A1B1C1D1E1F2021222324252627F7
:1041D00028292A2B2C2D2E2F104200202842002087
:1041E0005E8000200300010004000000092400207C
:1041F00000000000112500200E300000C72500201F
:1042000006000000872500200338000067260020F4
:10421000E841002001000000F04100200100000002
:10422000F8410020020000000842002001000000C8
:1042300000000000D0420020908000200600010015
:1042400001340000A129002000340000C52900200D
:1042500000380000672A002001380000472A0020AB
:1042600003380000992A002000C80000A52A002079
:1042700010340000C92A0020133800007D280020D7
:1042800015380000CF280020173800001129002021
:1042900019380000892900200170000061320020D7
:1042A00004700000AF330020050000004F2D0020F7
:1042B00002000000792D002001000000752D002073
:1042C00001C80000A32D002003000000872D00205E
:1042D000404200201200000001090F1930C64503BA
:1042E000B473390300000000484300200080002020
:1042F0009C000000F43F0020484300202090002054
:10430000D8000000F43F002068070800202A0800B9
:10431000E0050000F43F00200A0000101112131401
:1043200015161718191A1B1C1D1E1F1A0000202114
:1043300022232425262728292A2B2C2D2E2F645092
:084340004D322E353A00000059
:040000052000044192
:00000001FF
