:020000042000DA
:1000000000980020A9040020B1040020C9040020A9
:1000100000000000000000000000000000000000E0
:10002000000000000000000000000000E1040020CB
:100030000000000000000000F9040020FB04002084
:100040006B1D0020053103000D310300F11D002060
:10005000FD1D00208D310300531E00205B1E00207B
:10006000FD04002047120020731E0020AD31030064
:1000700057810200FD0400204B1B02004B1B0200B5
:100080004B1B0200FD0400204B1B0200111200203C
:1000900015120020191200201D120020211200202C
:020000042000DA
:100160003F000000850600202F100020E72A002015
:10017000000000000000000063800200BD8002005B
:10018000770E0020FB8002001981020035810200F9
:100190005D8102003D1D00206B060020270E00201F
:1001A0003F0E002000000000000000003F000000A3
:1001B000F487002000080000540E0800B00700007B
:1001C000480A08000004000010160800E0120000B1
:1001D000000000002000000048000000580000005F
:1001E000240800006800000098000000C80000001B
:1001F000CE000000202A00008E2E00000600000025
:1002000088130000B9100020E9600200FD9302008D
:10021000F712002019280300A574020045190020D8
:1002200003000000D5200200F32A00200400000093
:10023000D74902000F490200831D020063910200AA
:10024000B7910200BF910200078202007182020092
:1002500014350020AD830200938402004185020022
:1002600015860200378602005F860200758602004E
:10027000F9870200258902005D8A0200D38C020002
:10028000098D02000F900200438D0200278E0200AC
:10029000F98E0200478F0200990D0020D58F0200D1
:1002A00049510200775102002F5202001000000055
:1002B00020030000803E000000000000000000005D
:020000042000DA
:1002C000504600030003983A6400F401B80B000C98
:1002D000B80B120030003000CD009A01120024004B
:1002E00030006400B0001800280012001200D0078F
:1002F0000000FFFF00000000000000000000000000
:100300001F000002444131343538302D30310000B7
:1003100000000000000000000000000000000000DD
:0403200000000000D9
:020000042000DA
:10034000FFFF010000C201000000000000000000EB
:100350000000F4010100011B0A071AFFD200021578
:10036000585CDE931B0142CC9A1325009BEDC65EC0
:1003700000000000C5000000000009FF00605257A7
:100380002D424C450000000000000000000000006D
:100390000000000000000000000044413134353806
:1003A00078000000000000000000000000000000D5
:1003B000000000000000000000000000000000003D
:1003C000000000000000000000000000000000002D
:1003D0000000000000000000010000CAEA80D00711
:0403E000064064323D
:020000042000DA
:100440000348854602F0C0FC00480047C720020070
:100450000098002010B5114906200880FF2010499F
:10046000013008600F4988683E2290432E30886032
:100470000021052000070180028A0F231B021A4376
:1004800002820122D204032308461B038418216040
:10049000001D9842FADB62B610BD00000034005027
:1004A00080E100E0003300501548804715480047C0
:1004B00004207146084203D0EFF30980124908472F
:1004C000EFF308801049084704207146084203D022
:1004D000EFF309800D490847EFF308800B490847FF
:1004E00004207146084203D0EFF309800849084709
:1004F000EFF3088006490847FEE7FEE7FEE7000045
:100500005504002041040020650A00201505002044
:10051000F305002005221207518A802319435182D6
:10052000114903680B6043684B6083688B60C36844
:10053000CB6003690B6143694B6183698B61C0695F
:10054000C8610A48836A0B62C36A4B62036B8B62A1
:10055000C36BCB62436B0B63806B4863908A8006EE
:1005600001D500BE7047FEE70018080000ED00E06E
:1005700070B505460C46103C3F2002F037FC0028C1
:100580000FD0CD488068322806D9CC498D4201D0A1
:100590003C2801D9002070BD2146C74802F02CFC40
:1005A00006E0204602F02EFC01213F2002F030FC44
:1005B000012070BD10B5C2490B780A1D002005E06E
:1005C000C400145D3F2C04D0401CC0B29842F7D345
:1005D00010BDC000BB4A4018826010BD0289088966
:1005E000B949101A80B2884201D901207047002011
:1005F000704781692039897F082904D2B34A89006C
:10060000515881617047FEE7B248B1490161B24972
:100610004161B2498161B249C161B2490162B249E5
:100620004162B2498162B249C162B2490163B249D1
:100630004163B2498163B249C163B049A5485C31A5
:1006400040300160AF494160AF498160AF49C1604E
:100650000120AF49C0060860AE49CA691202120AF9
:10066000CA61AB4980390860704710B5AA490020BB
:10067000086000F07DFB01208007016B49004908FC
:10068000016310BD08B5A5490120A54E08700825D5
:10069000358002F0C3FB02F0C7FE00F096FAA148D5
:1006A00001780170A04801780170A04801780170BC
:1006B000012002F0B9FB6C010D202146800102F0FF
:1006C000B9FB01F053FA00F01BFC00F0A1FA042082
:1006D00000F0EAF8072000F0E7F80A2000F0E4F85C
:1006E000062000F0E1F80B2000F0DEF8012000F019
:1006F000DBF8022000F0D8F8002000F0D5F88C4894
:10070000006802F09DFBFFF755FFA005016821433B
:10071000016000F02CF987480068AA2805D1142050
:1007200000F0E4FA142000F0EFFAFFF79EFFA22099
:1007300005242407E082804F7888E0218843A03098
:100740007880012002F082FB02F086FB022803D0B1
:1007500002F082FB012807D13580A08A8006FCD4F4
:10076000618A80208143618204262089000621D588
:1007700001208007006B00041CD402F073FBC0074B
:1007800018D1042002F074FB054602F077FB002D1F
:1007900010D00020009067480068AA2802D11420D9
:1007A00000F0B2FA0421684602F06EFB002801D086
:1007B00000F000FB00F04FFB0028D6D072B601F02D
:1007C000FDF90546042806D0022D0BD0032D09D0D3
:1007D000012862D066E059480078012801D003253D
:1007E00000E00225208A304320825548C069012854
:1007F00010D9032D19D102F04DFB002815D002F0BD
:100800004FFB002811D0032002F050FB00280CD031
:10081000022007E0032D08D1032002F047FB002847
:1008200003D001204749087000E0022539480169DA
:1008300031430161618A202291436182218A02222F
:1008400011432182618A022D20D0314361827F22AF
:100850002388920180210B43238000235B1CDBB2A1
:100860000A2BFBD3638A10252B436382364B521E1F
:100870005A6122888A4322807988FF22013291437B
:10088000798030BF0169B14301610BE0314361827E
:10089000618A102291436182EEE700F0DCFA0028C1
:1008A00000D030BF62B660E7C106C90E01208840A3
:1008B00026490860704700008004080010340000DA
:1008C000040608005C36002030750000F434002077
:1008D000942703000084004062B600DF28A30200D2
:1008E000704701DF1CCA0200F8BD02DF40CB0200E6
:1008F000F5E703DF84D4020004DF89B0BC330200D3
:10090000F8BD05DFF8BD06DFEC0C030070BD07DFA6
:1009100080E100E000ED00E08C030800FC28080006
:100920000033005000000800202A080024080800B6
:1009300004900020082908002000005054020800FC
:10094000E0010020C40608000080004080E200E0D2
:10095000704700003E480178002902D08021417094
:1009600070473C49002008703B49C87070473848C0
:100970000178002902D0812141707047354901205A
:1009800008703549C870704731480178002902D095
:100990008221417070472F49022008702E490120A2
:1009A000C87070472A488178002904D0491E09067A
:1009B000090E817017D142780021002A04D09207D5
:1009C000920F0270417004E00278002A01D0521E9A
:1009D00002701206120E017005D0012A02D0022AFE
:1009E00001D1D1E7C3E7704710B5194CA078401C7E
:1009F000A0702078002805D102F02EFA421CFFF7E3
:100A0000A9FF227010BD12490120C870704710491B
:100A10000020C87070470E48C07870470020EFF380
:100A20001081012282F31088052212071289120612
:100A300005D40A48028901231A4302811846002975
:100A400000D0012181F31088704705480078704775
:100A5000FD28080054020800C606080000330050B4
:100A60001F29080005221207118A04231943118245
:100A7000118A0223194311821189402319431181DC
:100A8000174B01211960174B08211980518A8023C7
:100A900019435182144903680B6143684B618368B1
:100AA0008B61C368CB6103690B6243694B628369E5
:100AB0008B62C069C8620D48836A0B63C36A4B636B
:100AC000036B8B63C36BCB63436B074940310B6094
:100AD000806B4860908A800601D500BE7047FEE7B3
:100AE00080E200E0003300504018080000ED00E014
:100AF00070B5434800220169D243002901D0114654
:100B000000E00121CB170C0F1B0123430C010161F5
:100B10003C490D684E682C4333430C604B6043697D
:100B2000002B01D0144600E00124E317E50E5B0121
:100B30002B4344610D6864014E682C4333430C60C1
:100B40004B60C368002B01D0144600E00124E3177A
:100B5000650FDB002B43C4600D68E4004E682C4336
:100B600033430C604B608368002B00D1012282600C
:100B7000D017930F800018430C6892004B682243F3
:100B800018430A60486070BD38B5002403252D0263
:100B900002232A4604212046009402F067FB00222B
:100BA000012305211046009402F060FB14232A461D
:100BB00003210020009402F059FB0022132302219C
:100BC0001046009402F052FB38BD10B505242407EE
:100BD000208A022188432082A08A0007FCD5A088B1
:100BE00080210843A0800321092002F065F9FFF766
:100BF0000BFDFFF7C9FF608A20210843608210BD0A
:100C00007007080068070800AC490020486070477A
:100C100070B50521090708893022904308810889A9
:100C2000802210430881088980088000401C0881C8
:100C30000889082318430881A148048814430480C4
:100C40004C8A9C434C820D89402425430D810D8A9A
:100C50000426B5430D828D8AAD07FCD5974E00253D
:100C6000756005880126354305804589AE05954D9B
:100C7000068801D52E4300E0AE430680058878261D
:100C8000B5432835058005880626354305804D8AFD
:100C90001D434D820388934303800A89A2430A813E
:100CA0004089800503D58649052060318880012070
:100CB00080070168821591430160834801683F22E3
:100CC00052029143421489180160016802031143E2
:100CD000016070BD03217D480902818108224280A4
:100CE0000021491C9629FCD38280704778494880AE
:100CF00008880322104308800888042210430880D3
:100D00006E490120087070477CB56C4C2178002931
:100D10002DD06F490A885207FCD4CA88009289886E
:100D200001911104019A891800916A494843009978
:100D300002F0C8F80090002020700098A060009891
:100D400001F0B5FF05462946634801F066FF0A2118
:100D500001F0A1FF01F0B2FFE060284601F0C2FF00
:100D60005E4A5F4B02F0B4F801F0D0FF20617CBD19
:100D700010B552484168AA2905D07C205949081865
:100D800002F0ACF810BDC06819210903884200D9EF
:100D900000BEFF20EB30F1E770B5494C6088C0061B
:100DA000050F02F0A1F861881E2291436A001143E9
:100DB000618070BD10B54C490120C863C86B002824
:100DC000FCD101208007C16948480268914201D2E4
:100DD0000022026019238A1ADB019A4212D30160B1
:100DE00002F088F8424A1188884201D9411A00E08D
:100DF000091A89B2182905D31080012002F080F861
:100E000002F084F810BD08B52C4989684843394977
:100E100002F058F8009008BD08B52849C968484351
:100E2000800A009008BD08B524494968002903D00C
:100E3000FFF7E9FF009008BD02F06EF8FAE708B589
:100E40001E494968002903D0FFF7E6FF009008BD5E
:100E500002F068F8FAE710B53F2001F0C7FF00285C
:100E600005D125488078002803D0032801D0002030
:100E700010BD012010BD08B5204901204A69520665
:100E8000D20F13D04A699206D20F0FD000220A6106
:100E90000092FF225F32009B5B1C00939342FAD3C7
:100EA0004969C907C90F02D002F042F8002008BD05
:100EB00040183721C0000901401870470429080074
:100EC00020000050001000000002004020300050C0
:100ED000001600500024F400002474497B14AE472F
:100EE000E17A443F01120000C00000407C04080089
:100EF0007804080040420F00A004080000100050D1
:100F000030B58D4A8D49D005048880231C43048068
:100F10008B4C65892D0701D4521EFAD2894C0122CF
:100F20002260894C0A882280884A49881180018879
:100F30009943018030BD002070477047704770476B
:100F40000020704701218907086B072210430863BE
:100F50007047704710B57F497D4808607E494C2036
:100F600008807D4B7D4A203B1A827E497C48488020
:100F70007E487D4901807C4919314180222141818F
:100F80008121890001827A4941827A490183784925
:100F90001131418375497848203188804121774853
:100FA000090181807649C180754C1034C481018269
:100FB0004182891C8182611FC182FF2146310183E8
:100FC000704941837049592008806F486F4C203028
:100FD0000480432444806E4C4C82D5218180FF21C3
:100FE000D33101816B4941816B4981816C496B48E7
:100FF000088059486B4960384180C18810242143DA
:10100000C18062490A390181534C6749403C618083
:101010005A82082141814D485B4900884039088245
:10102000494862490088088010BD4008704700B5F3
:101030008BB05F4A42625F4A82625F4A42615F4AA6
:10104000C2625F4A02605F4A02625F4A42605F4A70
:10105000C261404A3E48002110603E484038026B61
:1010600003129A430263426B1F231B049A43032318
:101070001B04D218426356480268C3129A430260A6
:10108000026803139A43026068464154491CC9B27E
:101090002829FAD3014628224E4801F04FFFFFF7D6
:1010A00059FF01F027FF4C490880002001F028FF7C
:1010B00001F02CFF0BB000BD10B5264A0F212448CB
:1010C0000902106023484038426B1F231B049A43D7
:1010D00003231B04D218426300060268D208D20020
:1010E000026005200007028992089200521C0281CA
:1010F000028908231A430281028A0A43028237487E
:101100000068002808D10E484189890504D5018866
:101110007822914308310180FFF71CFF3048006FAF
:101120000078002804D02F4800880B496039C88017
:10113000012001F08BFE10BDA0860100087F040095
:101140002000005000800040560208004A030800BA
:101150004C05540780000040602C00507F7F000049
:10116000AC290000002200500909000000240050B2
:101170002204000030D00000EE11000000250050D5
:101180002E02000044200000402800500D95000071
:1011900002420000E4DC00001092000053780000DE
:1011A000002A00508B1000009DD500000026005042
:1011B000370F00203B0F0020410F0020450F00207B
:1011C0003D0F0020530F00203F0F00202B10002068
:1011D00000020040200008007804080008290800E8
:1011E000E00100205204080010B5044602F068F83F
:1011F0000C49A00040188038406B002801D080477F
:1012000010BDE106C90E012088400749086010BDE5
:101210001320E9E71420E7E71520E5E71620E3E7C8
:101220001720E1E71008080080E200E00B48007892
:10123000002802D00020C043704701200849400226
:101240000860002070470520000701883022914384
:1012500001800188890889000180704718290800E9
:1012600080E100E070B5EFF31085012080F3108875
:10127000264801F069FE0446002D1DD0012080F3B0
:101280001088002C23D020462038C08B204988426B
:101290001DD16189208901F05DFE05000ED0214637
:1012A0001031A38962892089A847002806D0012827
:1012B0000DD002280BD105E00020E0E7204601F028
:1012C0004FFE04E0114821460C3001F095FDEFF38C
:1012D0001084012080F310880C480068002802D197
:1012E000012001F043FE002C03D0012080F3108880
:1012F00070BD0020FAE710B5BC21064801F03CFEA5
:101300000549012001F03EFE10BD0000A8050800BF
:10131000388300000406080065120020F8B50D4669
:10132000064681002B48EA884458521C20686B8985
:10133000018F294F51430091014640314A89C989A3
:10134000511A8AB2991A89B2B94214D29A4212D069
:10135000294601F01DFE2D892049009801F0B2FDBB
:101360002818801C4034E0823002401C80B20421E6
:1013700001F04EFDF8BD2821304601F00FFEF8BD0A
:10138000F8B50546870013480C46C059C98800685F
:10139000114E024640325389D2899A1A92B28B1A60
:1013A0009BB2B34211D20B4E8A420ED001F0FCFD2B
:1013B000F05905225F30611C01F0C0FD2802401C7D
:1013C00080B2052101F024FDF8BD2821284601F056
:1013D000E5FDF8BD4C030800FF7F0000102700006A
:1013E00070B516460D46104601F000FD002869D084
:1013F000340A304601F0FAFC012812D0A87A1E28DF
:1014000011D029460A310E2845D019DC801E030070
:1014100001F0D0FD0B255829582D58315839583D29
:101420005800022070BD3146274801F0C9FD002157
:10143000204601F0CBFD0221304601F0E9FC41E0FD
:1014400018283CD006DC102819D012282BD01628DA
:1014500038D130E0522822D0D22833D127E020469C
:1014600001F0BAFD2EE0204601F0BCFD2AE0204646
:1014700001F0BEFD26E0204601F0C0FD22E020463E
:1014800001F0C2FD1EE0204601F0C4FD1AE0204636
:1014900001F0C6FD16E0204601F0C8FD12E020462E
:1014A00001F0CAFD0EE0204601F0CCFD0AE0204626
:1014B00001F0CEFD06E0204601F0D0FD02E020461E
:1014C00001F0D2FD002070BD01280000F3B581B00D
:1014D00001980C460102CA1D0E310223344801F066
:1014E000C9FD047001990546022732488E00002C80
:1014F00006D0042C16D0062C10D0072C3FD108E0C3
:10150000815905224968897C114069708059C773E7
:1015100035E0084601F0B4FD687030E080590F21D5
:10152000C1732CE0044680594068417C012902D1F6
:10153000007E01280FD0019801F0A8FD01210028AC
:10154000A0590BD04268D07D00281CD001281AD0A9
:1015500004280DD00FE0002068700DE04068C27DC7
:10156000022A01D0042A06D1007C02280BD102E015
:10157000107C022807D06F70A1590320C873284639
:1015800001F08AFDFEBD6970F6E701460A78012088
:10159000042A01D9002070474A78002A01D0012A84
:1015A000F8D10A79082AF5D849790829F2D870477C
:1015B000021C000028050800FFB589B00D46002078
:1015C0006946059008720B98000A009001F05EFDD4
:1015D00007460B9801F00AFC00287DD00B9829786B
:1015E000000A8400764E01295ED0042904D0062921
:1015F00043D0072963D120E0687800281BD03059F8
:1016000010224068A91C01F099FC002F06D0315926
:10161000C87B032807D0042808D050E03059C07B8D
:10162000032803D04BE00B20C87348E00521009845
:1016300001F038FD43E00120B6E03059C07B0E28B0
:101640003DD1009801F01CFD002103E02A18401C48
:101650009170C0B21028F9D3688A69460883294678
:1016600006A808221431023001F068FC06ABAA1C5F
:101670003946009801F01CFD21E03059C07B0F284D
:101680001DD1AA1C0A21009801F018FD002F04D0DA
:101690003946009801F018FD11E000231A4639463A
:1016A000009801F017FD0AE0012F08D10B9801F016
:1016B0009DFB01281CD0002801D00220059068461F
:1016C000007A002811D002AA0521009801F0F6FC4A
:1016D0006846027A602000E007E002436846027232
:1016E00001233946009801F0F5FC05980DB0F0BDD6
:1016F0003059C07B0228E2D16878002851D00221FD
:101700000B9801F085FB305907224068A91C17305F
:1017100001F014FCE878002804D130594068407C7E
:1017200001283AD0009801F0DBFC002837D0297A54
:10173000009801F0DBFC002833D0009801F0DCFCBD
:101740000121009801F0DEFC00282CD030594068BF
:10175000417E00292BD0042929D0C17E027D114071
:10176000C17630594068017F427D1140017768465B
:10177000007A0028A7D13059022142680098173218
:1017800001F09CFC305941684031897B002913D01D
:1017900004210098FFF79AFE91E7022004E006205A
:1017A00002E0082000E00320694608728BE7002170
:1017B000C17630594068D9E70B21C1737FE700003B
:1017C0002805080070B50446007800250D2801D0D2
:1017D0000A2200E002225A494B7A002B06D00D283B
:1017E00004D0637C032B01D0432551E0097A8A435E
:1017F00039D10D2809D00E2802D00F2803D134E0AA
:10180000607C032804D3402542E0607C0328FAD89A
:10181000A07C0428F7D20A2908D0607C012822D0B5
:10182000022820D06078032809D811E001F070FC6C
:10183000012806D16078032803D0002801D049256B
:1018400026E001F065FC002802D160780228F6D875
:101850003020035D22462046E17C3132143000F016
:1018600019F8054614E0422512E001F051FC012868
:1018700007D16078052804D1A01D01F04FFC002895
:10188000DDD001F045FC002802D160780228D6D8CE
:10189000284670BDFFB5002086B001216A46117050
:1018A000044605910021002C06D0089D099A1F23AB
:1018B0009A4234D9402032E01C23069D079AF7E76C
:1018C0006B185E78330001F075FB1D2610101010A8
:1018D0001010101010262626262626262626262616
:1018E00026261010101010102600059B03E06F46EE
:1018F000FF5CB74204D05B1E5BB2002BF7DA03E05B
:10190000002B01DB4A2006E0059B6F46FE54059B39
:101910005B1CDBB205936B5C491C5918C9B2914240
:1019200001D20028CCD0914202D04A200AB0F0BDAA
:10193000641CE4B2022CF9D20028B3D0F6E7000010
:1019400098050800F8B50C46954916460968012522
:10195000002702228B1C312873D012DC0C2874D093
:1019600008DC012821D0022840D007284FD00B28BE
:1019700069D156E010287FD0112876D01228F7D1EF
:101980008EE00123412871D008DC32286FD0352841
:101990006ED036286DD04028EAD1B3E0422869D015
:1019A000432868D04428E3D1D1E006227D497E480F
:1019B00001F0BAFB002808D006227B49304601F02E
:1019C000BDFA062020700020F8BD7548016808782F
:1019D000C00738D02078062801D22770C4E006223C
:1019E0003046983101F0AAFA06200EE00A786C48D9
:1019F000920728D522783E2AEFD305464A7E304604
:101A00005A3101F09BFA2868407E2070A9E00878DE
:101A1000400718D520780228DFD3887C3070587CA6
:101A20007AE00A785E4812070DD52278202AD4D3AE
:101A30000546CA7D30461A3101F080FA2868C07D1B
:101A4000E3E736E001E079E016E00A785448D20690
:101A500074D52278202AC0D305460A7E30469831B4
:101A600001F06CFA2868007ECFE70FE056E02AE02C
:101A700036E03DE05AE062E00878800672D52078D2
:101A80000428AAD304223046091D25E00878400620
:101A900068D52078002867D0087D08E0227060E0D3
:101AA000087800065ED5207800285DD0487D30702B
:101AB000F4E70888C00555D5207804288DD3042282
:101AC00030460C3108E0088880054BD52078042882
:101AD00083D304223046083101F030FA042094E721
:101AE000088840053ED5207800283DD0887D36E026
:101AF0000888000536D5207802288DD3087C307000
:101B0000487C09E00888C0042CD5207802288ED3B0
:101B10008231087F3070487F7070BFE7088880048A
:101B200020D5207800281FD0A03117E00888400475
:101B300018D52078002817D0A1310FE012E00888CE
:101B400000040FD5207800280ED0A23106E00868E6
:101B5000C00307D52078002806D0A331087830705C
:101B6000237000252846F8BD0425FBE770B50F4813
:101B70000F49C405228880252A4322800D4A5389B3
:101B80001B0701D4401EFAD20B4A01201060062226
:101B9000054801F0D3F92088A843208070BD0000DB
:101BA000C0060800383E030019290800A08601007D
:101BB000D47F04002000005000800040F0B5544D58
:101BC00085B0686D534C0026019020793746314628
:101BD000022800D10191504802685048002A0FD1D4
:101BE0000278002A0DD04E4A0123D363D36B002B19
:101BF000FCD101229207D2691923DB019A420ED34C
:101C0000017001F097FA00287ED0E07801260028C4
:101C10007AD005200007808AC00701D0042673E02F
:101C200001F020F900286FD13E4800683F2804D118
:101C30002079002801D1286D0190A17801A801F038
:101C40007FFA002860D0A17801A801F01DF90028D2
:101C50005AD0344800683F2803D101F077FA0028B1
:101C600052D02D480068AA281DD0972007210125B1
:101C7000AD07EA6B920A92027F1C3A43EA63EA6B71
:101C8000294B80021A400243EA63E86BC002C00A93
:101C900049050843E863204804260068002807D067
:101CA000AA280FD01DE02148FFF7BDF80321DEE789
:101CB00001986421C00201F005F92179401E0CE071
:101CC00001210CE0019800F0F2FF1949096800F0C9
:101CD00067FF00F0F3FF009021790029F0D101F0B7
:101CE0003BFA1448C06A8047286B0004C00FFBD041
:101CF00011480168C905FCD501F034FA0520000738
:101D00000189802291430181304605B0F0BD000079
:101D100060020020C606080008290800FC28080008
:101D2000C000004060010020FF03E0FF011200003E
:101D3000142908001C0708000002004010B5012407
:101D4000A407A06BFFF77BF85F4901F0BBF82722DF
:101D50001201511A00D101215C4A50601160206BC0
:101D6000082188430843206310BD38B50020009047
:101D70005749082008800524240721883020014382
:101D80002180218803221143218002E000BF00BF8F
:101D900000BFA18A0906F9D5618989088900618196
:101DA0004C494A88520852004A8021888143218048
:101DB0002088800880002080A08A400701D5FEF797
:101DC00004FF2089802108432081208A0421884340
:101DD0002082A08A8007FCD53F4841050268D202D4
:101DE00002D40A69520702D4009A002AF6D038BDFC
:101DF00010B501F0BDF901F0C1F910BD10B501F049
:101E0000C3F905200007418A80229143418230486E
:101E10000189490849000181304800683F2801D103
:101E200001F0B8F901208007816904221143816122
:101E300001F0B6F901F0BAF901F0BEF928480068DE
:101E4000AA2802D11420FEF751FF2649002008706D
:101E500010BD10B501F0B6F910BD10B50120800716
:101E6000008A000704D501F0B3F91E490320087069
:101E700010BD70B51C48008885061748AD0E446833
:101E800016488030006F0078002802D1284601F003
:101E9000A5F916480089134EC00507D520060BD5B5
:101EA000E00709D0284601F09FF903E0200603D59A
:101EB000E00701D002203070200403D5E00501D5F1
:101EC0000120307070BD0000710200004000004031
:101ED000003300502000005000020040600100204C
:101EE000082908001F29080000200050002C00507D
:101EF00008B5002002460090174B1D21174800F03E
:101F00006BFD08BDF8B516460C4607464A88098899
:101F10003E23134801F0AEF80546207901F06AF936
:101F20002880AE70002E0BD0002000900346618800
:101F300001220A4800F078FD284601F0ADF8F8BD0E
:101F400039463A220A31281D00F0F8FF6088022144
:101F500000F05EFFF0E70000343500202029080083
:101F6000017400007CB51E4615460C46088801F039
:101F700047F90146684601714580068044232246A0
:101F800069466E4800F0FCFC02468C2804D0002A0A
:101F900004D06946002013E001207CBD6748294633
:101FA000006800F0BDFC0646A07800280BD0304643
:101FB0003A22211D0A3000F0C1FF00226946304656
:101FC000FFF7A0FF09E05E4C3046214600F029FBF8
:101FD000F4800121284600F01BFF00207CBD10B5D5
:101FE00056480C461146006800F09AFC2188418151
:101FF00061888181417A491C4172002010BD1CB565
:102000004E480C461146006800F08AFC0246083033
:102010000094019090894B4B09210E3200F0EBFBAC
:1020200000201CBD70B514460D46104600F0DEFEC3
:10203000064642482146006800F072FC0446012E24
:1020400002D0022E29D033E06A780A2A03D0002A6F
:1020500001D001460DE0E0883949884215D16089F8
:10206000002804D0607A012807D9842200E0832266
:1020700021460846FFF746FF1AE03348E080214634
:102080000A31204600F001FB12E021462D4A0E31B4
:10209000092000F074FB0246EAE72878082807D1F7
:1020A0006A78002A04D000232849204600F0D1FC99
:1020B000002070BD70B521480D461146006800F043
:1020C0002FFC0446007901F095F82A881F499042B8
:1020D00016D1A87809280CD2062242431219138A75
:1020E000002B06D02072A2896189204600F056FAA2
:1020F00004E000238222204600F0ABFC002070BDEB
:1021000000238122F7E710B50C480C461146006801
:1021100000F006FC234600220C4900F09AFC002047
:1021200010BD1CB50888094900230090891E019341
:10213000024800F0FDFB00201CBD00002029080023
:102140000A18000044350020032800000474000031
:1021500008B5002002460090284B0F21284800F0C7
:102160003BFC08BDF8B517460D4606464A88098867
:102170002223244800F07EFF0446287901F03AF833
:102180002080A770002F0BD00020009003466988A4
:1021900002221B4800F048FC204600F07DFFF8BDFD
:1021A000314620460A2216310E3000F0C7FE314675
:1021B0000A220C31201D00F0C1FE314620460A22C1
:1021C0002031183000F0BAFE6888012100F020FEAE
:1021D000E2E770B50E4604464288018809480423A8
:1021E000801D00F047FF0546207901F003F82880A4
:1021F000AE70284600F050FF70BD0000C0350020D2
:102200002C290800013C00007CB51D4616460C46F2
:10221000088800F0F5FF0146684601714680058098
:102220002A2322466946D84800F0AAFB02468C2899
:1022300004D0002A04D06946002021E001207CBDA2
:10224000D1483146006800F06BFB0546A0780028B5
:1022500019D0214628460A220E31163000F06EFEB3
:1022600028460A22211D0C3000F068FE214628462F
:102270000A221831203000F061FE0022694628460B
:10228000FFF770FF0AE0C14C2846214600F0C9F96B
:10229000EC802C810221304600F0BAFD00207CBD8C
:1022A00070B5B9480D461146006800F039FB044688
:1022B0000020A072207900F09DFF2A88B449904246
:1022C0000FD1638A002B05D0E289A189204600F056
:1022D00065F904E000238222204600F0BAFB0020CA
:1022E00070BD00238122F7E770B5A7480D4611465F
:1022F000006800F015FB04460120A072207900F070
:1023000079FF2A88A24990420FD1E38C002B05D097
:10231000628C218C204600F041F904E000238222E7
:10232000204600F096FB002070BD00238122F7E7D5
:1023300038B595480C461146006800F0F1FA05469C
:10234000007900F057FF2188884207D1E078022801
:1023500004D8A078002803D0012804D081210FE000
:102360000C20698A01E0A98B0D20002907D000907C
:102370000123E21C284600F0D2F9002038BD82215A
:102380002846FFF726FFF8E710B57F480C461146B0
:10239000006800F0C5FAC1887C4A914204D12188C6
:1023A00081816188C18110E0784A521E914204D136
:1023B0002188C1826188018307E0744A521C9142DE
:1023C00006D12188018461884184C17A491CC17287
:1023D000002010BD1CB56C480C461146006800F08A
:1023E0009FFA0189694A914207D101460A31009456
:1023F0000191C489674B8A1D1AE0644A521E9142BA
:1024000009D101460A31634B009401911B1D02461C
:10241000048B1A320CE05D4A521C91420CD10146E9
:102420000A315C4B00940191448C083302462432FB
:102430000121204600F0DFF900201CBDF8B514464C
:102440000D46104600F0D2FC06464F482146006873
:1024500000F066FA0446022E02D0012E64D077E026
:1024600068780A2801D0002872D1484920890027BD
:10247000494E4D1C884215D1E08888420CD1A08974
:10248000002804D0E07A012803D9842247E083227F
:1024900045E021460C3131E0B04259D121463D4A58
:1024A00010311BE02946394D6D1E88421CD1E08851
:1024B00088420DD1208C002802D0214620311DE019
:1024C000E7722946204600F0ACF8E58025813FE020
:1024D000B0423DD12F4A214608322431012000F07C
:1024E0004EF90200ECD01AE0A84231D1E088A842AF
:1024F0000BD1E08A002806D021461631204600F094
:10250000C4F8E68024E0002209E0B04220D1214A4C
:10251000214608322431012000F031F902462146DB
:102520000846FFF71FFE13E02878082808D00C287B
:1025300001D00D280CD169782046FFF74AFE07E04C
:102540006A78002A04D000231149204600F081FA5D
:102550000020F8BD10B50C480C461146006800F08C
:10256000DFF9234600220A4900F073FA002010BD6B
:102570001CB50888064900230090091F01930248F2
:1025800000F0D6F900201CBD2C290800031800001B
:10259000063C0000D03500200328000010B542881A
:1025A00000791C4601020823FE480C3100F062FD50
:1025B000082101700121417000218180C180448087
:1025C00000F06AFD10BD10B50C460988002910D036
:1025D0004288007906230102F2480C31401D00F0C8
:1025E00049FD10210170218841806188818000F0BF
:1025F00053FD10BD10B50C460988002910D0428843
:10260000007906230102E7480C31401D00F032FD3D
:1026100011210170218841806188818000F03CFD9A
:1026200010BD10B5428800790C460102DD48082330
:10263000401F0C3100F01EFD0246032010700120E7
:102640005080801E9080022050709471210AD171B8
:10265000104600F021FD10BD10B5428800790C46EF
:102660000102D0480823401F0C3100F003FD042173
:1026700001702188418061888180022141700021A0
:102680008171C17100F008FD10BD10B5428800795C
:102690000C460102C3480823401F0C3100F0EAFC3D
:1026A000052101702188418061888180022141706B
:1026B00000218171C17100F0EFFC10BD70B50D46B5
:1026C00009886A796B888A18017900240902408890
:1026D0000C31521E5B1C9A4216DB0246B14808239D
:1026E000401F00F0C7FC0146072008706A88521C92
:1026F0004A8028886A798218521E8A80022048708F
:102700008C71CC71084607E00A460146032002237B
:10271000000300F0AFFC447000F0BEFC70BDFFB5DC
:102720000E46194642881D460A3100798BB20102D5
:102730009C4881B0801C0C310A9F00F09BFC00215A
:1027400081800181077046800446C5800120607049
:1027500020462A460A30039900F0F0FB204600F09C
:102760009BFC05B0F0BD1CB56B461A71120A5A717C
:102770000C220092022301AAFFF7D1FF1CBD70B505
:102780000546002003460EE006245C430E5B002E47
:102790000ED09E00B6186418F6782479A64300D0AF
:1027A00085205B1CDBB2AB4201D20028ECD070BDAF
:1027B0009C00A418A478FF2CF3D18320F1E7F0B596
:1027C00005460020044611E066008E5B002E0BD10A
:1027D000A600B618B778FF2F06D1F67806277E43F5
:1027E0009E5B002E00D08320641CE4B2AC4201D278
:1027F0000028E9D0F0BDFFB581B015460F46002492
:102800000A9E26E00498A100425A7179B01D00F09A
:10281000FDFC00281BD02046062231885043295257
:10282000728841194A8032790A712B5C019AD21A56
:10283000521C4A710B990978A14206D006225143D5
:10284000285C6A5C801A491948710B980470641CF2
:10285000E4B2BC42D6D384E7FFB581B01D4616462C
:102860000746002416E0A0008119CA780A998A4216
:102870000ED1325AA978E81C00F0C8FC002807D015
:1028800002996000095A002902D102992A880A5245
:10289000641CE4B2BC42E6D363E7F8B50024054605
:1028A000002815D04048C069884211D928680028FE
:1028B0000ED08F00C659002E0AD0002A01D0304613
:1028C0009047304600F0A8FC29680020C85100E07D
:1028D00081242046F8BD70B58124054600281DD00E
:1028E000314EF069884219D92868002816D0284648
:1028F000FFF7D3FF040011D10146F26904E08B0019
:102900002868491CC058C9B28A4202D90028F6D0AA
:1029100004E0002802D1284600F009F9204670BDE5
:1029200002460020002A02D0080A80001058704792
:10293000FFB581B007461E460D46039800F056FAD3
:10294000B0421CD038680399FFF7EAFF040016D0A4
:10295000628821880423284600F08CFB05460A98EB
:10296000288060880B9A010A3846FFF7B4FFA870E8
:10297000284600F091FB3146039800F049FAF0E652
:10298000F8B50C7915460E460746FF2C21D0708805
:10299000010AA1420ED02102C0B20143328828466A
:1029A00004E0000007300000E001002000F03AFCE5
:1029B0008C250FE01A462146384600F0C2F8050083
:1029C00008D13868A10040580622314600F0B6FA16
:1029D00000E089252846F8BDFFB5074600686F4D21
:1029E00081B00E4600280ED0002406E0214638466D
:1029F0000A9AFFF752FF641CE4B2E869A042F5D8D6
:102A0000384600F094F8F0B2049900F011FC00246C
:102A100006E020023043039900F0FAF9641CE4B2A6
:102A2000E869A042F5D89CE6FFB581B01F4615467F
:102A30000C4608460A9E00F0D9F9A84208D139464A
:102A4000204600F0E5F9210A32460198FFF743FFDE
:102A500087E6FFB581B00746039800251E460C4661
:102A6000002800D1B5887A882846083083B2398892
:102A7000204600F0FFFA0446387900F0BBFB2080C6
:102A80000398A07100206080A580002E06D03088B9
:102A900060802A46B11DE01D00F050FA204600F08B
:102AA000FBFA5EE60A880270120A42708A78827027
:102AB000CA78C2700A7902714A7942718979817142
:102AC000072070474278037812021A430A808278FE
:102AD0008A70C278CA7002790A7142794A71807923
:102AE00088710720704710B5FFF702FAFFF730FB37
:102AF00010BDF7B50402274606460F370D46384687
:102B000000F074F9002805D0EAB23B46304602993D
:102B100000F094FB1D34204600F068F9002805D031
:102B2000EAB223463046029900F088FBFEBD10B59C
:102B300004460068002803D000F06EFB00202060EF
:102B400010BDF7B5054600680024144E0F46002856
:102B50000BD1F0690121800000F076FB286000288D
:102B60000BD0F169890000F007FAF069B84212D978
:102B70002868BF00C059002801D089240CE0012139
:102B8000029800F061FB0600F7D0029900F062FBAA
:102B90002868C65100E081242046FEBDE0010020E7
:102BA000024670B54A40D30FDB0740002DD04A00E3
:102BB0002AD0010E140E000212020919400A520A0C
:102BC0008418E50104465443000A120A2E045043B7
:102BD000A4194219200CC543AA18120C0125AD03F3
:102BE000521C521912047F39240400D0521C104385
:102BF00001D44000491EC2B20C06C0092018401C76
:102C00004008802A02D003E0002070BD4008400048
:102C1000002900DA0020184370BD70B502464A4012
:102C2000D50F40004A00ED0740085208002814D094
:102C3000002A12D0C40DD30D41020120C00552025A
:102C4000490A520AE41A091812187D34914201D334
:102C5000641C00E04900002C01DA002070BD002354
:102C6000914201D3891A0343400849000028F7D153
:102C700000290AD0914202D10121C90705E0914201
:102C800001D2012101E00121C943E005C01840192A
:102C900000F058F870BD420005D04200120E5242BA
:102CA0008A4201DB00207047C9050818704710B53B
:102CB00000229623114600F04DF810BD410040025D
:102CC0000122400AD205090E80187F2901DA00206E
:102CD0007047962903DC9622511AC84070479639EE
:102CE00088407047C20FD207400040080BD0C10D8A
:102CF0000723DB01C91840020905400A1143C20835
:102D0000400711437047002001467047CB0FDB0797
:102D1000490010B5490802460A4307D00A0D0724A6
:102D20000903E401090B121B002A01DC002010BD7D
:102D3000C900440F0C43C100E018D205801800F010
:102D400001F810BD002904DA401C490001D14008F7
:102D50004000704770B40024050C05D11024000415
:102D600002D1002921D01124050E01D1000208341E
:102D7000050F01D10001241D850F01D18000A41C85
:102D8000002801DB4000641C002908D020252E1BF0
:102D90000D46F540A14000D001212943084301061A
:102DA0001B1B000ADB1D02D5002070BC7047DB0531
:102DB000181880180029F8DA401C4900F5D170BCB9
:102DC0004008400070470000064C0125064E05E013
:102DD000E36807CC2B430C3C98471034B442F7D33C
:102DE000FDF732FB443600205436002003B401487E
:102DF000019001BDB326030003B40148019001BD59
:102E00002F22020003B40148019001BD0B91020082
:102E100003B40148019001BD3126030003B4014809
:102E2000019001BD551B020003B40148019001BD92
:102E30000F3B030003B40148019001BDCF2B0300F9
:102E400003B40148019001BDCB2C030003B4014839
:102E5000019001BD0990020003B40148019001BD39
:102E60001F21020003B40148019001BDC12D0300E0
:102E700003B40148019001BD0921030003B40148D6
:102E8000019001BDC92D030003B40148019001BDAB
:102E90002B69020003B40148019001BDEB3103002E
:102EA00003B40148019001BD3D32030003B4014861
:102EB000019001BDD721030003B40148019001BD79
:102EC0005D80020003B40148019001BDA73A0300F0
:102ED00003B40148019001BD913B030003B40148D4
:102EE000019001BD2F2F030003B40148019001BDE3
:102EF000998F020003B40148019001BD938F020035
:102F000003B40148019001BDCD8C020003B4014817
:102F1000019001BD418F020003B40148019001BD41
:102F20002768020003B40148019001BD396802001E
:102F300003B40148019001BDB780020003B4014809
:102F4000019001BD213B030003B40148019001BD84
:102F5000BF22020003B40148019001BDEB2603002B
:102F600003B40148019001BD3524030003B40148B6
:102F7000019001BDDD20030003B40148019001BDB3
:102F8000533B030003B40148019001BD9D200300A1
:102F900003B40148019001BD3350020003B401485D
:102FA000019001BD5548020003B40148019001BDE4
:102FB0001F50020003B40148019001BDFD3D030014
:102FC00003B40148019001BDA528030003B40148E2
:102FD000019001BDD5AF020003B40148019001BDCD
:102FE000A1A5020003B40148019001BDE3A50200C0
:102FF00003B40148019001BD87A8020003B4014851
:10300000019001BDA7A9020003B40148019001BDD0
:1030100093AA020003B40148019001BD95AB0200E0
:1030200003B40148019001BDF9AB020003B40148AB
:10303000019001BD69AC020003B40148019001BDDB
:1030400017AD020003B40148019001BD77AD020045
:1030500003B40148019001BDF1AD020003B4014881
:10306000019001BD85AE020003B40148019001BD8D
:1030700011AF020003B40148019001BDB123030068
:1030800003B40148019001BD49E5020003B40148C1
:10309000019001BDF9E3020003B40148019001BDB4
:1030A000E123030003B40148019001BD4BCD0200B0
:1030B00003B40148019001BD99D1020003B4014855
:1030C000019001BDABD0020003B40148019001BDE5
:1030D00069D0020003B40148019001BD77CF02001E
:1030E00003B40148019001BD01CC020003B40148C2
:1030F000019001BD29CC020003B40148019001BD3B
:1031000015D2020003B40148019001BD8DD2020026
:1031100003B40148019001BD7F0C030003B40148D2
:10312000019001BDAB0C030003B40148019001BD47
:10313000773B030003B40148019001BD79200300EF
:1031400003B40148019001BD2129030003B40148E3
:10315000019001BDD990020003B40148019001BD66
:10316000C768020003B40148019001BD0D2C0300A3
:1031700003B40148019001BD1531030003B40148B7
:10318000019001BD1B66020003B40148019001BD1E
:10319000652C030003B40148019001BDF7930200C0
:1031A00003B40148019001BDDB2E030003B40148C4
:1031B000019001BD231D020003B40148019001BD2F
:1031C000C32C030003B40148019001BD3B6602001B
:1031D00003B40148019001BD2B66020003B401480D
:1031E000019001BD038D020003B40148019001BDAF
:1031F000CF8F020003B40148019001BDE3E3020058
:1032000003B40148019001BDB7E3020003B40148D3
:10321000019001BD1D98020003B40148019001BD59
:10322000D722030003B40148019001BD1B24030011
:1032300003B40148019001BD8725030003B4014890
:10324000019001BD95E3020003B40148019001BD66
:103250001522030003B40148019001BD533B030054
:1032600003B40148019001BD8D3D0300FFB581B05D
:103270000C4605460A461F46012000210A9EFFF71C
:10328000EFFF2A01FFF7ECFF0C4B1A685B68104058
:103290001940084300D100BE002E2146284602D026
:1032A00000F05AF801E000F079F83B462146284644
:1032B000039A00F095F805B0F0BD0000680708001B
:1032C00010B5244CE38901221146133881408B4309
:1032D000C80701D0002038E0880701D5012034E07C
:1032E000480701D5022030E0080701D503202CE073
:1032F000C80601D5042028E0880601D5052024E071
:10330000480601D5062020E0080601D507201CE06C
:10331000C80501D5082018E0880501D5092014E06A
:10332000480501D50A2010E0080501D50B200CE066
:10333000C80401D50C2008E0880401D50D2004E064
:10334000480401D50E2000E00F2082401343E381A2
:1033500010BD00000014005070B504460D460A462A
:1033600001200021FFF77CFF2201FFF779FF094AC6
:103370001368526818401140084300D100BE032C66
:1033800000D104240449600140180121A940418072
:1033900070BD0000680708000030005070B504469A
:1033A0000D460A4601200021FFF75AFF2201FFF7D0
:1033B00057FF094A1368526818401140084300D16A
:1033C00000BE032C00D104240449600140180121EF
:1033D000A940818070BD00006807080000300050DF
:1033E000F8B5164604460D460A461F460120002140
:1033F000FFF736FF2201FFF733FF094B1A685B68BE
:1034000010401940084300D100BE032C00D1042411
:10341000044960014018690008183E43C680F8BDA1
:103420006807080000300050FEB50020214E03461A
:1034300028220021424392198C00491C13510A2969
:10344000FADB401C0428F3DBFDF752FB194800228D
:103450000838026042601546002417486900475A40
:103460000120A04080B207421CD028206843801968
:10347000A1004058411C19D0002810D0C117224685
:10348000FFF7EEFE2A01FFF7EBFE0A4B083B1A6836
:103490005B681043074A1943083A10605160641C86
:1034A0000A2CDDDB6D1C042DD6DBFEBD00950194DE
:1034B00000BEE3E7700708002A35002002E008C8D4
:1034C000121F08C1002AFAD170477047002001E09E
:1034D00001C1121F002AFBD170470000FFFF00004E
:1034E0007105002002FC00007D92020003FC000038
:1034F00089920200DD050020E1130020CD14002098
:103500008B150020B91500201D1300208113002009
:10351000C51700200101000A04280A040203AA00BA
:1035200055032A00A001FFFF2C01FF003F00FF030D
:10353000FF010000A0350020B83500202429080034
:1035400003000600292A0002242A0002252A00027C
:10355000272A0002262A0002282A0002232A000223
:103560002A2A0002502A000203740000B52000201D
:10357000083000000721002003300000DF1F00207A
:1035800005300000FF1F002000740000651F0020B0
:1035900003380000232100200030000025200020F7
:1035A000000000000000000078350020020000004C
:1035B000683500200200000088350020030000006C
:1035C000243600203C360020302908000300060085
:1035D000062AFF0A062AFF04072AFF02033C00000E
:1035E000A1220020043C000031230020053C000003
:1035F000E92200200830000055250020033000009B
:103600008923002005300000D5230020003C000065
:10361000092200200338000071250020003000003E
:103620003D2400200000000000000000DC350020E8
:1036300004000000FC350020020000000C360020D1
:103640000300000068070800202A0800E0050000C9
:10365000CC340020DC340020030000000000000017
:0C36600054360020A40408000200010001
:040000052000044192
:00000001FF
