:020000042000DA
:1000000000980020A9040020B1040020C9040020A9
:1000100000000000000000000000000000000000E0
:10002000000000000000000000000000E1040020CB
:100030000000000000000000F9040020FB04002084
:10004000372A0020053103000D310300B72A0020B4
:10005000C32A00208D310300192B0020212B002002
:10006000FD040020EB120020392B0020AD310300ED
:1000700057810200DB1E00204B1B02004B1B0200BD
:100080004B1B0200FD0400204B1B0200B512002098
:10009000B9120020BD120020C1120020C51200209C
:020000042000DA
:100160003200000019060020D3100020ED2D0020E1
:10017000000000000000000063800200BD8002005B
:100180001F0F0020FB800200198102003581020050
:100190005D810200092A0020FF050020EF0E0020EB
:1001A000070F002000000000000000003F000000DA
:1001B000F48B002000040000740B080048010000CC
:1001C0006807080000040000C80C080020050000B3
:1001D000000000002000000048000000580000005F
:1001E0006800000004010000160100002801000062
:1001F0002E010000202A00008E2E000001000000C9
:10020000881300005D110020E9600200FD930200E8
:10021000BB1F002019280300A57402000926002036
:1002200003000000D5200200FD2D00200400000086
:10023000D74902000F490200831D020063910200AA
:10024000B7910200BF910200078202007182020092
:10025000A8560020AD83020093840200418502006D
:1002600015860200378602005F860200758602004E
:10027000F9870200258902005D8A0200D38C020002
:10028000098D02000F900200438D0200278E0200AC
:10029000F98E0200478F0200610E0020D58F020008
:1002A00049510200775102002F5202001000000055
:1002B00020030000803E000000000000000000005D
:020000042000DA
:1002C000504600030003983A6400F401B80B000C98
:1002D000B80B120030003000CD009A01120024004B
:1002E00030006400B0001800280012001200D0078F
:1002F0000000FFFF00000000000000000000000000
:100300001F000002444131343538302D30310000B7
:1003100000000000000000000000000000000000DD
:0403200000000000D9
:020000042000DA
:10034000FFFF010000C201000000000000000000EB
:100350000000F4010100011B0A071AFFD200021578
:10036000585CDE931B0142CC9A1325009BEDC65EC0
:1003700000000000C5000000000009FF00605257A7
:100380002D424C450000000000000000000000006D
:100390000000000000000000000044413134353806
:1003A00078000000000000000000000000000000D5
:1003B000000000000000000000000000000000003D
:1003C000000000000000000000000000000000002D
:1003D0000000000000000000010000CAEA80D00711
:0403E000064064323D
:020000042000DA
:100440000348854604F030FD00480047C7200200FD
:100450000098002010B5114906200880FF2010499F
:10046000013008600F4988683E2290432E30886032
:100470000021052000070180028A0F231B021A4376
:1004800002820122D204032308461B038418216040
:10049000001D9842FADB62B610BD00000034005027
:1004A00080E100E0003300501548804715480047C0
:1004B00004207146084203D0EFF30980124908472F
:1004C000EFF308801049084704207146084203D022
:1004D000EFF309800D490847EFF308800B490847FF
:1004E00004207146084203D0EFF309800849084709
:1004F000EFF3088006490847FEE7FEE7FEE7000045
:100500005504002041040020F509002015050020B5
:100510008705002005221207518A80231943518242
:10052000114903680B6043684B6083688B60C36844
:10053000CB6003690B6143694B6183698B61C0695F
:10054000C8610A48836A0B62C36A4B62036B8B62A1
:10055000C36BCB62436B0B63806B4863908A8006EE
:1005600001D500BE7047FEE70018080000ED00E06E
:1005700002890889B849101A80B2884201D901203D
:1005800070470020704781692039897F082904D28B
:10059000B24A8900515881617047FEE7B148B049BD
:1005A0000161B1494161B1498161B149C161B1495B
:1005B0000162B1494162B1498162B149C162B14947
:1005C0000163B1494163B1498163B149C163AF4935
:1005D000A4485C3140300160AE494160AE49816061
:1005E000AE49C1600120AE49C0060860AD49CA6984
:1005F0001202120ACA61AA4980390860704710B510
:10060000A9490020086000F017FC01208007016B59
:1006100049004908016310BD1CB5A44901200870B8
:10062000A34EC820308000207080A24F08257D8016
:1006300004F04CFC04F0C8FF00F0EEFA9E4801788C
:1006400001709E4801780170012004F045FC6C01A6
:100650000D202146800104F045FC02F0E9F800F08D
:10066000A1FC00F039FB042000F0EFF8072000F0B7
:10067000ECF80A2000F0E9F8062000F0E6F80B207C
:1006800000F0E3F8012000F0E0F8022000F0DDF8CF
:10069000002000F0DAF88A48006804F029FCA00580
:1006A00001682143016000F02AF986480068AA2801
:1006B00005D1142000F07EFB142000F089FB02F02D
:1006C000E9FFFFF79CFFA22005242407E0827E4873
:1006D0004188E0229143A0314180012004F00EFCCA
:1006E00004F012FC022803D004F00EFC012807D10C
:1006F0003D80A08A8006FCD4618A8020814361828B
:10070000C82030807D80022704252089000622D55C
:1007100001208007006B00041DD404F0FBFBC00720
:1007200019D1042004F0FCFB019004F0FFFB0198B8
:10073000002810D00020019062480068AA2802D149
:10074000142000F045FB042101A804F0F5FB00286B
:1007500001D000F093FB72B602F092F8694608707F
:10076000042806D002280CD003280AD0012867D01C
:1007700067E056480078012802D00320087000E0A6
:100780000F70208A284320825148C06901280878C8
:1007900011D903284BD104F0D5FB002847D004F031
:1007A000D7FB002843D0032004F0D8FB00283ED01C
:1007B0004848077008E0032839D104F0CFFB00282F
:1007C00035D0444901200870364801692943016148
:1007D000618A202291436182218A394321826946BC
:1007E00009780229618A24D0294361827F212288E5
:1007F000890180231A4322800022521CD2B20A2A85
:10080000FBD3628A10231A436282334A491E516124
:1008100021888022914321802B494A88FF2301337C
:100820009A434A8030BF0169A943016109E06846E3
:10083000BFE729436182618A102291436182EBE71D
:1008400030BF62B6C82030805FE7C106C90E012004
:1008500088402249086070473075000088560020A3
:10086000942703000084004062B600DF28A3020042
:10087000704701DF1CCA0200F8BD02DF40CB020056
:10088000F5E703DF84D4020004DF89B0BC33020043
:10089000F8BD05DFF8BD06DFEC0C030070BD07DF17
:1008A00080E100E000ED00E08C0308000080002003
:1008B000003100500033005000000800202A0800DA
:1008C000049000200C8000202000005054020800FA
:1008D000E0010020C40608000080004080E200E043
:1008E000704700003E480178002902D08021417005
:1008F00070473C49002008703B49C8707047384831
:100900000178002902D081214170704735490120CA
:1009100008703549C870704731480178002902D005
:100920008221417070472F49022008702E49012012
:10093000C87070472A488178002904D0491E0906EA
:10094000090E817017D142780021002A04D0920745
:10095000920F0270417004E00278002A01D0521E0A
:1009600002701206120E017005D0012A02D0022A6E
:1009700001D1D1E7C3E7704710B5194CA078401CEE
:10098000A0702078002805D104F0BEFA421CFFF7C1
:10099000A9FF227010BD12490120C870704710498C
:1009A0000020C87070470E48C07870470020EFF3F1
:1009B0001081012282F31088052212071289120683
:1009C00005D40A48028901231A43028118460029E6
:1009D00000D0012181F310887047054800787047E6
:1009E0000180002054020800C606080000330050B1
:1009F0004680002005221207118A04231943118220
:100A0000118A02231943118211894023194311814C
:100A1000174B01211960174B08211980518A802337
:100A200019435182144903680B6143684B61836821
:100A30008B61C368CB6103690B6243694B62836955
:100A40008B62C069C8620D48836A0B63C36A4B63DB
:100A5000036B8B63C36BCB63436B074940310B6004
:100A6000806B4860908A800601D500BE7047FEE723
:100A700080E200E0003300504018080000ED00E084
:100A800070B58C4800220168D243002901D013467A
:100A900000E00123884903600D68DC174E682B4392
:100AA00034430B604C608369002B01D0144600E096
:100AB0000124E317A50E9B012B4384610D68A4015B
:100AC0004E682C4333430C604B604369002B01D0CC
:100AD000144600E00124E317E50E5B012B4344615B
:100AE0000D6864014E682C4333430C604B60C3684F
:100AF000002B01D0144600E00124E317650FDB0052
:100B00002B43C4600D68E4004E682C4333430C60F3
:100B10004B604368002B01D0144600E00124446080
:100B2000E31724190D685B414E682C4333430C6076
:100B30004B608368002B01D0144600E00124E317CA
:100B4000A50F9B002B4384600D68A4004E682C43C6
:100B500033430C604B60836A002B01D0144600E0E5
:100B60000124E317250C1B042B4384620D68240425
:100B70004E682C4333430C604B60C369002B00D19B
:100B80000122C261D017530EC00118430C68D20174
:100B90004B68224318430A60486070BDF8B50326CD
:100BA000012536020823324603210020009504F077
:100BB00009FC00240723324621462046009404F015
:100BC00001FC0623324619460020009404F0FAFB8B
:100BD0000523002219461046009404F0F3FB042379
:100BE000324601210020009404F0ECFB0022032394
:100BF00002211046009404F0E5FB00232A02194666
:100C00000120009404F0DEFB002332460721184641
:100C1000009504F0D7FBF8BD10B505242407208A01
:100C2000022188432082A08A0007FCD523484188FE
:100C3000FF22013211434180FFF7B0FCFFF7AEFF06
:100C400003F030F81E4875214172672181722F210F
:100C5000C1726D210173332141731A48552101700E
:100C600005214170AA21817217480078002804D01C
:100C70000721002004F040FC03E00721002004F0DD
:100C80005DFC0021012004F0C7FB0028F9D0A088FA
:100C900040210843A0800321092001F0C6F80B4839
:100CA000012142688A430A434260608A2021084346
:100CB000608210BD2890002020900020200000506D
:100CC0006E5B0020099100206D5B00200011005038
:100CD000A44900204860704770B5052109070889BC
:100CE00030229043088108898022104308810889B6
:100CF00080088000401C0881088908231843088167
:100D000099480488144304804C8A9C434C820D8982
:100D1000402425430D810D8A0426B5430D828D8A1A
:100D2000AD07FCD58F4E002575600588012635433B
:100D300005804589AE058D4D068801D52E4300E01E
:100D4000AE43068005887826B5432835058005889A
:100D50000626354305804D8A1D434D820388934303
:100D600003800A89A2430A814089800503D57E4910
:100D70000520603188800120800701688215914339
:100D800001607B4801683F22520291434214891856
:100D90000160016802031143016070BD03217548C1
:100DA00009028181082242800021491C9629FCD336
:100DB0008280704770494880088803221043088069
:100DC0000888042210430880664901200870704793
:100DD0007CB5644C217800292DD067490A885207D8
:100DE000FCD4CA880092898801911104019A89185B
:100DF000009162494843009904F0B6F80090002041
:100E000020700098A060009803F0C1FF05462946B5
:100E10005B4803F072FF0A2103F0ADFF03F0BEFF51
:100E2000E060284603F0CEFF564A574B04F0A2F884
:100E300003F0DCFF20617CBD10B54A484168AA2957
:100E400005D07C205149081804F09AF810BDC068FC
:100E500019210903884200D900BEFF20EB30F1E7D9
:100E600070B5414C6088C006050F04F08FF86188AA
:100E70001E2291436A001143618070BD10B5444940
:100E80000120C863C86B0028FCD101208007C1691C
:100E900040480268914201D20022026019238A1A56
:100EA000DB019A4212D3016004F076F83A4A1188C5
:100EB000884201D9411A00E0091A89B2182905D3DC
:100EC0001080012004F06EF804F072F810BD08B52F
:100ED000244989684843314904F046F8009008BD28
:100EE00008B52049C9684843800A009008BD08B584
:100EF0001C494968002903D0FFF7E9FF009008BDAD
:100F000004F05CF8FAE708B516494968002903D0EF
:100F1000FFF7E6FF009008BD04F056F8FAE708B5C1
:100F20001F4901204A695206D20F13D04A6992061E
:100F3000D20F0FD000220A610092FF225F32009B85
:100F40005B1C00939342FAD34969C907C90F02D0C9
:100F500004F040F8002008BD40183721C000090106
:100F6000401870470880002020000050001000004A
:100F70000002004020300050001600500024F40011
:100F8000002474497B14AE47E17A443F011200000B
:100F9000C00000407C0408007804080040420F00B4
:100FA0000010005030B58D4A8D49D005048880234B
:100FB0001C4304808B4C65892D0701D4521EFAD244
:100FC000894C01222260894C0A882280884A4988FB
:100FD000118001889943018030BD0020704770471F
:100FE000704770470020704701218907086B07226E
:100FF000104308637047704710B57F497D4808600B
:101000007E494C2008807D4B7D4A203B1A827E49D8
:101010007C4848807E487D4901807C491931418067
:10102000222141818121890001827A4941827A49C4
:10103000018378491131418375497848203188808E
:1010400041217748090181807649C180754C10346F
:10105000C48101824182891C8182611FC182FF217A
:1010600046310183704941837049592008806F4897
:101070006F4C20300480432444806E4C4C82D52138
:101080008180FF21D33101816B4941816B4981818D
:101090006C496B48088059486B4960384180C18869
:1010A00010242143C18062490A390181534C6749A8
:1010B000403C61805A82082141814D485B4900884B
:1010C00040390882494862490088088010BD4008BC
:1010D000704700B58BB05F4A42625F4A82625F4AE6
:1010E00042615F4AC2625F4A02605F4A02625F4ACF
:1010F00042605F4AC261404A3E48002110603E485B
:101100004038026B03129A430263426B1F231B0495
:101110009A4303231B04D218426356480268C31241
:101120009A430260026803139A430260684641547E
:10113000491CC9B22829FAD3014628224E4803F097
:101140004FFFFFF759FF03F027FF4C4908800020AD
:1011500003F028FF03F02CFF0BB000BD10B5264AAA
:101160000F2124480902106023484038426B1F2396
:101170001B049A4303231B04D2184263000602682F
:10118000D208D2000260052000070289920892006E
:10119000521C0281028908231A430281028A0A43EF
:1011A000028237480068002808D10E484189890525
:1011B00004D501887822914308310180FFF71CFF94
:1011C0003048006F0078002804D02F4800880B4971
:1011D0006039C880012003F091FE10BDA086010097
:1011E000087F0400200000500080004056020800E4
:1011F0004A0308004C05540780000040602C005052
:101200007F7F0000AC290000002200500909000087
:10121000002400502204000030D00000EE11000035
:10122000002500502E0200004420000040280050FD
:101230000D95000002420000E4DC00001092000066
:1012400053780000002A00508B1000009DD500004C
:1012500000260050DB0F0020DF0F0020E50F0020EC
:10126000E90F0020E10F0020F70F0020E30F00201E
:10127000CF10002000020040200008007804080081
:101280000C800020E00100205204080010B5044644
:1012900004F0E6F80C49A00040188038406B0028A4
:1012A00001D0804710BDE106C90E012088400749E2
:1012B000086010BD1320E9E71420E7E71520E5E7F3
:1012C0001620E3E71720E1E7C890002080E200E065
:1012D0003B480078002802D00020C043704701201E
:1012E0003849400208600020704705200007018847
:1012F000302291430180018889088900018080881B
:10130000C0060BD53048012181800188802291439D
:1013100001802B484068002800D000477047F0B596
:1013200005242407A58810263543A580264C0025D2
:101330002581D2B262802A46D7000546FD40EEB232
:1013400055002D196E810E46FE40F6B26E82521C7B
:10135000042AF1DBE28903252D020004800FAA4351
:1013600000020243E281E08A0904890FA8430902CE
:101370000843E0820120A080144A410211609A06CD
:10138000920E80322280124B1A68FF242402A2435C
:10139000840322431A600A4A1378034309481370EE
:1013A00080380160F0BD06480178490849000170A5
:1013B000054801218180018880229143018087E7CF
:1013C0001C80002080E100E00001005080E200E08D
:1013D00008E400E0F94AD1609060704710B5012040
:1013E00000F0ABFA0520000200F0E8FAC0B210BD30
:1013F00070B50024F24DFFF7F1FFC00704D0641C64
:10140000AC42F8D30020C04370BD70B5FFF7F0FFC9
:10141000002817D100F091FA00F03CFA9F2000F06C
:10142000B6FA002000F0B3FA0504002000F0AFFA8D
:1014300004022C43002000F0AAFA2043054600F0E5
:1014400030FA284670BD70B5FFF7DFFFDB4CDD4A90
:10145000002114234B43D5589B185B681D40034063
:101460009D420ED1142308B24B4320809B189D68E7
:10147000A560DB68E360142358438018606048B2BD
:1014800070BD491C89B20329E3D300206060401E6F
:1014900070BD70B5FFF7ACFF002815D100F04DFA14
:1014A000C74E0025062000F089FA0024FFF796FFBA
:1014B000C10703D1800701D5002070BD641CB44270
:1014C000F4D36D1C322DEDD30020C04370BD70B538
:1014D000FFF78EFF002815D100F02FFAB84E002537
:1014E000502000F06BFA0024FFF778FFC10703D10A
:1014F000800701D5002070BD641CB442F4D36D1C7C
:10150000322DEDD30020C04370BD70B5FFF770FFE2
:10151000002811D100F011FAA94E0025042000F096
:101520004DFA0024FFF75AFF800707D0641CB4422D
:10153000F8D36D1C322DF1D30020C04370BD10B51F
:101540000446FFF755FF002808D1012000F0F5F907
:10155000E01DF93000F032FAFFF74AFF10BD70B518
:10156000064696480D4680685119814201D9441BB0
:1015700000E01446FFF73CFF00281AD1022000F0DB
:10158000DCF900F087F9032128460906084300F03A
:10159000FEF9002000F0D1F9002505E0002000F060
:1015A000F6F930706D1C761CA542F7D300F079F97E
:1015B000204670BD70B5054680480E46C06814468A
:1015C000824200D984B2FFF713FF00281ED1FFF733
:1015D00060FF00281AD1022000F0AFF900F05AF99C
:1015E000012130464906084300F0D1F9002000F0FF
:1015F000A4F905E028786D1C00F0C9F9641EA4B2B6
:10160000002CF7D100F04DF9FFF7F2FE70BD70B578
:101610000D460446FFF73DFF002802D00020C043DE
:1016200070BD022000F089F92806204300F0C6F9B9
:10163000FFF7DEFE70BD10B5FFF72BFF002802D0CC
:101640000020C04310BD002000F077F9C72000F053
:10165000B5F9FFF7CDFE40B210BD0020C043704782
:1016600010B5FFF7C5FE002812D1012000F065F982
:1016700000F010F90920000300F089F9002000F0C3
:1016800086F9002000F083F9044600F00AF920B240
:1016900010BD70B5FFF7ACFE002801D0C11770BDBA
:1016A000002000F04AF900F0F5F84B2000F06FF947
:1016B000022000F042F9002000F069F9002000F05B
:1016C00066F900250446284600F061F906462E43D7
:1016D00000F0E7F83046214670BDF7B582B0374FCD
:1016E0000E460091F96814460D46304603F03CFC66
:1016F000401C6843451E002000F01FF9B868801B9D
:10170000A04200D204462646002719E0009880191E
:10171000A84202D900982E1A761C0298B2B2C019BB
:101720000099FFF747FF002803D00020C04305B011
:10173000F0BD681C00902148BF19C0682D18E61B39
:10174000A742E3D33846F2E710B5FFF751FE002871
:1017500005D100F0F2F8B92000F030F9002010BDFA
:1017600010B5002000F0E9F8AB2000F027F90020C8
:1017700010BD70B5114C05466068002806D0FFF713
:1017800088FE002805D00020C04370BD0520C0435E
:1017900070BDFFF723FE6168097C88432940084338
:1017A000FFF7CDFE70BD10B504484068407CFFF7E0
:1017B000E0FF002808D040B210BD0000DC900020FF
:1017C000400D0300C8560020FFF735FFF4E770B561
:1017D00005462F480E46C0681446824200D984B29E
:1017E000FFF706FE00281DD1FFF753FE002819D190
:1017F000022000F0A2F800F04DF801213046490621
:10180000084300F0C4F8002000F097F804E02846F0
:1018100000F0BDF8641EA4B2002CF8D100F041F82D
:10182000FFF7E6FD70BDF7B582B0194F0E46009187
:10183000F96814460D46304603F096FB401C684399
:10184000451E002000F079F8B868801BA04200D245
:1018500004462646002717E000988019A84202D9BE
:1018600000982E1A761CB2B200990298FFF7AFFFCB
:10187000002802D00020C04359E7681C00900448AB
:10188000BF19C0682D18E61BA742E5D338464EE7BE
:10189000DC90002010B54F484178007803F04EFEF0
:1018A00010BD10B54B484178007803F025FE10BDFF
:1018B000F8B50E46154647490278079F0A704078EA
:1018C0001C464870FFF7EDFF0520000781880122C4
:1018D000D2021143818040480188490849000180B3
:1018E0000188FF2281329143F20111430180018876
:1018F00040229143AA0111430180018804229143AF
:10190000A20011430180018802229143069A5200ED
:10191000114301800188012292039143BA031143CC
:101920000180018818229143089AD2001143018056
:101930000188012211430180F8BD27490A88520815
:1019400052000A800A88FF2381339A43C001024370
:101950000A800888012210430880704710B51E488D
:10196000018849084900018005200007818801227B
:10197000D2029143818017484178007803F0BCFD82
:1019800010BD15480188490849000180704710B50D
:10199000114900230A88D205920F012A01D9040CAB
:1019A0008C80488008888004FCD50120C880012AEA
:1019B00001D9888803044888C01810BD10B50446B2
:1019C000FFF768FF2046FFF7E2FF0446FFF769FFD5
:1019D000204610BDEC90002000120050F0B59B4D49
:1019E0002B7005231B079C88202634439C80984C31
:1019F0000023A381964B6126603B1E801E8806272C
:101A0000BE4349000E431E8019881026B1431201BF
:101A1000114319808105890D99800121A181218AB5
:101A20008906FCD46870F0BD8949002088810520B2
:101A300000078188202291438180704770B5844BD4
:101A4000834C834D0822603B81482034203D1A821C
:101A5000018A4907FCD5018A8906FCD42188AE8A0F
:101A6000C907F4D170BD30B50104784C0B0E78492C
:101A700022786039012A02D0022A0ED110E0744A7D
:101A800000259581C5036478ED0F25438D800124E1
:101A90009481148AA406FCD40B82C0B2088230BDA3
:101AA0000202120E0A82F7E710B50446FFF7C6FFDE
:101AB0002046FFF7D8FF6648018A8907FCD5FF2238
:101AC0006349013260390A82028A5207FCD5028BCF
:101AD000002AFCD0088AC0B210BDF0B504461546F5
:101AE0000846FFF7C0FF5A4900226039FF235848D3
:101AF000013304E0068AB607FCD50B82521CAA42C9
:101B0000F8D3EFF31083012282F31088002209E05A
:101B1000068B002EFCD00E8A27683E702668761C45
:101B2000521C2660AA42F3D3002B03D0012080F37D
:101B30001088F0BD0020FAE7F7B50E46002A09D05C
:101B400001204004841B944200D314462546FFF72D
:101B500075FF08E00020FEBD202231466846FFF7F1
:101B6000BCFF203C2036202CF6D2002C04D022468C
:101B700031466846FFF7B1FF2846FEBD30B50C463A
:101B80000546FFF75BFF2846FFF76DFF3048018AE7
:101B90008907FCD52E4960390C82018A4907FCD59A
:101BA000018A8906FCD430BDF0B506468C4608464D
:101BB0000121002549048C4529D2C0B249120C1AD2
:101BC000A24200D21446FFF739FFEFF3108701203D
:101BD00080F310886046FFF746FF1D491C486039B6
:101BE000028A9207FCD532780A82641E6D1CA4B268
:101BF000761CADB2002CF3D1002F0AD0012181F365
:101C00001088018A4907FCD5018A8906FCD4284638
:101C1000F0BD0021F3E7F0B50646012040040D4673
:101C2000814201D30020F0BD401B904200D2024609
:101C30001446002706E0A2B2E919F019FFF7B4FF35
:101C40003F18241A002CF6D13846F0BDEE90002043
:101C50006013005030B4A14CA049A148603409E0A1
:101C600043681A780A6002685B1C521E4360026077
:101C7000002A05D0A28B9207D20FF1D130BC704759
:101C8000002242604B680224A3434B608168002914
:101C9000F4D0826030BC0020084710B5904CA260A0
:101CA00021606060FFF7D6FF6068002805D08B498F
:101CB0004868022290431043486010BDEDE770B5BC
:101CC000864801688848874C0278A154237800210F
:101CD000552B02D00170217070BD521CD2B202701F
:101CE000052AF9D101702079AA28F5D16078012858
:101CF0000AD002280ED0042814D00628ECD10721DF
:101D0000002003F0F9FB70BD01F004FD0022092161
:101D100076A004E001F010FD0022082176A0FFF774
:101D2000CDFF70BD774901200870FEF775FF0721D0
:101D3000002003F0E1FB05200007418A2026314303
:101D40004182A078E1780002401880B26E4D6F4960
:101D50006F4C2880884201D9298003E0642801D291
:101D6000A67105E06421288803F0FEF83030A071E8
:101D700028886421054603F0F7F80A2902D2A079E1
:101D8000202812D008460A2103F0EEF83030E07126
:101D90000A21284603F0E8F830315E4821720078C5
:101DA000002804D002F0BFF970BDE671F0E701F041
:101DB000B1FC70BD4A4B5A61D96018614748012196
:101DC00042688A430A4342607047F3E730B4434AAB
:101DD00093898024A3439381072313810023938055
:101DE0009589254395819380938010809181908976
:101DF000A04390814849A0010860484A1168FF2427
:101E00002402A14344002143116043498039086002
:101E1000434908603248002203760361C36043608F
:101E2000036030BC01213F48CFE7CFE72B49222098
:101E300008617047294922200861704708B5274981
:101E400001204A695206D20F13D04A699206D20F76
:101E50000FD000220A610092FF225F32009B5B1CC0
:101E600000939342FAD34A69D207D20F02D02220BC
:101E70000861002008BDE1E71848A021016141691F
:101E80008906C90FFBD041694906C90FF7D07047D1
:101E9000F2E7124881680907090F01291CD00229BD
:101EA00019D0042916D00C2916D10D4A117E01290A
:101EB00012D141690906C90F0ED00021D16011610C
:101EC00083885B085B0083805369002B04D001206A
:101ED00051611847F3E6BDE67047DAE7001100509C
:101EE0002480002014910020199100206164765F05
:101EF00053746172740000006164765F53746F7094
:101F0000000000006D5B00201A910020E703000034
:101F10006E5B0020F190002080E100E00CE400E026
:101F200080E200E06C5B002070B5EFF310850120CB
:101F300080F31088264803F059F80446002D1DD080
:101F4000012080F31088002C23D020462038C08B3D
:101F5000204988421DD16189208903F04DF8050090
:101F60000ED021461031A38962892089A847002814
:101F700006D001280DD002280BD105E00020E0E7B3
:101F8000204603F03FF804E0114821460C3003F0EE
:101F90003FF8EFF31084012080F310880C480068AC
:101FA000002802D1012003F039F8002C03D00120D1
:101FB00080F3108870BD0020FAE710B5BC210648F8
:101FC00003F032F80549012003F034F810BD000099
:101FD000A80508003883000004060800291F002017
:101FE000F8B50D46064681002B48EA884458521C35
:101FF00020686B89018F294F514300910146403180
:102000004A89C989511A8AB2991A89B2B94214D235
:102010009A4212D0294603F013F82D8920490098DE
:1020200002F0A2FF2818801C4034E0823002401CDD
:1020300080B2042103F00AF8F8BD2821304603F0ED
:102040000BF8F8BDF8B50546870013480C46C05993
:10205000C9880068114E024640325389D2899A1AC3
:1020600092B28B1A9BB2B34211D20B4E8A420ED05F
:1020700002F0F8FFF05905225F30611C02F0B0FF5A
:102080002802401C80B2052102F0E0FFF8BD2821A3
:10209000284602F0E1FFF8BD4C030800FF7F000076
:1020A0001027000070B516460D46104602F0E0FFFE
:1020B000002869D0340A304602F0DAFF012812D035
:1020C000A87A1E2811D029460A310E2845D019DCDD
:1020D000801E030002F0D2FF0B255829582D5831DD
:1020E0005839583D5800022070BD3146274802F04B
:1020F000CBFF0021204602F0CDFF0221304602F046
:10210000A5FF41E018283CD006DC102819D0122881
:102110002BD0162838D130E0522822D0D22833D103
:1021200027E0204602F0BCFF2EE0204602F0BEFF72
:102130002AE0204602F0C0FF26E0204602F0C2FF5F
:1021400022E0204602F0C4FF1EE0204602F0C6FF57
:102150001AE0204602F0C8FF16E0204602F0CAFF4F
:1021600012E0204602F0CCFF0EE0204602F0CEFF47
:102170000AE0204602F0D0FF06E0204602F0D2FF3F
:1021800002E0204602F0D4FF002070BD01280000CC
:10219000F3B581B001980C460102CA1D0E3102232D
:1021A000344802F0CBFF04700199054602273248FB
:1021B0008E00002C06D0042C16D0062C10D0072C34
:1021C0003FD108E0815905224968897C1140697036
:1021D0008059C77335E0084602F0B6FF687030E0FA
:1021E00080590F21C1732CE0044680594068417C1E
:1021F000012902D1007E01280FD0019802F0AAFF28
:1022000001210028A0590BD04268D07D00281CD0A5
:1022100001281AD004280DD00FE0002068700DE0CE
:102220004068C27D022A01D0042A06D1007C02281F
:102230000BD102E0107C022807D06F70A159032057
:10224000C873284602F08CFFFEBD6970F6E70146B0
:102250000A780120042A01D9002070474A78002A10
:1022600001D0012AF8D10A79082AF5D84979082934
:10227000F2D87047021C000028050800FFB589B09D
:102280000D4600206946059008720B98000A0090E0
:1022900002F060FF07460B9802F0EAFE00287DD0AE
:1022A0000B982978000A8400764E01295ED0042913
:1022B00004D0062943D0072963D120E0687800289C
:1022C0001BD0305910224068A91C02F089FE002F53
:1022D00006D03159C87B032807D0042808D050E025
:1022E0003059C07B032803D04BE00B20C87348E073
:1022F0000521009802F03AFF43E00120B6E0305992
:10230000C07B0E283DD1009802F01EFF002103E0A3
:102310002A18401C9170C0B21028F9D3688A694607
:102320000883294606A808221431023002F058FE1C
:1023300006ABAA1C3946009802F01EFF21E0305976
:10234000C07B0F281DD1AA1C0A21009802F01AFF99
:10235000002F04D03946009802F01AFF11E0002344
:102360001A463946009802F019FF0AE0012F08D1F9
:102370000B9802F07DFE01281CD0002801D002201D
:1023800005906846007A002811D002AA052100981D
:1023900002F0F8FE6846027A602000E007E002439F
:1023A0006846027201233946009802F0F7FE05984C
:1023B0000DB0F0BD3059C07B0228E2D1687800280A
:1023C00051D002210B9802F041FE3059072240689B
:1023D000A91C173002F004FEE878002804D1305917
:1023E0004068407C01283AD0009802F0DDFE0028C9
:1023F00037D0297A009802F0DDFE002833D000980B
:1024000002F0DEFE0121009802F0E0FE00282CD050
:1024100030594068417E00292BD0042929D0C17E43
:10242000027D1140C17630594068017F427D1140E4
:1024300001776846007A0028A7D130590221426806
:102440000098173202F09EFE305941684031897B76
:10245000002913D004210098FFF79AFE91E702208B
:1024600004E0062002E0082000E00320694608722C
:102470008BE70021C17630594068D9E70B21C17341
:102480007FE700002805080070B5044600780025A5
:102490000D2801D00A2200E002225A494B7A002B73
:1024A00006D00D2804D0637C032B01D0432551E0D6
:1024B000097A8A4339D10D2809D00E2802D00F2875
:1024C00003D134E0607C032804D3402542E0607CE3
:1024D0000328FAD8A07C0428F7D20A2908D0607C07
:1024E000012822D0022820D06078032809D811E0E2
:1024F00002F072FE012806D16078032803D000287C
:1025000001D0492526E002F067FE002802D160785C
:102510000228F6D83020035D22462046E17C313285
:10252000143000F019F8054614E0422512E002F0DC
:1025300053FE012807D16078052804D1A01D02F0C0
:1025400051FE0028DDD002F047FE002802D160785D
:102550000228D6D8284670BDFFB5002086B00121DC
:102560006A461170044605910021002C06D0089D92
:10257000099A1F239A4234D9402032E01C23069D39
:10258000079AF7E76B185E78330002F077FD1D2697
:1025900010101010101010101026262626262626A1
:1025A0002626262626261010101010102600059B21
:1025B00003E06F46FF5CB74204D05B1E5BB2002BAA
:1025C000F7DA03E0002B01DB4A2006E0059B6F46AB
:1025D000FE54059B5B1CDBB205936B5C491C5918D0
:1025E000C9B2914201D20028CCD0914202D04A20F7
:1025F0000AB0F0BD641CE4B2022CF9D20028B3D0BA
:10260000F6E7000098050800F8B50C46954916460F
:1026100009680125002702228B1C312873D012DCA7
:102620000C2874D008DC012821D0022840D00728CB
:102630004FD00B2869D156E010287FD0112876D0D2
:102640001228F7D18EE00123412871D008DC32280E
:102650006FD035286ED036286DD04028EAD1B3E04F
:10266000422869D0432868D04428E3D1D1E006222B
:102670007D497E4802F0BCFD002808D006227B4937
:10268000304602F0ADFC062020700020F8BD7548F1
:1026900001680878C00738D02078062801D2277052
:1026A000C4E006223046983102F09AFC06200EE083
:1026B0000A786C48920728D522783E2AEFD305463F
:1026C0004A7E30465A3102F08BFC2868407E2070EA
:1026D000A9E00878400718D520780228DFD3887C45
:1026E0003070587C7AE00A785E4812070DD522785F
:1026F000202AD4D30546CA7D30461A3102F070FC38
:102700002868C07DE3E736E001E079E016E00A786A
:102710005448D20674D52278202AC0D305460A7EB2
:102720003046983102F05CFC2868007ECFE70FE06D
:1027300056E02AE036E03DE05AE062E008788006A4
:1027400072D520780428AAD304223046091D25E03A
:102750000878400668D52078002867D0087D08E012
:10276000227060E0087800065ED5207800285DD0F1
:10277000487D3070F4E70888C00555D520780428D6
:102780008DD3042230460C3108E0088880054BD5F3
:102790002078042883D304223046083102F020FC3C
:1027A000042094E7088840053ED5207800283DD0D5
:1027B000887D36E00888000536D5207802288DD33C
:1027C000087C3070487C09E00888C0042CD520784B
:1027D00002288ED38231087F3070487F7070BFE747
:1027E0000888800420D5207800281FD0A03117E069
:1027F0000888400418D52078002817D0A1310FE0B0
:1028000012E0088800040FD5207800280ED0A231ED
:1028100006E00868C00307D52078002806D0A33159
:1028200008783070237000252846F8BD0425FBE7A2
:1028300070B50F480F49C405228880252A4322809D
:102840000D4A53891B0701D4401EFAD20B4A0120BE
:1028500010600622054802F0C3FB2088A8432080B0
:1028600070BD0000C0060800383E03004080002014
:10287000A0860100D47F04002000005000800040AA
:10288000F0B5564D85B00026686D37460190FEF7CD
:102890008AF80021524C002802D12079022800D168
:1028A0000191504802685048002A0FD10278002A4E
:1028B0000DD04E4B0122DA63DA6B002AFCD10122E3
:1028C0009207D2691923DB019A420ED3017002F0FC
:1028D00095FC00287ED0E078012600287AD00520DB
:1028E0000007808AC00701D0042673E002F012FBC3
:1028F00000286FD13E4800683F2804D12079002885
:1029000001D1286D0190A17801A802F07DFC00287A
:1029100060D0A17801A802F00FFB00285AD03448FB
:1029200000683F2803D102F075FC002852D02D48E2
:102930000068AA281DD0972007210125AD07EA6B62
:10294000920A92027F1C3A43EA63EA6B294B8002A7
:102950001A400243EA63E86BC002C00A4905084313
:10296000E863204804260068002807D0AA280FD072
:102970001DE02148FEF7BBFA0321DEE70198642140
:10298000C00202F0F1FA2179401E0CE001210CE0B6
:10299000019802F0FCF91949096802F071F902F096
:1029A000FDF9009021790029F0D102F039FC14489A
:1029B000C06A8047286B0004C00FFBD01148016833
:1029C000C905FCD502F032FC0520000701898022F0
:1029D00091430181304605B0F0BD00006002002047
:1029E000C60608000C80002000800020C0000040C7
:1029F00060010020FF03E0FF0112000018800020AA
:102A00001C0708000002004010B50124A407A06BB9
:102A1000FEF779FA5D4902F0A7FA27221201511A4E
:102A200000D101215A4A50601160206B082188436F
:102A30000843206310BD38B500200524240700900A
:102A400021883020014321802188032211432180E5
:102A500002E000BF00BF00BFA18A0906F9D5618965
:102A60008908890061814B494A88520852004A808E
:102A70002188814321802088800880002080A08ACE
:102A8000400701D5FEF7C8F820898021084320813E
:102A9000208A042188432082A08A8007FCD53E48F2
:102AA00041050268D20202D40A69520702D4009A90
:102AB000002AF6D038BD10B502F0BEFB02F0C2FB12
:102AC00010BD10B502F0C4FB05200007418A80222A
:102AD00091434182314801894908490001813048C8
:102AE00000683F2801D102F0B9FB0120800781690D
:102AF00004221143816102F0B7FB02F0BBFB02F03C
:102B0000BFFB28480068AA2802D11420FEF752F91A
:102B100025490020087010BD10B502F0B7FB10BDAC
:102B200010B501208007008A000704D502F0B4FB2D
:102B30001D490320087010BD70B51C48008885062B
:102B40001548AD0E446816488030006F00780028A4
:102B500002D1284602F0A6FB15480089124EC00596
:102B600007D520060BD5E00709D0284602F0A0FBC8
:102B700003E0200603D5E00701D0022030702004D6
:102B800003D5E00501D50120307070BD7102000051
:102B90004000004020000050000200400033005080
:102BA000600100200C8000204680002000200050A2
:102BB000002C005010B51221244802F07FFB24495C
:102BC0001C2002F081FB00211C2002F03FFA10BD06
:102BD00030B503460120002103241A46CA40D2071B
:102BE00004D04D0022466D1CAA401043491CC9B2B6
:102BF0000929F2D330BD02460020122901D98D20C7
:102C00007047062A06D0072A07D0082AF8D10729D4
:102C1000F5D170470829F2D170470629EFD37047E4
:102C200070B50A4C0546218802231C22094802F08F
:102C300085FA058002F094FAE088002102F04AFB50
:102C400001211C2002F002FA70BD00004880002023
:102C50001858002004700000FEB53B4E1C20708008
:102C60001D46174634460888FFF7B2FF02903748E2
:102C7000334601900833132202A90097A01D02F0E9
:102C80002FFB040008D1F088002102F023FB04464A
:102C900001211C2002F0DAF901231C2229462C48CC
:102CA00002F04CFA047002F05BFA0020FEBD70B531
:102CB0000C4625490B802078082814D8CA8808318A
:102CC000415C51188DB2822D0BD06178FFF793FFD4
:102CD000010009D16D1C6178A8B2A21C02F006FBAC
:102CE00008E0822100E08121194B17485B1CDA1CA7
:102CF00000F030F8002070BD70B51D460C46088805
:102D000002F0FAFA104AFF281071158009D0A17854
:102D1000D08802F0DFFA02211C2002F097F900208F
:102D200070BD0B4B89219B1C9A1C074800F012F8C0
:102D3000F5E710B5044A180A1279904202D10888C2
:102D4000FFF76EFF002010BD4880002004570020D0
:102D500001700000F8B514460F461E46054642882D
:102D600001880623204602F0E9F90446287902F09A
:102D7000C9FA208027716680204602F0F1F9F8BD7B
:102D800070B51446428800790D46010204232E488E
:102D90000C3102F0D3F9002D01D0132100E01221F3
:102DA0000170448002F0DCF970BD0A880270120ADA
:102DB00042708A788270CA78C2700A7902714A7940
:102DC0004271897981710720704742780378120235
:102DD0001A430A8082788A70C278CA7002790A71AE
:102DE00042794A71807988710720704710B5FFF7E2
:102DF000E1FE00F02BF800F095FA10BD70B5064624
:102E000015460C46412002F033F9022805D1E2B202
:102E100041232946304602F07BFA1C2002F028F9B3
:102E2000022805D1E2B21C232946304602F070FA8E
:102E3000402002F01DF9022805D1E2B240232946C4
:102E4000304602F065FA70BD0D30000010B5082163
:102E50001A4802F033FA1A49412002F035FA0021EB
:102E6000412002F0F3F810BD70B5144D06462988D4
:102E700018234122134802F061F90446287902F030
:102E800041FA2080A670204602F06AF970BD70B544
:102E90000A4D0446E888002102F01CFA09482988F6
:102EA00004234122001F02F049F9048002F058F97E
:102EB0000121412002F0CAF870BD00005C800020B2
:102EC000CC58002005040000FFB58BB00521C902D5
:102ED00068468182C91C0182FA490183FA4C41216A
:102EE0006180062199250091082200230195412146
:102EF000A01D02F013FA05007ED1A01D012500954A
:102F000001900222E08805AB114602F00DFAE0883C
:102F1000EE4A022102F0EAF903AE01960095E0883C
:102F200004AB0222132102F0FFF902AF092001973E
:102F30000090E088E64B1022042102F0F5F9E54903
:102F40006846007A48706846407A88700A46684643
:102F50001321808902F0CAF901960095E08804AB3C
:102F60000222132102F0E0F9092001970090E08885
:102F7000D94B1022042102F0D7F9D8496846007ACB
:102F800048706846407A88700A46684613218089EE
:102F900002F0ACF901960095E08804AB02221321FF
:102FA00002F0C2F901970095E088CD4B1022042170
:102FB00002F0BAF9CB496846007A48706846407A10
:102FC00088700A4668461321808902F08FF90196BD
:102FD0000095E08804AB0222132102F0A5F9092034
:102FE00001970090E088C04B1022022102F09CF96A
:102FF0006846BE49007A00E058E048706846407A6A
:1030000088700A4668461321808902F06FF901969C
:103010000095E08804AB0222132102F085F9092013
:1030200001970090E088B24B1022142102F07CF945
:10303000B0496846007A48706846407A88700A4607
:1030400068461321808902F051F9AB4D0196009535
:10305000E08804AB0222132102F066F90197009583
:10306000E088A64B1022012102F05EF9A4496846CF
:10307000007A48706846407A88700A46684613218C
:10308000808902F033F909A90920019100900222F8
:10309000E08806AB114602F047F90546E0880021BA
:1030A00002F018F90121412001F0D0FF0123412253
:1030B00094480E9902F042F8057002F051F8002091
:1030C0000FB0F0BD3EB5804C0D46E08802AA0C3032
:1030D00080B2694602F02EF9E08801AA0D3080B274
:1030E000694602F027F9E088AA1C0C3080B2012161
:1030F00002F0FCF801980088002806D0E088002142
:103100000C3082B22046FFF73BFE00203EBD10B5DA
:103110006D480A46C0880421801D80B202F0E6F89E
:10312000002010BD38B50D4600206946664C088069
:103130002380288802F0E0F82071FF2817D0E0886B
:103140006A460D3080B2022102F0D0F8E0886A466B
:103150000C3080B2012102F0C9F8A978E08802F0B1
:10316000B9F80221412001F071FF002038BD654A05
:1031700001239B02521C89215348FFF7EBFDF4E722
:10318000F8B5514D0C4629798022180A88427DD124
:10319000E988208826468B1C0027083698420ED1E5
:1031A000012100916188324602F0A0F8E079002800
:1031B00075D05448082341222988C01F10E00B1DF8
:1031C000984229D1022100916188324602F08EF89E
:1031D000E079002863D04B48298808234122801FCA
:1031E00001F0ACFF0646287902F08CF83080776059
:1031F000E07A01067160A07A000401437160607A90
:10320000000201437160207A014371600098B07040
:10321000304601F0A5FF42E00B460A3398421BD12D
:1032200004200090E079002839D0364829881823F6
:103230004122001F01F082FF0746287902F062F860
:10324000388062883146381D01F0CAFEA078F870D7
:103250000098B8703846DCE70B460833984220D116
:10326000032100916188324602F040F8E07900289D
:1032700015D02448298806234122401F01F05EFF13
:103280000646287902F03EF8308000E018E0B7806A
:10329000607A0102B180207A0143B180B6E7002252
:1032A00007E00D31884204D16188324602F01EF8F1
:1032B000F5E7A079012803D12188287902F040F8A8
:1032C0000020F8BD022900005C8000206858002022
:1032D0006A580020D45A00207A580020E75A00206B
:1032E0008A580020FA5A00209A5800200D5B0020CE
:1032F000AA580020205B002001020000BA580020DC
:10330000335B00200904000010B5054A180A127941
:10331000904202D10888FFF7BAFD002010BD0000DE
:103320005C80002010B50A21334801F0C7FF334903
:10333000402001F0C9FF0021402001F087FE10BDB0
:1033400070B52D4D064629880A234022022001F03F
:10335000F5FE0446287901F0D5FF20800822314689
:10336000A01C01F03DFE204601F0FAFE70BD70B5D4
:10337000214D064629880A234022032001F0DEFE63
:103380000446287901F0BEFF20800E223146A01CA1
:1033900001F026FE204601F0E3FE70BD7CB5164C20
:1033A0000021E08801F096FF2188022340220120BD
:1033B00001F0C4FE0546E08801AA801C80B269467F
:1033C00001F0B8FF207901F09DFF2880284601F028
:1033D000C7FE0121402001F039FE7CBD10B5044636
:1033E0000548012301884022072001F0A7FE047050
:1033F00001F0B6FE10BD0000668000205C59002080
:10340000FFB589B00521C90268468182C91C0182C5
:1034100098490183984C4021618002214E250091FA
:103420000422002301954021A01D01F077FF050033
:103430005ED1A01D012500950190E08805AB022218
:10344000102101F071FFE0888C4A102101F04EFF3D
:1034500003AF01970095E08804AB0222132101F02D
:1034600063FF02AE092001960090E088844B102291
:10347000082101F059FF83496846007A4870684680
:10348000407A88700A4668461321808901F02EFF31
:1034900001970095E08804AB0222132101F044FF5C
:1034A000794801960090E088784B10220E2101F0B7
:1034B0003BFF77496846007A48706846407A8870D2
:1034C0000A4668461321808901F010FF0920019601
:1034D00000900222E08806AB114601F025FF054668
:1034E000E088002101F0F6FE0121402001F0AEFD50
:1034F0000123402205200C9901F020FE057001F007
:103500002FFE00200DB0F0BD38B50D4601206946F4
:10351000594C08802380288801F0EEFE2071FF2896
:1035200017D0A978E08801F0D5FEE088EA1C801C5D
:1035300080B2082101F0DAFEE0882A46001D80B240
:103540000B320E2101F0D2FE687E2072002807D0D7
:1035500009E00023082289214748FFF7FBFB0DE023
:10356000002069460880E0886A46401D80B202213A
:1035700001F0BCFE0221402001F068FD002038BDB2
:1035800070B53D4D0C46287901F0BCFE218888427B
:1035900011D1E888A21C001D80B20E2101F0A6FE08
:1035A000287AC0070AD0E8880021001D82B2284688
:1035B000FFF7E6FB02E08120FFF710FF002070BD5F
:1035C000F8B52D4C180A0D46237900218022984227
:1035D0003DD1E38828889E1CB04200D101215E1DA8
:1035E000B04200D102212F4608371B1D984211D04E
:1035F000012904D003290DD0022916D027E03A462C
:10360000082101F073FEE87900281FD03846FFF743
:10361000AEFE1BE03A46082101F068FEE87900287A
:1036200014D03846FFF78CFE10E06B7A297A1E0220
:103630000E4301D0012E0AD13A46022101F056FE76
:10364000207A012E09D040084000207200222988EB
:10365000207901F075FE0020F8BD01210843F4E750
:1036600010B50549180A0979884201D1FFF796FE7D
:10367000002010BD02290000668000202C59002087
:103680003C590020465B0020090200004C590020F4
:10369000595B002010B50C21454801F00FFE44484D
:1036A0000121C170017100F031FB4249322001F06B
:1036B0000BFE0021322001F0C9FC00F0B1F810BD72
:1036C00010B500F0D2FB10BD10B539480223807848
:1036D0003222010238480E3101F030FD0121017023
:1036E0001321417001F03CFD10BD10B50446304877
:1036F0002C238078322201022F480E31801E01F0E7
:103700001DFD01462030047200224272084601F07D
:1037100027FD10BD10B5502332220D21274801F09E
:103720000DFD044600F03EFB204601F019FD02218C
:10373000322001F08BFC10BD204810B5012332224D
:103740000D210B3801F0FAFC0221017001F008FD97
:1037500010BD10B500F0A6FB10BD194B10B59A4274
:1037600001D91A4602E0002A00D1012201F0EEFD43
:1037700010BDF8B50646114815460F4625233222DE
:103780000D21C01C01F0DAFC044601202077204600
:10379000062239461D3001F023FC232006556582A0
:1037A0002582204600F0ADFB204601F0D9FCF8BD93
:1037B00072800020B4590020043800000E3400004C
:1037C0003075000010B501F0C7FD254901F0CAFDB4
:1037D0002448081810BDF8B5234D0646A8760024E5
:1037E00001F0BAFD2919641CE4B20874082CF7D35F
:1037F00000241027381BB04201DD002007E001F053
:10380000ABFDC117090E0918090A0902401A28550B
:10381000641CE4B2102CEDD301F09EFD2883F8BDAA
:1038200010B52421104801F049FD00F075FA10BDD3
:1038300010B50E4802238078322201020C480E3166
:1038400001F07CFC0D21017007492031897841701D
:1038500001F086FC0321322001F0F8FB10BD0000CE
:10386000A0BB0D00A08601007E8000207280002099
:103870001A38000010B5084609781C460B0001F004
:10388000FDFB080520202008181B1E2000F03CFB33
:1038900017E04178012904D0002902D0022903D081
:1038A0000FE000F049FB0CE01146204600F0ABFBB6
:1038B00007E000F05FFB04E000F05DFB01E000F0DA
:1038C00077FB002010BD10B50878304C801E030037
:1038D00001F0D4FB020214188878A070C0070AD047
:1038E0002B492A4A4879203AD07628480622001FD8
:1038F000891D01F075FB00F081FB03E0FFF7E4FE9A
:103900000020A070002010BDF8B518460D460146F5
:103910001223204801F012FC0446284600F06FFBF9
:103920000027002821D0194EB078C0071DD030469E
:103930000822A91C103801F05BFC002815D1304684
:103940002038018B2A8891420FD101212170807E7D
:103950006074314610222039601C01F041FBB078C0
:10396000FFF7C3FE00F04EFB00E02770204601F099
:10397000F7FB2078002801D1FFF7A6FE0020F8BD54
:1039800010B500F03EFB002010BD00009E8000201E
:10399000728000201838000010B5104601F068FB56
:1039A000002809D1012332220D21484801F0C6FB2D
:1039B0000121017001F0D4FB002010BD70B5087822
:1039C00015460F282DD008DC01280DD002282CD058
:1039D00003281CD00E2830D11FE0102825D0112834
:1039E00023D0122829D123E04878002825D1374850
:1039F000222332220D21801C01F0A0FB0446014647
:103A0000284600F050FA204601F0AAFB15E048785D
:103A1000002812D100F05BFA0FE0487800F064FA59
:103A20000BE0487800F067FA07E000F069FA04E07C
:103A30004878442801D100F066FA002070BD70B5C6
:103A40001C4610460D4601F013FB022805D1204903
:103A5000200A8870284600F074F9002070BD70B507
:103A6000087815460C460A2810D1104601F000FBD4
:103A700004280BD16078002802D000F012FA05E08B
:103A80000521284601F0E2FA00F02DFA002070BD71
:103A900010B5104600F0D3F9002010BD10B5104647
:103AA0000C4601F0E5FA012808D12078002805D15C
:103AB000FFF706FE002801D000F01EFA002010BD1E
:103AC00010B5084600F01EFA002010BD02340000B8
:103AD00072800020704710B51C2102233222880218
:103AE00001F02CFBFF217C31018001F039FB10BD7E
:103AF00010B50446042332221C21054801F01EFBA8
:103B00000480012181700021C17001F029FB10BDEA
:103B100003700000FEB510460D4601F0A9FA012819
:103B20007ED1287800287CD10626092332221C2148
:103B30004D4801F003FB04460020207066703246B9
:103B40004AA1A01C01F04CFA204601F009FB0B270A
:103B50000E2332221C21444801F0F0FA012606709F
:103B6000044647703A4643A1801C01F039FA2046CA
:103B700001F0F6FA08270B2332221C213A4801F003
:103B8000DDFA04460620207067703A463CA1A01C6E
:103B900001F026FA204601F0E3FA09270C2332222D
:103BA0001C21314801F0CAFA0446032020706770D6
:103BB0003A4636A1A01C01F013FA204601F0D0FAD3
:103BC0000B270E2332221C21274801F0B7FA0446A6
:103BD0000520207067703A462FA1A01C01F000FA62
:103BE000204601F0BDFA09270C2332221C211E4871
:103BF00001F0A4FA04460420207067703A4623A11D
:103C0000A01C01F0EDF9204601F0AAFA0A233222A5
:103C10001C21154801F092FA04460820207001E0AA
:103C20001DE012E007206070A670D2216846018076
:103C30000B21C90141803102818006226946E01CC6
:103C400001F0CEF9204601F08BFA32220123114611
:103C5000900201F073FA2978017001F081FA0020D6
:103C6000FEBD002070470000027000005072616EBF
:103C70007573000048656C6C6F20576F726C640040
:103C8000123456FFFE9ABCDE00000000765F332E31
:103C9000302E362E30000000765F332E35302E3138
:103CA0002E35340010B5FE4801F0E8FC002101205B
:103CB00001F0B2FB002805D00122100200230146CA
:103CC000FDF72DFB10BD10B5F6480024047005204B
:103CD0000007808A400701D5FCF79EFFFCF763FED2
:103CE00000280FD0FCF70BFEEF488168012211433A
:103CF0008160FCF754FEED48002204703221EC484C
:103D000001F036FBFFF7CEFF10BD704710B5FFF78F
:103D1000E1FE00F061FA10BDE648012181707047B4
:103D200010B51A2332224021002001F007FAE2499F
:103D300009880180012181700021417601F010FA8B
:103D400010BD70B5DC4C0546A078FF2827D0208830
:103D5000FFF7CEFE00F05FFAFFF7E2FFD349012044
:103D60008870D34832221146401C01F0EFFA052139
:103D7000322001F06BF928882080687A607129462A
:103D800006220A31A01D01F02BF9CA488078FFF7FE
:103D9000ACFCC7483221401E01F076F970BDFFF738
:103DA000B9FC70BDF0B5044695B00E20207000201F
:103DB0006070C248A081E0810720207401206074F7
:103DC00026461F21203631740A252046E57414301A
:103DD0002A46BBA1029001F003F9204635742A4619
:103DE000BAA1313001F0FCF8E67C1A20801B45B204
:103DF000002D1CDD07273A46B7A103A801F0BEFA43
:103E0000072D00D93D46EDB20299681C7054E27C42
:103E10002046092115301154E17C401C08182A461F
:103E200003A901F0DDF8E07CAD1C4019E074A04866
:103E3000AB4A3221401EFFF790FC15B0F0BD10B523
:103E400001F016F9032803D0052801D0042801D178
:103E5000FFF760FC10BD10B5012332224021042081
:103E600001F06CF901F07CF910BD70B5924D0024A1
:103E7000E878042812D2012804D0022805D00328AB
:103E800008D105E0FFF727FE04E000F0B7F901E0F4
:103E9000FFF7E1FFE878401CE87000E001242046CD
:103EA00070BD70477047032008700A2048700020DA
:103EB0004882087548751722CA8208220A83102290
:103EC0004A838883C822CA8320310870704710B59E
:103ED0000121322001F0BAF8FFF7F2FB002801D0EF
:103EE000FFF718FC10BD7047714810B53221401E15
:103EF00001F0CAF810BD704710B5FFF70BFC10BDFC
:103F0000704770477047704710B51E2332220E214C
:103F1000744801F013F90121017041700022C27050
:103F20001023437103238370017102720422827192
:103F3000C17101F015F910BD70B51E2332220E219A
:103F4000684801F0FBF80446FFF73CFC05460420F6
:103F50002070012060701021A01C01F0AFF9280E24
:103F60006071280C2071280AE070A570204601F0CD
:103F7000F7F870BD704770B505461E2332220E213A
:103F8000584801F0DBF804466878FFF724FC062067
:103F90002070012060701021A01C01F08FF9062212
:103FA00051A1A01C01F01CF8204601F0D9F870BD09
:103FB00070B505461E2332220E214A4801F0BEF894
:103FC00004466878FFF707FC072020703949012074
:103FD00060702039887E2077088B60822046082216
:103FE0001031143000F0FCFF324910222039A01C9F
:103FF00000F0F6FF204601F0B3F870BD70470120D5
:10400000704770477047704710B5FFF795FB284C15
:104010003221641E204601F037F8FCF77DFC322186
:10402000204601F031F8FCF7B6FCFFF73BFE00201C
:1040300010BD10B5104601F01BF8022801D1FFF7A2
:1040400069FB002010BD10B510460C4601F010F8B9
:10405000012809D1322201231146900201F06EF8A5
:104060002178017001F07CF8002010BD002070471D
:104070000E4810B50822C01C891C00F0B1FF0721B2
:10408000002001F05BFA0948C01C01460278163195
:104090008A704278CA7082780A71C2784A7127E0C1
:1040A000C73C00206D5B002000330050F0900020E2
:1040B00002C800009E800020728000204C04000096
:1040C0000903031802180418F5FE000009FF006038
:1040D00052572D424C4500004441313435383000B0
:1040E0008813000014380000ABAB455523010000D5
:1040F00002798A714279CA7182790A72C0794872EA
:10410000022019398870FF222D3232212E4801F009
:104110001DF9002010BD10B50E222C48891C00F09E
:104120005FFF002010BD10B5102332224021062071
:1041300001F004F804460E222549801C00F050FFCF
:10414000244800882080204601F00AF810BD1F484E
:1041500010B501210B3841708078022802D0012867
:1041600007D008E0194800220B210E30FDF7A6FD0C
:1041700001E0FFF7D8FF3221134800F085FF00204F
:1041800010BD092801D8303004E001460A3905295C
:1041900002D83730C0B27047FF207047014630392F
:1041A000092901D8C8B2704701464139052901D80B
:1041B000373804E001466139052902D85738C0B2C2
:1041C0007047FF207047000003C80000FB900020EC
:1041D0006E5B002072800020FE4800210174416166
:1041E0008161C160FC4A017711651421017070473B
:1041F000F848002101744161C160704710B5812009
:10420000012332224121C00000F098FF00210170FB
:1042100000F0A6FF10BD10B51023322241219801F5
:1042200000F08CFFED490988018001218170002197
:104230004160816000F094FF10BD10B50446E8486D
:10424000042302884121E74800F078FFE349098808
:104250000180847000F084FF10BD10B5DD4C207823
:10426000022801D1FDF7E0FB2078032801D1FDF7FA
:1042700075FB1420207010BD08B5AA216846017096
:10428000D44802784068132A03D0801CFDF776FCDE
:1042900009E0811C01226846FDF71FFA40B201289F
:1042A00001D0062008BD022008BD10B5C94C2078F9
:1042B000C00601D4012000E01020FFF7BEFF00205F
:1042C00020746061A061E060207710BDF8B50F46F2
:1042D0000021060EBF4C35463960142E17D22570CA
:1042E00080B26060002D01D0012D07D1BE492806A3
:1042F00008436160002101F047F8386020781228F7
:1043000001D0132803D1606802280BD86074112EE5
:1043100026D00EDC022E20D006DC002E1DD0012E71
:1043200013D11AE0112022E0032E16D0102E0CD14A
:1043300016E0FD2E2CD004DC122E0ED0132E04D14C
:104340000BE0FE2E16D0FF2E0CD00820FFF775FFD5
:104350001420207000203860F8BDFFF7A6FFF8BDDC
:10436000082004E0FFF779FFFFF742FF0320FFF783
:1043700064FFF8BD207F002801D0042001E0FFF792
:104380007BFFFFF75AFFFFF768FFFFF731FFF8BD2C
:10439000002000F0FFFFF8BD10B50446904804234C
:1043A000028890484121401E00F0C8FE046000F0E1
:1043B000D7FE10BDFEB5064600200124640400901F
:1043C0000190034602460146029065123046FDF711
:1043D0006FFAFDF745F9854980B2401802D00128EF
:1043E00000D1840429462046FCF7F4FFFEBDF8B551
:1043F000044678487E4E017A00270906090FA1710C
:10440000027AFF4313071B0FE37102891204120F94
:10441000227002891205120F627082681202120F56
:10442000A27082681203120FE2708268120F22716A
:1044300080680001000F6071282041438A199900AB
:104440005058002801D0384600E001205050A5798E
:10445000E279C11700F0A4FF2A0100F0A1FF654A2C
:10446000136855681843294310605160A0782821CB
:1044700048438219E07881005058002801D038461E
:1044800000E001205050A578E278C11700F088FFC5
:104490002A0100F085FF574D2A686B6810431943C5
:1044A0002860696020792821484382196079810059
:1044B0005058002801D0384600E00120505026799D
:1044C0006279C11700F06CFF320100F069FF2A68C1
:1044D0006B6810431943286069602078282148439D
:1044E00043494118607880000A58002A00D101270A
:1044F0000F50384626786278F91700F051FF3201E4
:1045000000F04EFF2B686A68184311432860696009
:104510000120009003263602617820780823324675
:1045200000F050FF00250095E179A079072332467D
:1045300000F048FF0095E178A0780623324600F0AD
:1045400041FF0095617920790523002200F03AFFB0
:10455000F8BDF8B504461F48254F017A0025090625
:10456000090FA170017AED430907090FE170018974
:104570000904090F217002891205130F6370806806
:10458000000C606028204143CA1999005058002847
:1045900001D0284600E00120505026786278C117EB
:1045A00000F0FEFE320100F0FBFE124E326873682E
:1045B0001043194330607160A07828214843C11925
:1045C000E07880000A58002A00D101250D502846C5
:1045D000A77811E0A48000207C5B0020728000207E
:1045E0005C80002007040000C85C0020F010FFFF82
:1045F0002890002020900020E278E91700F0D0FEFB
:104600003A0100F0CDFE3368726818431143306000
:104610007160002500956178207809232A4600F012
:10462000D1FE0095E178A0780A23002200F0CAFEAE
:10463000F8BDF0B5FF4D02242878E60185B00028CA
:104640000AD0012808D029464A68896802282AD059
:1046500003284BD0082476E0F74F000638430021AA
:1046600000F092FE8004010C287C4218B24248D827
:10467000711A091A8AB2F14941183846FC38801873
:1046800005E00A6804C02A7C121F2A74091F2A7CCC
:10469000002AF6D1287800210006384300F074FE85
:1046A000FFF77AFE4BE001204006104300F06CFE5D
:1046B0008004070C287CC019B04222D802A8FFF75A
:1046C00048FF0398012380B200220221FDF786F9FA
:1046D00068682A7CC119D948001DFDF79CFA297C1D
:1046E000814200D00624FDF7A9F91DE00320000651
:1046F000104300F049FE8004070C287CC019B0422A
:1047000001D907241FE06846FFF771FE6846FFF7EE
:1047100051FE68682A7CC119C848001DFCF7DDFFFE
:10472000297C814200D00624287869680006084365
:10473000A96800F029FEFFF72FFE022C03D1FFF736
:104740008CFDFFF755FD2046FFF777FD05B0F0BD66
:1047500070B502460020160BC04336030C0B09054A
:1047600000D0641C002C01D000250BE001240025A2
:1047700020213046FCF74BFF012109037618002861
:1047800002D16D1CA542F3D370BD0021FF2802D0D9
:10479000401CC0B2704708467047FF2802D0FF296E
:1047A00005D006E0FF2908D0002906D001E0002846
:1047B00001D0884201D9022070470120704710B50E
:1047C0009C4B1B78132B02D0FDF7B6F910BDFCF7FC
:1047D000C6FE10BDF7B59CB000271E980C463E469D
:1047E000402805D32078702802D16078512802D063
:1047F00012201FB0F0BD65688E492846403008621F
:104800001F210C22090301A8FFF7D9FF0C2847D16B
:1048100068460079702803D168464079522801D053
:104820001420E6E70298129003981390002D03D00D
:104830001299401AA84201D21320DAE701A84022B7
:104840001190FFF7BCFF40282AD16846C079159027
:104850006846817904A8189020460C301790AA2940
:1048600007D168460079702803D1684640795128FD
:1048700003D00127002015900BE0102218991798FB
:1048800000F0B6FC002804D1E0690899884200D104
:104890000227402213991198FFF791FF402801D079
:1048A0001620A6E76846C079009068468079AA2855
:1048B00007D168460079702803D1684640795128AD
:1048C00003D00126002000900BE0102218991798C1
:1048D00000F08EFC002804D1E0690899884200D1DC
:1048E00002261C98002801D0022807D9012F11D0D8
:1048F000012E1CD000991598FFF74FFF1790FF224B
:10490000402101A800F052FD1798022815D0022F6F
:104910002BD004E0FF22402101A800F047FD4549CB
:1049200012984860002E22D0022E20D00EE0FF22E6
:10493000402101A800F03AFD01E0022E15D03D49CA
:1049400013984860002F0ED0022F0CD00126394F4B
:104950003878132810D0402201A87968FDF75BF958
:1049600040283DD10FE0159802E0152041E700985E
:10497000FFF70BFF0646EAE74035A9B27868FFF774
:10498000E7FE00282CD16846C67160680290A068D6
:10499000039020460C300EC8A069079004A80EC0F2
:1049A000E0690890217868460171617841712020A2
:1049B000015D08A8017120461E9C39784030403CBA
:1049C0001329796822460DD04031FDF724F9A04221
:1049D00006D1402279681198FDF71DF940280CD0C6
:1049E000062006E74031FCF778FEA042F8D14022CD
:1049F00079681198FCF771FEF0E70020F9E6F0B550
:104A00000C4C0E4A0225002085B05432616904E046
:104A1000237F165C73402377401C8142F8D82078AE
:104A2000002612280CD0132838D00825E8B2FFF74A
:104A300004FC8BE6A4800020C85C0020785B00208A
:104A400002A8FFF786FD0398012380B2002202210D
:104A5000FCF7C4FF6269002A02D0A069002811D0C7
:104A6000A069216A82184B1C9A4240D88A4201D917
:104A7000091A616161682746091826486269FDF7CD
:104A8000CAF828E0607C2349FFF7A4FE002829D05B
:104A900085B26661A069FFF77FFCC7E76846FFF74C
:104AA000A6FC6846FFF786FC6269002A02D0A0696E
:104AB0000028E7D0A069216A82184B1C9A4216D8B8
:104AC0008A4201D9091A61616168274609181148AB
:104AD0006269FCF702FE7969814208D1B869401821
:104AE000B861D6E76269A1698918A161D1E7062595
:104AF000CFE770B5084C094D2146284600F044FC2C
:104B00000104090C05D083B2024A2146284600F070
:104B100053FC70BDCC5B0020000306050028000399
:104B200010B510460C4600F0A3FA012809D1322234
:104B300001231146900200F001FB2178017000F082
:104B40000FFB002010BD70B54A4C0D46207814288C
:104B50003DD2A97800293CD0E168002933D0C006B5
:104B600018D4207CEA78811850292ED84249401860
:104B7000291D00F035FA207CE9784018C0B2207475
:104B8000E168814201D1FFF754FD207C18E0FFF776
:104B900054FB1EE0EA786069FF23811801339942D3
:104BA00013D836494018291D00F01AFAE9786069CF
:104BB00040186061E168814201D1FFF720FF606920
:104BC000E168884205D90520E1E70720DFE70820F2
:104BD000DDE7002070BD08B58878002806D0486859
:104BE0006946FFF773FB0098FFF7D6FB002008BD6E
:104BF00010B5887800280ED01E4A49689160107858
:104C000002280AD0032808D0122804D0132802D082
:104C10000820FFF712FB002010BD52680006104369
:104C200000F0B2FBFFF7B8FBF5E770B588780D46EA
:104C300000281DD0A888002805D00E4C2178CA066F
:104C400003D4820701D005200EE0142910D2C90632
:104C500005D4502807D8FFF7CBFAA88807E0FF2132
:104C60000131884203D90720FFF7E7FA00E0E0604E
:104C7000002070BDA48000207C5B0020CC5B002065
:104C8000024670B54A40D30FDB0740002DD04A00E2
:104C90002AD0010E140E000212020919400A520A0B
:104CA0008418E50104465443000A120A2E045043B6
:104CB000A4194219200CC543AA18120C0125AD03F2
:104CC000521C521912047F39240400D0521C104384
:104CD00001D44000491EC2B20C06C0092018401C75
:104CE0004008802A02D003E0002070BD4008400048
:104CF000002900DA0020184370BD70B502464A4012
:104D0000D50F40004A00ED0740085208002814D093
:104D1000002A12D0C40DD30D41020120C005520259
:104D2000490A520AE41A091812187D34914201D333
:104D3000641C00E04900002C01DA002070BD002353
:104D4000914201D3891A0343400849000028F7D152
:104D500000290AD0914202D10121C90705E0914200
:104D600001D2012101E00121C943E005C018401929
:104D700000F058F870BD420005D04200120E5242B9
:104D80008A4201DB00207047C9050818704710B53A
:104D900000229623114600F04DF810BD410040025C
:104DA0000122400AD205090E80187F2901DA00206D
:104DB0007047962903DC9622511AC84070479639ED
:104DC00088407047C20FD207400040080BD0C10D89
:104DD0000723DB01C91840020905400A1143C20834
:104DE000400711437047002001467047CB0FDB0797
:104DF000490010B5490802460A4307D00A0D0724A6
:104E00000903E401090B121B002A01DC002010BD7C
:104E1000C900440F0C43C100E018D205801800F00F
:104E200001F810BD002904DA401C490001D14008F6
:104E30004000704770B40024050C05D11024000414
:104E400002D1002921D01124050E01D1000208341D
:104E5000050F01D10001241D850F01D18000A41C84
:104E6000002801DB4000641C002908D020252E1BEF
:104E70000D46F540A14000D0012129430843010619
:104E80001B1B000ADB1D02D5002070BC7047DB0530
:104E9000181880180029F8DA401C4900F5D170BCB8
:104EA0004008400070470000064C0125064E05E012
:104EB000E36807CC2B430C3C98471034B442F7D33B
:104EC000FBF7C2FA945A0020D45A002003B40148D8
:104ED000019001BD551B020003B40148019001BDC2
:104EE0000F3B030003B40148019001BDCF2B030029
:104EF00003B40148019001BDCB2C030003B4014869
:104F0000019001BD0990020003B40148019001BD68
:104F10001F21020003B40148019001BDC12D03000F
:104F200003B40148019001BD0921030003B4014805
:104F3000019001BDC92D030003B40148019001BDDA
:104F40002B69020003B40148019001BDEB3103005D
:104F500003B40148019001BD3D32030003B4014890
:104F6000019001BDD721030003B40148019001BDA8
:104F7000A73A030003B40148019001BD913B03002F
:104F800003B40148019001BD2F2F030003B4014871
:104F9000019001BD998F020003B40148019001BD49
:104FA000938F020003B40148019001BDCD8C020033
:104FB00003B40148019001BD418F020003B40148D0
:104FC000019001BD2768020003B40148019001BDB2
:104FD0003968020003B40148019001BDB7800200A6
:104FE00003B40148019001BD213B030003B4014813
:104FF000019001BDBF22020003B40148019001BD30
:10500000EB26030003B40148019001BD35240300E1
:1050100003B40148019001BD2F22020003B40148EE
:10502000019001BDDD20030003B40148019001BDE2
:10503000533B030003B40148019001BD9D200300D0
:1050400003B40148019001BD3350020003B401488C
:10505000019001BD3126030003B40148019001BD58
:105060005548020003B40148019001BD1F500200E1
:1050700003B40148019001BDB326030003B4014805
:10508000019001BDFD3D030003B40148019001BD45
:10509000A528030003B40148019001BDD5AF02006B
:1050A00003B40148019001BDA1A5020003B4014869
:1050B000019001BDE3A5020003B40148019001BDC8
:1050C00087A8020003B40148019001BDA7A902000E
:1050D00003B40148019001BD93AA020003B4014842
:1050E000019001BD95AB020003B40148019001BDE0
:1050F000F9AB020003B40148019001BD69AC0200A4
:1051000003B40148019001BD17AD020003B401488A
:10511000019001BD77AD020003B40148019001BDCB
:10512000F1AD020003B40148019001BD85AE02005B
:1051300003B40148019001BD11AF020003B401485E
:10514000019001BDB123030003B40148019001BDEA
:1051500049E5020003B40148019001BDF9E30200F2
:1051600003B40148019001BDE123030003B40148E9
:10517000019001BD4BCD020003B40148019001BD77
:1051800099D1020003B40148019001BDABD00200E7
:1051900003B40148019001BD69D0020003B4014885
:1051A000019001BD77CF020003B40148019001BD19
:1051B00001CC020003B40148019001BD29CC0200DA
:1051C00003B40148019001BD15D2020003B40148A7
:1051D000019001BD8DD2020003B40148019001BDD0
:1051E0007F0C030003B40148019001BDAB0C030028
:1051F00003B40148019001BD773B030003B40148AB
:10520000019001BD7920030003B40148019001BD64
:105210002129030003B40148019001BDD990020087
:1052200003B40148019001BDC768020003B40148FE
:10523000019001BD0D2C030003B40148019001BD94
:105240001531030003B40148019001BD1B66020043
:1052500003B40148019001BD652C030003B401486B
:10526000019001BDF793020003B40148019001BD14
:10527000DB2E030003B40148019001BD231D020091
:1052800003B40148019001BDC32C030003B40148DD
:10529000019001BD3B66020003B40148019001BDCD
:1052A0002B66020003B40148019001BD038D02008A
:1052B00003B40148019001BDCF8F020003B401483F
:1052C000019001BD533B030003B40148019001BDAF
:1052D0008725030003B40148019001BD7B9C0200B7
:1052E00003B40148019001BD459F020003B4014889
:1052F000019001BD6D9B020003B40148019001BD06
:10530000B7E3020003B40148019001BDE3E30200EA
:1053100003B40148019001BD95E3020003B40148C4
:10532000019001BD9598020003B40148019001BDB0
:105330009599020003B40148019001BDA59B0200AC
:1053400003B40148019001BDF3AF020003B401486A
:10535000019001BD2528030003B40148019001BD5F
:10536000FD3A030003B40148019001BDD33A0300A4
:1053700003B40148019001BD0D24030003B40148AA
:10538000019001BD213B030003B40148019001BD20
:105390007111020003B40148019001BD7D1D02009E
:1053A00003B40148019001BD8D3D030003B40148E1
:1053B000019001BD453B030003B40148019001BDCC
:1053C000B1100200FFB581B00C4605460A461F46E3
:1053D000012000210A9EFFF7E3FF2A01FFF7E0FF0B
:1053E0000C4B1A685B6810401940084300D100BE9E
:1053F000002E2146284602D000F07EF801E000F0A1
:105400009DF83B4621462846039A00F0B9F805B0BE
:10541000F0BD00002090002070B504460D460A46FD
:1054200001200021FFF7BCFF2201FFF7B9FF0A4A64
:105430001368526818401140084300D100BE032C85
:1054400000D1042405496001401800880121A940C9
:10545000084000D0012070BD209000200030005096
:1054600010B5244CE38901221146133881408B4347
:10547000C80701D0002038E0880701D5012034E0BA
:10548000480701D5022030E0080701D503202CE0B1
:10549000C80601D5042028E0880601D5052024E0AF
:1054A000480601D5062020E0080601D507201CE0AB
:1054B000C80501D5082018E0880501D5092014E0A9
:1054C000480501D50A2010E0080501D50B200CE0A5
:1054D000C80401D50C2008E0880401D50D2004E0A3
:1054E000480401D50E2000E00F2082401343E381E1
:1054F00010BD00000014005070B504460D460A4669
:1055000001200021FFF74CFF2201FFF749FF094A64
:105510001368526818401140084300D100BE032CA4
:1055200000D104240449600140180121A9404180B0
:1055300070BD0000209000200030005070B504467F
:105540000D460A4601200021FFF72AFF2201FFF73E
:1055500027FF094A1368526818401140084300D1D8
:1055600000BE032C00D1042404496001401801212D
:10557000A940818070BD00002090002000300050C4
:10558000F8B5164604460D460A461F46012000217E
:10559000FFF706FF2201FFF703FF094B1A685B685C
:1055A00010401940084300D100BE032C00D1042450
:1055B000044960014018690008183E43C680F8BDE0
:1055C0002090002000300050FEB50020214E034600
:1055D00028220021424392198C00491C13510A29A8
:1055E000FADB401C0428F3DBFBF74AFA19480022D7
:1055F0000838026042601546002417486900475A7F
:105600000120A04080B207421CD0282068438019A6
:10561000A1004058411C19D0002810D0C1172246C3
:10562000FFF7BEFE2A01FFF7BBFE0A4B083B1A68D4
:105630005B681043074A1943083A10605160641CC4
:105640000A2CDDDB6D1C042DD6DBFEBD009501941C
:1056500000BEE3E728900020BE56002002E008C804
:10566000121F08C1002AFAD170477047002001E0DC
:1056700001C1121F002AFBD1704700000149486098
:10568000704700001C80002071050020A52000202C
:10569000912100204F2200207D220020E11F0020C8
:1056A00045200020892400200101000A04280A0462
:1056B0000203AA0055032A00A001FFFF2C01FF00EE
:1056C0003F00FF03FF0100001130EF00FFFFFF006C
:1056D00000000200000100002C0000001230EF006A
:1056E000FFFFFF0000000400000100002C0000008C
:1056F00000421F0000FFFF00000002000001000048
:10570000040000000028010002000200E857002009
:105710000328010005000500EA570020292A01009E
:105720001200000000000000032801000500050031
:10573000EF570020242A01001200000000000000A2
:105740000328010005000500F4570020252A010068
:105750001200000000000000032801000500050001
:10576000F9570020272A0100120000000000000065
:105770000328010005000500FE570020262A01002D
:1057800012000000000000000328010005000500D1
:1057900003580020282A0100120000000000000029
:1057A000032801000500050008580020232A0100F5
:1057B00008000000000000000328010005000500AB
:1057C0000D5800202A2A01001200000000000000ED
:1057D000032801000500050012580020502A01008E
:1057E00007000000000000000A18020000292A0239
:1057F0000100242A020200252A020300272A0204AB
:1058000000262A020500282A020600232A02070091
:105810002A2A020800502A00485800206058002018
:105820005A8000200300010000700000592C002065
:1058300002700000AF2C002003700000F92C002043
:1058400003380000332D00202858002001000000FC
:10585000305800200200000000000000000000009E
:105860004058002001000000F5FE34CC54B9F95630
:10587000C6912140A641A8CA82805186F05A34427E
:1058800004885F4BC35EF0494272D44F33FB927C75
:1058900022A0FE45A14725DB536C31DA3F675B85CB
:1058A0008391D8490C00A3B9849DB29C7BB1D05799
:1058B0001691A14C16D5E8717845885C066AEBB361
:1058C0000A99F5468C7994DF785F00000C59002026
:1058D0002459002064800020030001000804000017
:1058E000C92E002000040000253100200E300000E9
:1058F00081310020060400000F3100200704000061
:10590000C53000200338000009330020DC58002097
:1059100001000000E458002001000000EC580020C5
:1059200003000000045900200100000000010203F0
:105930000405060708090A0B0C0D0E0F10111213AF
:105940001415161718191A1B1C1D1E1F202122239F
:105950002425262728292A2B2C2D2E2F9459002048
:10596000AC590020708000200300010004000000FA
:105970000134002000000000093500200E30000036
:10598000C1350020060000008135002003380000EA
:10599000613600206C59002001000000745900207D
:1059A000010000007C590020020000008C590020FA
:1059B00001000000000000008C5A0020A28000209E
:1059C0000600010001340000993900200034000075
:1059D000BD390020003800005F3A00200138000087
:1059E0003F3A002003380000913A002000C8000030
:1059F0009D3A002010340000C13A00201338000006
:105A00007538002015380000C7380020173800000E
:105A10000939002019380000813900200170000088
:105A2000153B002004700000633C002002040000CD
:105A3000D74B002003040000F14B002004040000B9
:105A40002B4C002005040000474B002009040000F7
:105A5000214B002001C800000940002002C80000BE
:105A600033400020050000004740002002000000F5
:105A700071400020010000006D40002003C80000BC
:105A80004F4100200300000017410020C4590020AE
:105A9000190000007C5B00207C5B002050010000AE
:105AA0006C5600207C5B002000800020C8000000B5
:105AB0006C5600207C5B002020900020FC00000041
:105AC0006C56002068070800202A0800E005000046
:105AD0006C5600200A000034CC54B9F956C6912106
:105AE00040A641A8CA82800A00005186F05A34427A
:105AF00004885F4BC35EF0494272020000D44F330A
:105B0000FB927C22A0FE45A14725DB536C0A0000D6
:105B100031DA3F675B858391D8490C00A3B9849D36
:105B20000E0000B29C7BB1D0571691A14C16D5E85F
:105B3000717845120000885C066AEBB30A99F54655
:105B40008C7994DF785F0A00001011121314151677
:105B50001718191A1B1C1D1E1F1A000020212223B2
:105B60002425262728292A2B2C2D2E2F6401504D41
:0C5B7000322E353A00000000000000005A
:040000052000044192
:00000001FF
